:0200000460009A
:100000004643464200000156000000000103030081
:1000100000000000000000000000000000000000E0
:1000200000000000000000000000000000000000D0
:1000300000000000000000000000000000000000C0
:1000400000000000010408000000000000000000A3
:100050000000800000000000000000000000000020
:100060000000000000000000000000000000000090
:100070000000000000000000000000000000000080
:10008000EB04180A063204260000000000000000FD
:10009000050404240000000000000000000000002F
:1000A0000000000000000000000000000000000050
:1000B0000604000000000000000000000000000036
:1000C0000000000000000000000000000000000030
:1000D00020041808000000000000000000000000DC
:1000E0000000000000000000000000000000000010
:1000F0000000000000000000000000000000000000
:10010000D8041808000000000000000000000000F3
:100110000204180804200000000000000000000095
:1001200000000000000000000000000000000000CF
:10013000600400000000000000000000000000005B
:1001400000000000000000000000000000000000AF
:10015000000000000000000000000000000000009F
:10016000000000000000000000000000000000008F
:10017000000000000000000000000000000000007F
:10018000000000000000000000000000000000006F
:10019000000000000000000000000000000000005F
:1001A000000000000000000000000000000000004F
:1001B000000000000000000000000000000000003F
:1001C000000100000010000001000000000000001D
:1001D000000001000000000000000000000000001E
:1001E000000000000000000000000000000000000F
:1001F00000000000000000000000000000000000FF
:10020000FFFFFFFFFFFFFFFFFFFFFFFFFFFFFFFFFE
:10021000FFFFFFFFFFFFFFFFFFFFFFFFFFFFFFFFEE
:10100000D10020432914006000000000000000000F
:101010002010006000100060006805600000000003
:10102000000000600074050000000000FFFFFFFFEB
:10103000FFFFFFFFFFFFFFFFFFFFFFFFFFFFFFFFC0
:10104000FFFFFFFFFFFFFFFFFFFFFFFFFFFFFFFFB0
:10105000FFFFFFFFFFFFFFFFFFFFFFFFFFFFFFFFA0
:10106000FFFFFFFFFFFFFFFFFFFFFFFFFFFFFFFF90
:10140000884207D0904205D251F8043B40F8043B93
:101410008242F9D8704700BF884204D2002340F8C6
:10142000043B8142FBD8704710B5504B504A5A6478
:10143000504A1A644FF42A029A634F4B9D46BFF3F9
:101440004F8FBFF36F8F00F0C5F908224B4BC3F8E5
:1014500054214B4A4B494C48FFF7D2FF4B4A4C4969
:101460004C48FFF7CDFF4C494C48FFF7D5FF4FF4F0
:1014700070024B4B1A60002304E04A494A4A42F882
:1014800023100133AF2BF8D9002303E08021474A12
:10149000995401339F2BF9D9454B434A1A6000F008
:1014A00085F9444A136843F4E0231360424CE3692E
:1014B00023F07F0343F04003E361636A23F07F037B
:1014C00043F040036362294B4FF0FF329A66DA66BD
:1014D0001A675A6700F084F900F00AFD00F03EFB3D
:1014E00000F064F9354800F0EFFCE36E43F440533C
:1014F000E366334B00221A60C3F80821C3F81821B1
:10150000C3F82821C3F8382103F5A0239B6B13F0FF
:10151000010F09D12B4B2C4A5A6542F615621A6508
:101520009A6B42F001029A63264A936843F00113D2
:10153000936000F0C5F900F085FC00F0C1FC00F0FC
:1015400041FB00F049F9214B1B68132BFBD900F03C
:10155000D5FB1E4B1B68B3F5967FFAD300F03EF91E
:1015600000F0B6FC00F0A8FC30BFFDE700C00A4068
:10157000FFFFAFAA070020000000032000800D40FD
:1015800088A304000421006000000000C082002045
:1015900052E4046000000020C0A60020C0820020A9
:1015A00088ED00E0094E00000080002000E400E02B
:1015B00008ED00E024ED00E000C00F400046C3232A
:1015C0000040084000400D400000C05698A5002093
:1015D00030B442690B011A44147A0D4A02EB041428
:1015E000A4680C4D2560446923441C7A02EB041264
:1015F0005268DB68136043694A1C12019A5822B191
:10160000013103EB01114B68136030BC704700BF20
:101610004444002061F8010070B54269037E02EB8A
:1016200003131E7A8E421BD0002402EB04131B7A94
:10163000FF2B15D08B4203D001341F2CF5D970BD80
:101640000546136819685368194208D0054B03EB27
:101650000616736805221A60E1B2FFF7B9FF2C760F
:1016600070BD00BF4444002030B442690B011A44ED
:1016700092F828400D4A02EB0414A4680C4D256032
:101680004469234493F8284002EB04125268DB6A51
:1016900013604369CA1C12019A5822B1033103EB4B
:1016A00001114B68136030BC704700BF44440020F8
:1016B00061F8010070B54269437E02EB031393F8B1
:1016C00028608E421CD0002402EB041393F82830CB
:1016D000FF2B15D08B4203D001341F2CF4D970BDE1
:1016E0000546136819685368194208D0054B03EB87
:1016F0000616736805221A60E1B2FFF7B5FF6C7633
:1017000070BD00BF4444002038B504460D4A936BB9
:1017100023F47C0343F48023936341690A681568CA
:101720004B682B431360036902221A61064900F0DB
:10173000D3FB217E2046FFF74BFF617E2046FFF75B
:1017400093FF38BD00C00F40A0860100094BC3F8CD
:10175000A010000400F47020C3F8A4000122C3F814
:10176000B020044B5B6913F0010FFAD00122014B4A
:101770005A61704700402A400A4BC3F8A0000A4A49
:10178000C3F8A4200122C3F8B020064B5B6913F014
:10179000010FFAD0034BD3F8000121225A6180B225
:1017A000704700BF00402A4004000300064B4FF082
:1017B0008032C3F804210549C3F80011C3F8F420AE
:1017C000034AC3F8F020704700800D401B1018201A
:1017D0000C0D1113704700BF704700BF704700BF6A
:1017E00010B4224C00202060214A10231360214BAA
:1017F00021491960112111602049196012211160DD
:101800001F4919601F4911601F4919601F49116064
:101810001F4919601F4941F0150111601E491960E7
:1018200001F181510D3111601C4919601C49116091
:101830001C4919601C4911601C4919601C49116040
:101840001C4A1A6001232360BFF34F8FBFF36F8FD1
:10185000194B1860BFF34F8FBFF36F8F174A136890
:1018600043F4403313605DF8044B704794ED00E09F
:101870009CED00E0A0ED00E03F0000102500080313
:1018800009001000130020002100020714000020AE
:1018900025000813C0A600200900001027000B1324
:1018A0001700004033001013180000602F000B07D2
:1018B000190000702F000B1350EF00E014ED00E052
:1018C00010B582B08E4B8F4AC3F85C228E49C3F8A4
:1018D0006012C3F86422A2F53042C3F8682202F510
:1018E000E042C3F86C22C3F87022C3F87422C3F834
:1018F00078221822DA661A675A679A67DA67C3F895
:101900008020C3F88420C3F8882003F58063012277
:10191000C3F82C23C3F83023C3F83423C3F8382387
:10192000C3F83C23C3F85023784B9A697849114097
:10193000784A0A439A61D3F8842042F00C02C3F833
:101940008420754A136843F002031360116821F480
:10195000F14121F073010904090C704B0B43136032
:101960004FF0FF3353606E4CA16803F5770303F526
:1019700060530B4043F000539360D36823F0780327
:10198000D360136A6748034067490B431362136AC5
:10199000184001435162654B9362D362D4F8B8306A
:1019A00023F03F0343F00103C2F8B830D4F8BC3051
:1019B00023F03F0343F00103C2F8BC30002313615E
:1019C0004FF4005414665A48106740F20561C2F89B
:1019D000801054665067C2F88410116821F002012B
:1019E0001160544991610221D16104E00021524A01
:1019F00042F8231001333F2BF8DD474A136843F0C8
:101A000001031360444B1B6813F0010FFAD1424BE2
:101A1000484A9A610224DC6140F2F562C3F8002270
:101A200040F26642C3F8102240F29942C3F82022E5
:101A3000424AC3F8302242F20142C3F8342240F253
:101A40003542C3F840223E4AC3F850223D4AC3F80B
:101A500054223D4AC3F8602242F20122C3F86422B4
:101A600000210846FFF772FE00210120FFF76EFEFD
:101A700000212046FFF76AFE0020FFF77DFE45F6B5
:101A80000D53984234D100210420FFF75FFE4FF43C
:101A900000010020FFF75AFE4FF400010120FFF77C
:101AA00055FE4FF400012046FFF750FE4FF40000B2
:101AB000FFF762FE45F60D53984208D14FF400013E
:101AC0000420FFF743FE1022204B1A7002E0082288
:101AD0001E4B1A701D4B1A781D49C1EB0252002390
:101AE000009301231B4802441B4800F0F9F905E06C
:101AF000194B00221A605A609A60DA6002B010BD79
:101B000000801F40F9B00100F910010000C00F4033
:101B1000FFFCFF1F000300A000402A401200FFFF4F
:101B200000802A4000FFF07C40000080FF000F830F
:101B300063000200F05AF05A00422A409F04183015
:101B4000EB06180A063201263806180A05A60020F8
:101B5000000000700000007064A60020184B1B6994
:101B600013F0020F0AD0164B4FF440429A614FF423
:101B700080325A6143F242029A61EFE713F4005F48
:101B800004D14FF400520E4B5A61E7E713F4805F23
:101B900004D14FF480520A4B5A61DFE7002BDDDAA3
:101BA00013F4803F04D04FF48032054B9A61D5E79F
:101BB00013F0400F03D14022014B5A61CEE770472A
:101BC00000800D4030B5404A136823F001031360D4
:101BD000032313613D4BD3F8E030D8B23C4C206076
:101BE000C3F30B213B4D29601B0D07EE903A07EE26
:101BF000100AF8EE476AF3EE094A36EEE46A364810
:101C000080ED006AF8EE677A07EE101AB8EE477AB0
:101C100077EEC77A3149C1ED007ADFED315A76EEC1
:101C2000E56A67EEA67AC7EE866A37EE267ABCEEDC
:101C3000C77A136817EE10EA43EA0E531360D5ED26
:101C4000007AF8EE677A94ED007AB8EE477A9FED65
:101C5000256A37EE466AD1ED005A26EE256A90EDE8
:101C6000005AC6EE056A77EEA66AFCEEE66A16EE44
:101C7000903AD2F810011C4901EA03430343C2F829
:101C8000103137EE647A25EE877AC7EE056A77EE73
:101C9000A67AFCEEE77AD2F8101117EE903AC3F369
:101CA0000B030B43C2F81031136843F002031360B7
:101CB00000220E4B1A700E4A0E4BC3F8402101222F
:101CC0000D4B1A6030BD00BF80810D4000441F40A5
:101CD00058A5002054A500205CA5002060A5002088
:101CE0000000AA420000B4420000FF0F40E400E000
:101CF000F94F00000080002008E100E038B540F610
:101D00006172304BC3F8202100F0FAF82E4AD2F865
:101D1000803043F00303C2F8803040F204422B4B82
:101D2000C3F860212A4B1A682A4B1A4205D1274B67
:101D3000D3F8A83113F0030F1BD04FF00042244B0F
:101D40005A63224AD2F8403143F00203C2F84031CC
:101D50001E4BD3F8403113F0020FF9D14FF400328B
:101D60001D4B1A604FF00042194B9A63192000F086
:101D7000C3F8174B4FF080429A6300211960134C4F
:101D80000A23C4F8A831154D4FF42072284600F0FC
:101D9000ABF84FF481032B604FF480032B64C4F83D
:101DA000585140F24313C4F848310D4A0D4BC3F863
:101DB00004224FF400320C4B1A600123C4F8403166
:101DC00038BD00BF00800D4000C00F4000002E4015
:101DD00000900D40001C1E008CE200E0000000207E
:101DE00019560000008000200CE100E008B50F4B00
:101DF0001B6E13F0020F01D1FBBE16E072B600227B
:101E00000B4BC3F840210B4AA3F50D131A64A3F141
:101E1000FF53A3F52B239D46BFF34F8F0648074B77
:101E20000360074B1B689B68984700BF00441F4036
:101E300000002E400300200000802020000012EB54
:101E40001C002000144BDA6E42F44032DA66DA6E7F
:101E500042F44072DA66A3F5603340F237625A64A6
:101E6000A0229A6401220D4B1A700D4B9B6C13F04B
:101E7000800FFAD10B4B40F237625A64A0229A6469
:101E80000122064B1A70074B9B6C13F0800FFAD19E
:101E90000022024B1A70704700C00F4004A60020B9
:101EA00000400C4000800C40F8B500BFF8BC08BCF6
:101EB0009E467047000000005FF800F0854A000071
:101EC0005FF800F0E94C00005FF800F08946000080
:101ED0005FF800F0ADBC03005FF800F0A91000004F
:101EE0005FF800F0456200005FF800F0CDC7030026
:101EF0005FF800F0A14D00005FF800F069490000B4
:101F00005FF800F0C158000045000000AD0000007F
:101F1000350B000019220000893C00001D0A010059
:101F2000056F010031F80100710802005D850200B3
:041F3000E18F02003B
:101F340080C00F40000000031900000010000000E2
:101F4400E8841F4001000000FF000000FF000000C3
:101F54000000000000000000180000001000000055
:101F6400E4841F4001000000FF000000FF000000A7
:101F740000000000000000001F0000009910000095
:101F840070C00F40000C00001100000011000000A0
:101F9400E0841F40020000002C000000120000003A
:101FA400E0841F4001000000100000001100000048
:101FB400DC841F40020000002D000000120000001D
:101FC400DC841F40010000001E0000008910000096
:101FD40070C00F40C0000000120000001300000099
:101FE400D0841F4001000000FF000000FF0000003B
:101FF40000000000000000001300000013000000B7
:10200400CC841F4001000000FF000000FF0000001E
:1020140000000000000000001C0000007910000017
:1020240001010101010101001603550053004200A2
:102034002000530065007200690061006C0000001C
:1020440018035400650065006E0073007900640095
:10205400750069006E006F000403090409024B0057
:10206400020100C032080B00020202010009040050
:1020740000010202010005240010010524010101F0
:10208400042402060524060001070582031000103B
:1020940009040100020A00000007050302400000D1
:1020A400070584024000000009024B00020100C041
:1020B40032080B00020202010009040000010202BE
:1020C4000100052400100105240101010424020675
:1020D4000524060001070582031000050904010018
:1020E400020A00000007050302000200070584023B
:1020F400000200000A060002EF0201400100010094
:1021040000000000000000000000000000000000CB
:1021140000000000000000000000000000000000BB
:1021240010B5054C237833B9044B13B10448AFF30D
:1021340000800123237010BD4884002000000000AB
:10214400D4910400084B10B51BB108490848AFF3FB
:1021540000800848036803B910BD074B002BFBD06F
:10216400BDE81040184700BF000000004C84002068
:10217400D4910400C08200200000000001280ED188
:102184004FF6FF7399420AD110B5054C204606F06C
:1021940039FB044A0449204606F00EF910BD704785
:1021A40004A30020886E00202167000008B54FF6C4
:1021B400FF710120FFF7E2FF08BD00BF0022826229
:1021C400704700BF704700BF836A0A2B03D040F8F2
:1021D400231001338362704738B505460024AB6A87
:1021E4009C4206DA55F8240018B100F009F80134CD
:1021F400F5E738BD02608160704700BF704700BFDB
:1022040008B5054B1A684368D31A81688B4202D318
:1022140042600368984708BD98A5002010B504469D
:10222400044901F0C3FB58227721204601F02AFD1E
:10223400204610BDD472002010B5044601F0E8FB1E
:10224400204610BD38B50546274C23685B680E222E
:10225400264920469847284601F050FD0221B7EE52
:10226400C00A204604F0DCF923685B680322204995
:1022740020469847204604F071F923685B680B22D6
:102284001C4920469847284601F082FD0221B7EEFA
:10229400C00A204604F0C4F923685B680322164987
:1022A40020469847204604F059F923685B680B22BE
:1022B4001249204698479FED120A284601F07CFEF9
:1022C4000221B7EEC00A204604F0AAF923685B682D
:1022D40002220C4920469847204604F03FF9204644
:1022E40004F03CF938BD00BFE46E0020F84700203C
:1022F400084800200C480020184800201C480020F2
:1023040000507D442848002038B5044602F00CF8FB
:1023140004F1D805002301221946284602F046FCA0
:102324004FF41651284602F0ABFC41F2883004F019
:102334009BFB204638BD00BF10B50446034BC0F8D4
:10234400D830D83002F0BCFC204610BDBC2D002093
:10235400F8B504466B4803685B680A226A499847E3
:102364002378ABB1204602F0D9F8664D0621284601
:1023740004F056F92B685B680122644928469847A3
:10238400204602F0E5F80621284604F049F905E064
:102394005C4803685B6807225D49984759480368AD
:1023A4005B680D225B49984794F838304BB304F1CD
:1023B4003806304602F020F9524D00230A22014625
:1023C400284604F0E3F8544F2B685B680122394631
:1023D40028469847304602F021F900230A22014694
:1023E400284604F0D3F82B685B6801223946284656
:1023F4009847304602F0EEF80146284604F004F906
:1024040005E0404803685B680722414998473D4816
:1024140003685B6801224149984794F84830002BCF
:1024240066D04834204602F005F9092805D8354815
:1024340003685B6801223A499847204602F0FAF89B
:10244400304D00230A220146284604F09FF82B68E9
:102454005B680122334928469847204602F0F6F883
:10246400092805D828462B685B6801222C4998471F
:10247400204602F0EBF8234D00230A2201462846A9
:1024840004F084F82B685B680122264928469847A3
:10249400204602F0EFF8092805D828462B685B6827
:1024A40001221F499847204602F0E4F8154D002305
:1024B4000A220146284604F069F82B685B68012269
:1024C400194928469847204602F0E6F8092805D815
:1024D40028462B685B68012211499847204602F080
:1024E400DBF800230A220146064804F04FF805E011
:1024F400044803685B68072205499847014804F0CB
:102504002DF8F8BDE46E00202C4800203848002047
:102514003C480020444800205448002050480020F3
:1025240058480020084A00205C4800200E4B1A68D6
:1025340041F288339A4205D9D0F8C830092B03D820
:10254400012302E0002300E000235BB110B5074C37
:1025540023685B681E22064920469847204603F0FC
:10256400FDFF10BD704700BF98A50020E46E002059
:1025740060480020F8B505460F460B4B1E6805F170
:10258400D804204602F0A4FA38B1204602F0B4FA86
:10259400C1B2284602F016FAF1E7034B1B689B1BF5
:1025A400BB42ECD3F8BD00BF98A5002070B505462A
:1025B4000E4605F1D804204602F08AFA00280CDD04
:1025C400204602F099FAC1B2284602F0FBF900282D
:1025D400EFD02846FFF7BCFEEBE731462846FFF76D
:1025E400C9FF2846FFF7A2FF70BD00BF704700BFB8
:1025F400F0B587B004460F4600F14C05134E334640
:1026040028224FF0FF31284600F050FE334628229E
:10261400394601A800F04AFE9DF8083084F850308D
:10262400039B6365049BA3659DF8143084F85C30B8
:10263400074B01932146284600F00CFE0C21284646
:1026440000F078FE204607B0F0BD00BF9471002072
:10265400FC2D002010B598B00446074B28224FF0FB
:10266400FF314C3000F022FE37216846FFF7C0FFEF
:10267400204618B010BD00BF947100200000000077
:1026840010B52DED068B04468368012B12D16648E4
:1026940003685B6805226549984794ED05AAB7EE7F
:1026A400CAAA94ED069AB7EEC99A94ED078AB7EED2
:1026B400C88A89E0032B12D15B4803685B68072250
:1026C4005B49984794ED05AAB7EECAAA94ED069A19
:1026D400B7EEC99A94ED078AB7EEC88A74E0022B64
:1026E40012D1514803685B6804225249984794ED1B
:1026F40005AAB7EECAAA94ED069AB7EEC99A94ED64
:10270400078AB7EEC88A5FE0042B12D146480368F3
:102714005B6805224849984794ED05AAB7EECAAA12
:1027240094ED069AB7EEC99A94ED078AB7EEC88A73
:102734004AE00B2B12D13C4803685B6804223F49F2
:10274400984794ED05AAB7EECAAA94ED069AB7EE97
:10275400C99A94ED078AB7EEC88A35E00A2B12D1DC
:10276400314803685B6807223549984794ED05AA08
:10277400B7EECAAA94ED069AB7EEC99A94ED078A01
:10278400B7EEC88A20E0092B12D1274803685B689A
:1027940008222C49984794ED05AAB7EECAAA94EDED
:1027A400069AB7EEC99A94ED078AB7EEC88A0BE089
:1027B4001D4803685B680422234998479FED188BE2
:1027C400B0EE489BB0EE48AB174C23685B6804221C
:1027D4001E49204698470221B0EE4A0B204603F0DA
:1027E4001FFF23685B680622194920469847022187
:1027F400B0EE490B204603F013FF23685B68062202
:102804001449204698470221B0EE480B204603F0B5
:1028140007FF204603F0A2FEBDEC068B10BD00BFEF
:102824000000000080842EC1E46E00204C4900208A
:10283400544900205C490020644900206C49002070
:10284400744900207C4900208849002090490020D8
:1028540098490020A0490020F0B5BBB00F4600F114
:102864004C051A2231A9284600F016FF142228A983
:10287400284600F011FF28221FA9284600F00CFF6B
:102884000E2216A9284600F007FF08220DA92846A3
:1028940000F002FF2E2204A9284600F0FDFE31A814
:1028A400FFF7EEFE28A8FFF7EBFE1FA8FFF7E8FEF0
:1028B40016A8FFF7E5FE0DA8FFF7E2FE04A8FFF750
:1028C400DFFE284600F0B0FD0646344C204603F0F7
:1028D40045FE23685B680D223149204698473146FE
:1028E400204603F091FE204603F038FE00268DF8C2
:1028F4000C6003AB00930DF10D030DF10E020DF10D
:102904000F01284600F078FD204603F027FE2368D7
:102914005B68112223492046984733460A229DF8D2
:102924000F10204603F032FE23685B6806221E491E
:102934002046984733460A229DF80E10204603F09D
:1029440025FE23685B6807221849204698473346CA
:102954000A229DF80D10204603F018FE23685B68D8
:10296400052213492046984733460A229DF80C1045
:10297400204603F00BFE204603F0F0FD23685B685D
:1029840002220C4920469847204603F0E7FD17B180
:10299400642004F069F83BB0F0BD00BFE46E002091
:1029A400A8490020B8490020CC490020D44900207F
:1029B400DC490020E449002010B50446FFF74AFE34
:1029C40004F16000FFF7A0FC04F5AE70FFF726FCED
:1029D400204610BD10B5044600F5AE70FFF72CFC80
:1029E40004F16000FFF7A8FC014BE364204610BD2E
:1029F400FC2D0020704700BF6030704700F5AE70BA
:102A0400704700BF08B5094B1B783BB101210D206D
:102A140004F040F80022054B1A7008BD00210D2077
:102A240004F038F80122014B1A7008BD357E0020ED
:102A340008B50021024B1868FFF70EFF08BD00BF60
:102A440074A3002008B54FF47A71024B1868FFF79D
:102A5400ADFD08BD70A3002008B5024B1868FFF750
:102A6400F1FB08BD5CA30020012848D14FF6FF7399
:102A7400994244D170B5224D2846FFF79DFF214C61
:102A840022462149284605F097FC204D2846FFF7A9
:102A940095FB22461E49284605F08EFC1D4E1E4A13
:102AA40041F288313046FFF7A5FB1C4D22462946EA
:102AB400304605F081FC1A4E1A4A64213046FFF76D
:102AC40099FB22462946304605F076FC164E174AF5
:102AD4004FF4FA613046FFF78DFB22462946304613
:102AE40005F06AFC124E134A4FF4FA613046FFF7C0
:102AF40081FB22462946304605F05EFC70BD7047D6
:102B0400B8A30020886E0020D508000068A5002026
:102B1400C5000000B0A5002005090000FD0000006C
:102B2400D8A5002031090000C4A5002045090000F3
:102B34009CA500205909000038B501210D2003F09F
:102B4400DFFF2B4B1C6805F015FB2A4B1B7813F099
:102B5400FF0F0DD0284B1B7813F0010F0AD0244B24
:102B64001B68264A12689B1A0E2B05D8002304E022
:102B7400002302E0002300E0012393B91C4B1B68EF
:102B84001B1B1C4A127812F0FF0F03D0B3F5FA6F27
:102B940004D906E040F2EE22934202D805F0EAFAA4
:102BA400D1E7174C17492046FFF70EFB4FF47A7014
:102BB40003F05AFF144D2846FFF71CFF134B18600F
:102BC4002846FFF719FF124B18602846FFF716FF37
:102BD400104B186010492046FFF7F6FA0F492046BB
:102BE400FFF7F2FA0E492046FFF7EEFA38BD00BFB0
:102BF40098A500200DA600200CA6002074A6002095
:102C040068A50020B0A50020B8A3002074A300206C
:102C140070A300205CA30020D8A50020C4A5002038
:102C24009CA5002008B50248FFF7D6FA08BD00BFEE
:102C340068A5002008B54FF6FF710120FFF714FFC7
:102C440008BD00BF0020704790F8A32090F8A200B0
:102C5400101A704790F8A23090F8A320934205D23E
:102C64005A1C80F8A2200344987E70474FF0FF302E
:102C7400704700BF90F8A23090F8A320934202D28C
:102C84000344987E70474FF0FF307047704700BF91
:102C9400B0F830317BB190F82F31882B03D9012360
:102CA4000371002070475A1C80F82F21184480F8C3
:102CB400A510012070470020704700BF38B5B0F858
:102CC4003031BBB10546144690F82F31C3F1890267
:102CD400A24202D201202871144605F1A500224621
:102CE400184403F057FF95F82F31234485F82F310A
:102CF400204638BD002038BD2DE9F0414369027EED
:102D040003EB0212167A427E03EB021393F8284077
:102D1400484B4FEA061E03EB0E01CF68220103EB7A
:102D24000208D8F80C5049684FF0150CC1F800C0DF
:102D340053F80E10C1F8847053F80EE0DEF8041056
:102D44003943CEF80410D8F80410C1F800C09958DB
:102D5400C1F884509A5853682B435360364B196812
:102D6400364B1B68364AA2FB03239B0C03EB8303FD
:102D74005A00314B1B685B1A9A42FAD80021082981
:102D84003EDC33012B4AD3589B681F4206D02301F3
:102D9400D3589B681D4203D1002302E0002300E0C6
:102DA40001237BBB2301234AD358C3F88850224B09
:102DB400D3F800E0214B1B68214AA2FB0332920C9A
:102DC40002EB82021C4B1B68CEEB03039A42F9D838
:102DD4002301184AD358C3F88450174BD3F800E0A2
:102DE400164B1B68164AA2FB0332920C02EB8202BA
:102DF400114B1B68CEEB03039A42F9D80131BEE7AD
:102E0400002100E001210B4B03EB061675684269B3
:102E1400067E02EB0612D2682A6003EB04135A689A
:102E24004369407E03EB0013DB6A13600846BDE888
:102E3400F08100BF44440020041000E0906E0020A4
:102E440083DE1B4310B504460D4B1A6823695B6986
:102E540013F0007F0CD013F0807F09D1084B1B685E
:102E64009B1A102BF2D92046FFF746FF034620B1E8
:102E740023694FF4FE425A610123184610BD00BF76
:102E840098A500202DE9F84390F82F61002E6ED00C
:102E94000F460546FFF7D6FF804600286AD03A4B16
:102EA400D3F800900024B44220D82B69DB6D03F0E2
:102EB4000703032B1AD83CB9296995F8A52042F4D5
:102EC40080620A6601240FE0B44206D22A692919F5
:102ED40091F8A5101166013406E01FB12B694FF477
:102EE40000721A66013401E00133E2E72A6953698A
:102EF40013F4006F06D0136943F440731361042084
:102F0400BDE8F88313F4806F0AD0136943F4407367
:102F140013612B694FF400721A660220BDE8F8832E
:102F240013F4005F07D118490968C9EB010132297C
:102F340003D8002102E0414600E0414651B1136943
:102F440043F4407313612B694FF400721A66042032
:102F5400BDE8F883B44207D9D26D12F0070F03D14C
:102F640013F4007F09D15FB105F004F99BE7042055
:102F7400BDE8F8830420BDE8F8830020BDE8F883A9
:102F84000020BDE8F88300BF98A500202DE9F04794
:102F940005460E4690461F46FFF754FF002800F0F2
:102FA4008A8081467600B8F1000F01D14FF0010804
:102FB400002485F8A24085F8A340404BD3F800A034
:102FC400022C23D82B69DB6D03F00703022C94BF7A
:102FD40000220122032B19D8C2B934B92869F1B2ED
:102FE40040F201420A4302660DE0012C06D1296930
:102FF40008F1FF3242F480720A6604E01FB12A69C4
:103004004FF4007111660134013BDFE795F8A330FA
:10301400872B10D82869C26DC2F302425AB195F8C1
:10302400A330872B07D8591C85F8A310016F2B44B4
:103034009976013AF2E72A69536913F4006F04D0D0
:10304400136943F44073136128E013F4105F07D14C
:103054001A490968CAEB0101322903D8002102E0A8
:10306400494600E0494641B1136943F44073136192
:103074002B694FF400721A6610E095F8A310884586
:1030840009D8022C07D9D26D12F0070F03D113F41B
:10309400007F03D117B105F06DF891E72B69DA6D64
:1030A40012F4E02F03D01A6942F400721A6195F801
:1030B400A300BDE8F0870420BDE8F08798A50020B0
:1030C40038B504460369D3F8145115F4706201D07D
:1030D400C3F8142115F0020F13D02369D3F870211B
:1030E40012F4004F04D0002384F8A23084F8A330F3
:1030F40094F8A330872B04D8591C84F8A3102344D4
:103104009A7615F0010F20D094F830314BB9D4F8E9
:10311400383103B19847002384F82E31012384F811
:10312400303194F82E3194F82F21934209D2226938
:10313400591C84F82E11234493F8A530C2F8603149
:1031440003E023690022C3F8602115F4007F11D045
:1031540094F8A30018B1D4F83C3103B19847002384
:1031640084F8A23084F8A33084F82E3184F82F3107
:1031740084F8303138BD00BF08B50248FFF7A0FF1E
:1031840008BD00BF9471002008B50248FFF798FFFE
:1031940008BD00BFD472002008B50248FFF790FFB5
:1031A40008BD00BF14740020036900221A611D4B7E
:1031B40099420DD803691C4A9A64036901225A6230
:1031C40003691A4A9A6203694FF43032DA621BE0E7
:1031D400174B99420CD80369164A9A640369002272
:1031E4005A620369144A9A620369144ADA620BE068
:1031F4000369134A9A64036900225A620369114AF3
:103204009A6203690D4ADA6203699A6C1A65036962
:1032140000221A6203694FF001129A6503690122C0
:103224001A6170477F1A06003B372819B80B050549
:103234003F420F001C1A120C100E0202007F050000
:103244000A09070460090101014B0360704700BFCC
:10325400FC2D002038B505460C46282200212046C6
:103264003BF034FB0B22094920463DF047FA00238A
:10327400E3720122E260EA6822610322626163620E
:103284000023A361E361024B236238BD244A00207A
:103294000AD7233C10B50446034B0360142103F002
:1032A40023FD204610BD00BFFC2D0020F8B50446C8
:1032B40016461F46074B036000238360C16010203D
:1032C40003F002FD05463A46314630F0B3FBA560F3
:1032D4002046F8BDE02D002000B585B08DF80C1017
:1032E4008DF80D20806800230193009301230222AE
:1032F40003A930F0D7FB05B05DF804FB08B50A4616
:1033040001743D21FFF7E8FF1E2003F0ADFB08BD6B
:1033140010B584B004AC04F8041D80680023019344
:10332400012200922346214630F036FC9DF80C0021
:1033340004B010BD70B505460E460021806830F01B
:10334400A1FB40F25234002C09DD0121A86830F0C1
:1033540099FB20B90A2003F087FB0A3CF3E7002C11
:1033640046DD00212846FFF7D3FFA02809D04FF4FB
:103374007A7003F079FB00212846FFF7C9FFA028E3
:1033840038D100212846FFF7B9FF20223F212846E3
:10339400FFF7A2FF1E2003F067FB00212846FFF77A
:1033A400B7FFA02803D00A2003F05EFBF5E7322024
:1033B40003F05AFB00223E212846FFF78DFF0A2026
:1033C40003F052FB002207212846FFF785FF002265
:1033D4003F212846FFF780FF0A2003F045FB3146D2
:1033E4002846FFF78BFF142003F03EFB012070BD3D
:1033F400002070BD002070BDF8B50F4616461D466E
:10340400069C3521FFF784FF0FB183093B7016B189
:10341400C0F30113337015B1C0F381032B7014B1E1
:1034240000F003002070F8BD08B53421FFF770FFE9
:1034340040B208BD10B584B004AC04F8041D806823
:1034440000210191009313460122214630F0A4FB90
:1034540004B010BD0000000030B583B00446084637
:103464001546002323606360A360E3602361636106
:103474000093ADF8043006236A462946FFF7DAFFC5
:103484009DF800309DF8012043EA022319B29DF80B
:1034940002309DF8032043EA02231AB29DF8043057
:1034A4009DF8050043EA00231BB2083D262D00F2D7
:1034B400B780DFE805F065B5B5B5B5B514B5B5B5F4
:1034C400B5B52FB5B5B5B5B54AB5B5B5B5B5B5B599
:1034D400B5B5B5B5B5B580B5B5B5B5B59B0007EE11
:1034E400901AB8EEE76B9FED505B26EE056B84ED0A
:1034F400006B07EE902AB8EEE76B26EE056B84EDC1
:10350400026B07EE903AB8EEE77B27EE057B84ED7D
:10351400047B85E007EE901AB8EEE76B9FED425B03
:1035240026EE056B84ED006B07EE902AB8EEE76B90
:1035340026EE056B84ED026B07EE903AB8EEE77B5E
:1035440027EE057B84ED047B6AE007EE901AB8EE63
:10355400E76B9FED355B26EE056B84ED006B07EEA4
:10356400902AB8EEE76B26EE056B84ED026B07EE4E
:10357400903AB8EEE77B27EE057B84ED047B4FE0C1
:1035840007EE901AB8EEE77B9FED296B87EE065B9A
:1035940084ED005B07EE902AB8EEE77B87EE065BCE
:1035A40084ED025B07EE903AB8EEE77B87EE065BAC
:1035B40084ED045B34E007EE901AB8EEE77B9FEDF0
:1035C4001C6B87EE065B84ED005B07EE902AB8EE79
:1035D400E77B87EE065B84ED025B07EE903AB8EE7C
:1035E400E77B87EE065B84ED045B19E007EE901A37
:1035F400B8EEE77B9FED0E6B87EE065B84ED005B18
:1036040007EE902AB8EEE77B87EE065B84ED025B5B
:1036140007EE903AB8EEE77B87EE065B84ED045B39
:10362400204603B030BD00BF000000000000B03FE2
:10363400000000000000594070B586B005460C46F5
:1036440024263246002120463BF040F92660EB68F0
:1036540063600323A3600E4B1B6823611A2229466F
:103664006846FFF7F9FE9DED007BB7EEC77B84ED5E
:10367400057A9DED027BB7EEC77B84ED067A9DED5E
:10368400047BB7EEC77B84ED077A012006B070BDDA
:1036940098A5002000000000F0B5ABB007460C462A
:1036A400154624263246002120463BF00FF92660B9
:1036B400FB686360844B1B682361002300930193C0
:1036C4000293039304930593282D25D10A23A36021
:1036D4002822394606A8FFF7BFFE0023022B08DC88
:1036E4002AAA02EBC30252E9240142E92A01013366
:1036F400F4E79DED007BB7EEC77B84ED057A9DED85
:10370400027BB7EEC77B84ED067A9DED047BB7EEB2
:10371400C77B84ED077ACEE0082D25D10123A36071
:10372400082239460CA8FFF797FE0023022B08DC79
:103734002AAA02EBC30252E91E0142E92A0101331B
:10374400F4E79DED007BB7EEC77B84ED057A9DED34
:10375400027BB7EEC77B84ED067A9DED047BB7EE62
:10376400C77B84ED077AA6E02E2D25D10923A3601B
:103774002E22394612A8FFF76FFE0023022B08DC25
:103784002AAA02EBC30252E9180142E92A010133D1
:10379400F4E79DED007BB7EEC77B84ED057A9DEDE4
:1037A400027BB7EEC77B84ED067A9DED047BB7EE12
:1037B400C77B84ED077A7EE01A2D25D10323A3600D
:1037C4001A22394618A8FFF747FE0023022B08DC0B
:1037D4002AAA02EBC30252E9120142E92A01013387
:1037E400F4E79DED007BB7EEC77B84ED057A9DED94
:1037F400027BB7EEC77B84ED067A9DED047BB7EEC2
:10380400C77B84ED077A56E0142D2DD10423A360E1
:10381400142239461EA8FFF71FFE0023022B08DCE2
:103824002AAA02EBC30252E90C0142E92A0101333C
:10383400F4E79FED235B9DED006B26EE056BB7EE81
:10384400C66B84ED056A9DED026B26EE056BB7EE43
:10385400C66B84ED066A9DED047B27EE057BB7EE0F
:10386400C77B84ED077A26E00E2D24D10223A360C2
:103874000E22394624A8FFF7EFFD0023022B08DCB3
:103884002AAA02EBC30252E9060142E92A010133E2
:10389400F4E79DED007BB7EEC77B84ED057A9DEDE3
:1038A400027BB7EEC77B84ED067A9DED047BB7EE11
:1038B400C77B84ED077A01202BB0F0BDAFF3008005
:1038C400000000A046DF913F98A50020014B036053
:1038D400704700BFFC2D0020014B0360704700BF00
:1038E400FC2D002010B50446034B0360102103F0A7
:1038F400FBF9204610BD00BFFC2D002010B5044686
:10390400034B0360102103F0EFF9204610BD00BF04
:10391400FC2D002038B505460C46282200212046FF
:103924003AF0D4FF0B220A4920463CF0E7FE00237C
:10393400E3720122E260AA6822610D22626163627D
:10394400044BE361044BA361044B236238BD00BF05
:103954002C4A0020000020C20000AA420AD7233CBF
:1039640038B505460C462822002120463AF0AEFF21
:103974000B220A4920463CF0C1FE0023E3720122D7
:10398400E260AA682261062262616362044BE36119
:10399400044BA361044B236238BD00BF2C4A0020B2
:1039A4000000964300808944A69B443C38B50446F5
:1039B400002545608560C5600561856190F83830F3
:1039C40003F0800365F3C71380F8383090F83C3077
:1039D40003F0C00365F3871380F83C3001601020C6
:1039E40003F072F9084B03604FF48C738360C46076
:1039F400E060102003F068F9044B03608560C46044
:103A04002061204638BD00BFB02E0020042F0020C6
:103A140038B5044685683DB135B1284630F0D4F850
:103A24001421284603F060F9606810B1102103F0F6
:103A34005BF9E06818B110B103685B6898472069C6
:103A440018B110B103685B689847204638BD00BFC1
:103A540030B585B08DF80D20456865B104AC04F827
:103A6400041D0023019300930123022221462846CA
:103A740030F018F80AE001F07F0304A901F8043DCE
:103A8400806800230093022230F0B4FA05B030BD00
:103A940038B58469A4B31546044690F83C2061F314
:103AA400871265F3020263F3C50280F83C209DF897
:103AB400103003F0070390F8381063F3C5019DF844
:103AC400142002F0070262F3020180F838109B0010
:103AD40043EA4213C1F3C0121A43D2B2F521FFF7ED
:103AE400B7FF94F83C2002F00701C2F3C2039B0025
:103AF40043EA411343EA9212F4212046FFF7A8FF58
:103B040038BD00BF30B585B0456865B104AC04F874
:103B1400041D0023019301220092234621462846D6
:103B240030F03AF80CE061F07F0304A901F8043D99
:103B34008068FF230193012200920B4630F07EFA45
:103B44009DF80C0005B030BD30B585B045686DB149
:103B540004AC04F8041D00230193022300932346BC
:103B640001222146284630F017F80DE061F07F036A
:103B740004A901F8043D8068FF2301930223009304
:103B84000B46012230F05AFA9DF80C009DF80D30D6
:103B940043EA002005B030BD08B5FFF7D5FF40BAB1
:103BA40080B208BD08B5FFF7F7FF00B208BD00BF3B
:103BB40030B585B045686DB104AC04F8041D00232C
:103BC40001930323009323460122214628462FF024
:103BD400E3FF0DE061F07F0304A901F8043D806870
:103BE400FF230193032300930B46012230F026FAAE
:103BF4009DF80C009DF80D301B0243EA00439DF82C
:103C04000E00184305B030BD10B504468821FFF7F7
:103C1400C3FF20848A212046FFF7C4FF60848C21DF
:103C24002046FFF7BFFFA0848E212046FFF7B4FF94
:103C3400E08490212046FFF7B5FF2085922120469D
:103C4400FFF7B0FF608594212046FFF7ABFFA08506
:103C540096212046FFF7A6FFE08598212046FFF72E
:103C6400A1FF20869A212046FFF79CFF60869C21B5
:103C74002046FFF797FFA0869E212046FFF792FF7C
:103C8400E08610BDF0B583B0044615468068A8B937
:103C94000E46606810B1102103F026F8102003F0DE
:103CA40013F80746226831462FF0C4FE67600121ED
:103CB40038462FF0E7FE034620B91CE02FF08EFFB4
:103CC4000346C0B1D0212046FFF71CFFA061A842E3
:103CD40010D12046FFF798FF00230193009305239A
:103CE4001A4603212046FFF7D3FE642002F0BCFEEF
:103CF400012300E00023184603B0F0BD836933B309
:103D040010B50446FA21FFF753FF228C5300C3EB8E
:103D1400E013B4F9221003FB01F3C2EB202202FBEF
:103D240002F21213B4F9241002FB01F2921302EB13
:103D3400E323E36103EB830380331B1207EE903A22
:103D4400F8EEE77A9FED037A87EE870A10BD9FEDC0
:103D5400020A70470000C8420000C07F70B50546E3
:103D64000C4624263246002120463AF0AFFD266058
:103D7400AB6863600D23A360044B1B682361E86890
:103D8400FFF7BCFF84ED050A012070BD98A5002053
:103D94002DE9F84F8369002B00F0DD800446FFF71E
:103DA400ADFFF7212046FFF703FF0511E269D317A2
:103DB400B2F5FA3243F1FF3302FB03F1A2FB0289AD
:103DC40009EB4109B4F93000C11708FB01F600FB07
:103DD4000966A8FB00013144B4F92E60F71706FB0D
:103DE40003FE02FB07EEA6FB026777444FEA474B4C
:103DF4004BEAD63B4FEA464A10EB0A0041EB0B0173
:103E0400B4F92C604FF0000A4FEAC60B1AEB000A13
:103E14004BEB010BB4F92A60F71706FB09F108FB19
:103E24000711A6FB088989444FEA182040EA096073
:103E34004FEA2921B4F92860F71706FB03F302FBC4
:103E44000737A6FB02233B441F0347EA1257160316
:103E540036184F41003647F50047E28CA2FB06892D
:103E640002FB07994FEA69024FEAE97352EA030138
:103E740075D0C5F58015EF17F90741EA5501E80734
:103E8400B0EB0A0061EB0B01061841EB0107361891
:103E94004F414FEA871949EA96694FEA861816EBAB
:103EA400080647EB0907BD0045EA96754FEA860EFA
:103EB4001EEB000645EB0107BD0045EA96754FEA87
:103EC400860E10EB0E00694137F008FE430B43EAFF
:103ED400C1434D13B4F93660F71706FB05FE03FB27
:103EE40007EEA6FB0367774403FB07F205FB0625F1
:103EF400A3FB06232B44560E46EAC3165F16B4F9F9
:103F040034804FEAE87908FB01F300FB0933A8FB8E
:103F1400008999444FEAD84242EA49324FEAE943D8
:103F24008019794112184B41100A40EA03601912B2
:103F3400B4F93240E5172B0143EA147322018018C7
:103F4400594137F08DFD9FED080A07EE900A27EEE0
:103F5400800ABDE8F88F9FED050ABDE8F88F9FED54
:103F6400040ABDE8F88F00BF0000803B0000C07F5A
:103F74000000000070B505460C4624263246002198
:103F840020463AF0A3FC2660AB6863600623A36076
:103F9400064B1B682361E868FFF7FAFEDFED047A3D
:103FA40080EE270A84ED050A012070BD98A5002043
:103FB4000000C8420000000008B52DED028BB0EEF1
:103FC400408AFFF7E5FEDFED107A80EE270AC0EEA7
:103FD400087A9FED091BB7EEE70A36F065FDB7EEE8
:103FE400007B37EE400B9FED067B20EE070BB7EE10
:103FF400C00BBDEC028B08BD00000020C05BC83FB5
:104004000000000040A5E5400000C842704700BF22
:1040140010B582B002AB03F8011D02685468012296
:104024001946A04702B010BD704700BF10B5044642
:10403400002101714FF47A73836001730B4B0360A9
:104044000B4B0361072343610A4B83610A23C3615A
:1040540009230362022343628162C16201634163F3
:10406400816302F08FFB204610BD00BF1031002099
:1040740000127A00946E0020012808D108B54FF68A
:10408400FF73994202D10248FFF7D0FF08BD704781
:1040940064840020F0B583B004460E461546002122
:1040A400007F02F0F7FCA36904F1100292E8030018
:1040B40002AA02E90300DA7C002A33D072B6DA7C61
:1040C40012F0010F05D0564908685A6902409A62F5
:1040D4000A60DA7C12F0020F05D0524908689A6926
:1040E4000240DA620A60DA7C12F0040F05D04E490D
:1040F4000868DA6902401A630A60DA7C12F0080F71
:1041040005D04A4908681A6A02405A630A60DA7C90
:1041140012F0100F05D0464908685A6A02409A63A3
:104124000A6062B600989A6890422BD09860414A1F
:104134009269C2F30117404951F82710C2F3826211
:104144000132B1FBF2F110B1B1FBF0F200E00A462A
:1041540022B1B1FBF2F1884200D20132B2F5817F83
:1041640001D340F20112022A01D9023A00E00022EE
:10417400D0B25208110289B20143120402F47F0240
:104184000A43DA601A68002111611A680321516236
:104194001A68D96811641A68019911661B680122AA
:1041A4001A61A1690B685E660B68DA6D12F4F81F78
:1041B400FAD05B6FA1690B685D660B68DA6D12F467
:1041C400F81FFAD05D6FEDB2A369DA7C0AB312F07E
:1041D400010F02D0996A194A1160DA7C12F0020FB9
:1041E40002D0D96A164A1160DA7C12F0040F02D0A8
:1041F400196B144A1160DA7C12F0080F02D0596B63
:10420400114A1160DA7C12F0100F02D09A6B0F4B36
:104214001A600121207F02F03DFC284603B0F0BD66
:1042240080E100E084E100E088E100E08CE100E06E
:1042340090E100E000C00F402441002000E100E0D4
:1042440004E100E008E100E00CE100E010E100E03E
:1042540008B5002201F07F01FFF71CFF08BD00BF75
:1042640010B504461321FFF7F3FFE36AC01A10BD2B
:1042740010B5044603681B69984738B1E36A0133F3
:10428400E36200212046FFF7E3FF10BD4FF0FF304B
:1042940010BD00BF08B541F08001FFF7FBFE08BD6B
:1042A4002DE9F04106460F4615462221FFF7D0FFBF
:1042B40080464319FF2B01D9C0F1FF050024A54214
:1042C40006D93A5D00213046FFF7E4FF0134F6E7F2
:1042D40008EB0502D2B222213046FFF7DBFF284665
:1042E400BDE8F08170B5044603681B69984780B146
:1042F4000D212046FFF7ACFF064600212046FFF7BC
:10430400A7FF054632460D212046FFF7C3FF284686
:1043140070BD4FF0FF3070BD08B54FF6FF7101203E
:10432400FFF7AAFE08BD00BF00220270427082801F
:10433400826002730282426102768283026280F8A2
:1043440024200285C26280F8302080F8382080F86A
:104354003920C26380F8482080F84920C26480F87C
:10436400582080F85920026680F8682080F8692077
:10437400026780F8782080F87920C0F8802080F8DF
:10438400882080F88920C0F8902080F8982080F850
:104394009920C0F8A02080F8A82080F8A920022144
:1043A40080F8B91080F8BA2080F8BB2080F8BC20CF
:1043B400C0F8C020C0F8C420C0F8C820C0F8CC2081
:1043C400C0F8D020C0F8D42080F8AA20704700BFDD
:1043D400A1F14103DBB2052B02D8A1F137007047EC
:1043E400A1F16103DBB2052B02D8A1F1570070479C
:1043F400A1F13000704700BF38B5044605782D2D73
:1044040000D10134204638F0B3FC642303FB00F0F0
:104414002378A3F13002092A01D80134F8E72E2BBE
:104424000ED16378A3F13002092A09D802EB820382
:104434005A001044A378A3F13002092A00D810448A
:104444002D2D00D1404238BD38B504460D4638F014
:104454008FFC184AA2FB00325109642303FB1101AB
:1044640089B2154B03FB01F152092A802378A3F189
:104474003002092A01D80134F8E72E2B0ED10E4A56
:1044840014F8013FA3F13000092807D80B48A0FB1A
:104494000202D208303B02FB0311F1E701EB810178
:1044A4000131074BA3FB01235B086B6000232B72D4
:1044B40038BD00BF1F85EB5180969800CDCCCCCC85
:1044C400ABAAAAAA10B4034653F81C4F5968446017
:1044D40081601B7A0373034653F8284F59680461BB
:1044E40041611B7A0376044B1B68436301234370C9
:1044F40003705DF8044B704798A5002008B50B467F
:1045040000F11C011846FFF79FFF08BD08B50B46D4
:1045140000F128011846FFF797FF08BD00234370F8
:10452400838800EE103AD0ED027AF8EE677ADFED78
:10453400076A87EEA67AB8EEC00A30EE070AB7EE2D
:10454400C00A037B0BB1B1EE400B7047286B6E4E73
:1045540000234370038A00EE103AD0ED057AF8EE9A
:10456400677ADFED076A87EEA67AB8EEC00A30EE06
:10457400070AB7EEC00A037E0BB1B1EE400B7047D9
:10458400286B6E4E83684360034B1B68C360012332
:1045940043700370704700BF98A500208368436090
:1045A400034B1B68C360012343700370704700BF53
:1045B40098A5002010B504460846FFF71DFFA0602B
:1045C40010BD00BF10B50446084638F0D1FBA0600A
:1045D40010BD00BF0023437043680648A0FB0320BE
:1045E4004009642202FB103080B200F5FA6080B208
:1045F400704700BF1F85EB51002343704368064892
:10460400A0FB03235B09A0FB03204009642202FBF7
:104614001030C0B2704700BF1F85EB5100234370B8
:1046240043680348A0FB0330C0F34730704700BF22
:104634005917B7D10023437043680348A0FB0330E4
:10464400C0F38740704700BF83DE1B4300234370E1
:104654004368064AA2FB03235B0B0548A0FB032027
:104664004009642202FB1030C0B270475917B7D119
:104674001F85EB510023437043680648A0FB0323C6
:104684005B09A0FB03204009642202FB1030C0B286
:10469400704700BF1F85EB510023437043680448F3
:1046A400A0FB03204009642202FB1030C0B2704713
:1046B4001F85EB51C3688360034B1B684360012370
:1046C40043700370704700BF98A5002010B50446DE
:1046D4000846FFF791FEE06010BD00BFC368836029
:1046E400034B1B684360012343700370704700BF92
:1046F40098A5002010B50446084638F039FBE06060
:1047040010BD00BF10B50446014610303AF048FE13
:10471400044B1B682362012384F8253084F8243079
:1047240010BD00BF98A5002008B510223BF0E6FF9D
:1047340008BD00BFF8B5044690F8A960002E69D002
:1047440090F8AA10FFF744FE054694F8AB102046F3
:10475400FFF73EFE00EB0510C0B294F8A830984273
:1047640051D1D4F8D4300133C4F8D43094F8BC30E7
:1047740023B1D4F8CC300133C4F8CC3094F8B93038
:10478400C3B1012B2CD104F13800FFF7FBFE04F177
:104794004800FFF703FF94F8BC300BB32046FFF743
:1047A40091FE04F15800FFF785FF04F16800FFF75C
:1047B40081FF15E004F14800FFF7F0FE94F8BC30E7
:1047C40033B12046FFF77EFE04F17800FFF772FF55
:1047D40004F18800FFF782FF04F19800FFF76AFFF5
:1047E400D4F8C450002D00F0E380D4F8C430996AA2
:1047F400A86A3AF069FC002840F0DA802846FFF7FE
:1048040081FF2D6BEEE7D4F8D0300133C4F8D030FB
:104814000026CDE090F8BA30002B3FD100F1AA0772
:10482400644938463AF050FC20B1634938463AF0BE
:104834004BFC18B9012384F8B93010E05F493846BD
:104844003AF042FC20B15E4938463AF03DFC18B9D2
:10485400002384F8B93002E0022384F8B930D4F894
:10486400C030C4F8C430D4F8C4504DB13946A86A35
:104874003AF02AFC002803DA2B6BC4F8C430F2E7C0
:10488400002D00F095803946A86A3AF01DFC0028F6
:1048940040F38E800023C4F8C43089E090F8B92036
:1048A400022A6ED090F8AA1000296AD043EA421373
:1048B400013B282B65D8DFE803F01522272E334C63
:1048C40053595F64646464646464646464646464C5
:1048D40064646464646464646464151B22272E3312
:1048E4003A40460000F1AA014830FFF763FE48E071
:1048F400412914BF0021012180F8BC1041E000F1DE
:10490400AA01FFF7FBFD3CE0532914BF002101215C
:1049140080F8241035E000F1AA01FFF7F7FD30E03C
:10492400572914BF0021012180F8301029E000F13B
:10493400AA015830FFF7CAFE23E000F1AA0168304B
:10494400FFF7C4FE1DE000F1AA013830FFF73AFE7C
:1049540017E0302994BF0021012180F8BC1010E039
:1049640000F1AA018830FFF7C5FE0AE000F1AA01B0
:104974009830FFF7ABFE04E000F1AA017830FFF7AE
:10498400A5FED4F8C4509DB1D4F8C430996AA86A7D
:104994003AF09AFB60B9EA6A94F8BA309A4207DCB2
:1049A40004D104F1AA012846FFF7BEFE2D6BEAE705
:1049B4003046F8BD344A00203C4A0020444A0020D6
:1049C4004C4A002038B50346D0F8C8200132C0F85C
:1049D400C820A1F10A02222A45D8DFE802F01744D0
:1049E40044174444444444444444444444444444B0
:1049F40044444444444444443544444444441744AF
:104A0400120093F8A8204A4083F8A8200D461C46BB
:104A140093F8BB300E2B07D82344002283F8AA2036
:104A24002046FFF787FE00E0002094F8BA300133F7
:104A340084F8BA30002384F8BB302A2D14BF002137
:104A4400012184F8A91038BD002083F8BB0083F845
:104A5400BA0083F8A800022283F8B92083F8A900D9
:104A640083F8BC0038BD93F8BB200D2A05D8501C30
:104A740083F8BB001A4482F8AA1093F8A90028B955
:104A840093F8A820514083F8A81038BD002038BD01
:104A94000A4B1B68C31A0B44B3F5BE7F08D9A1F5B2
:104AA400B47262B6054B1B681B1A9A42FAD872B6E6
:104AB400024B1B681B1A9942FAD87047041000E095
:104AC400006920B108B50368DB68984708BD7047E2
:104AD400006920B108B503681B69984708BD002028
:104AE400704700BF006920B108B503689B69984707
:104AF40008BD4FF0FF307047006920B108B5036866
:104B04005B69984708BD4FF0FF3070472DE9F041CD
:104B14000546884601F07CFF286928B103681B68B4
:104B240041469847BDE8F0816B69002B35D01C4A9B
:104B3400136843F0807313601A4A136843F0010347
:104B440013606E6972B6184B1F68AB6900221A6055
:104B540031463846FFF79CFF012484B1AB6914EA5F
:104B6400080F01D0012200E000221A606B691E4484
:104B740031463846FFF78CFF6400E4B2EDE7AB69D9
:104B840001221A6062B66B691E44074B1B68DB1B6B
:104B94009E42FAD80120BDE8F0810020BDE8F081F2
:104BA400FCED00E0001000E0041000E0F8B504465D
:104BB4001546002303714FF47A7282600373274A07
:104BC400026080F82030994208BF012D02D1244BA5
:104BD400036141E00E46062908BF072D02D1214B8F
:104BE400036139E00E2908BF0F2D02D11E4B03616A
:104BF40032E0102908BF112D02D11C4B03612BE0B8
:104C0400152908BF142D02D1194B036124E0192979
:104C140008BF182D02D1174B03611DE01C2908BFE2
:104C24001D2D02D1144B036116E0002707610121F9
:104C3400284601F065FF0221304601F061FF84F847
:104C4400215084F822600D4B2D015A59A26136017E
:104C54009B590833E36167612046F8BDBC2D0020F1
:104C6400F46E0020546F0020B46F002014700020F4
:104C740074700020D470002034710020444400205B
:104C840008B5036923B10022184601F0BFFA08BD34
:104C9400084B03EB5103B3FBF1F14161064A13687E
:104CA40043F080731360054A136843F001031360F3
:104CB40008BD00BF0046C323FCED00E0001000E087
:104CC40010B50446006920B101F038F900232361CE
:104CD40009E0002194F8210001F012FF002194F86A
:104CE400220001F00DFF0023636110BD704700BF77
:104CF4002DE9F04706468A4690469946089F0024C7
:104D04004C450FD233681B6904EB0A054246294619
:104D140030469847034630B1099A41462846B84779
:104D24000134EDE701231846BDE8F0872DE9F04B87
:104D340006468B4691461F4600254D450FD23368E3
:104D4400D3F8248005EB0B0408992046B8470246A3
:104D540021463046C047034610B10135EDE7012333
:104D64001846BDE8F08B00BF002070470020704754
:104D7400002070474FF0FF30704700BF002070479D
:104D8400002070470020704700207047006920B160
:104D940008B50368DB68984708BD0020704700BF6A
:104DA400006920B108B503681B69984708BD002055
:104DB400704700BF006920B108B503685B69984774
:104DC40008BD4FF0FF307047006920B108B5036893
:104DD4009B69984708BD7047006958B100B583B016
:104DE40003689B6801220DF10701984728B19DF8DB
:104DF400070004E04FF0FF3070474FF0FF3003B07E
:104E04005DF804FB00B583B08DF80710006930B17C
:104E14000368DB6801220DF10701984700E00020D8
:104E240003B05DF804FB00BF1830826B6AB11378DD
:104E340013F0080F03D0D3695069181A00E000205A
:104E440000281DDA6FF000407047C36BBBB193F8C4
:104E5400312012F0080F07D0D3E90401D3E900236D
:104E6400821A61EB030301E0002200231046002BA9
:104E740008BFB2F1004F03D36FF000407047002029
:104E8400704700BF036D13B1586900217047436D2B
:104E940013B118685968704700200146704700BF75
:104EA400036D13B1D86900217047436D13B11869BC
:104EB4005969704700200146704700BF036D1BB954
:104EC400436D1BB1012070470120704700207047DB
:104ED400036D33B11B7813F0700F14BF0120002051
:104EE4007047436D3BB193F8313013F0500F14BF4A
:104EF4000120002070470020704700BF90F8D03494
:104F0400F3B1D0F8842412B1D369013B06E0D0F8A0
:104F1400883413B1D3F8303400E0002332B19079EF
:104F24004FF4007202FA00F080B206E0D0F8882450
:104F340012B1D2F83C0400E00020A3FB000170474A
:104F440000200021704700BF064A0260064AC0F8EC
:104F5400A024C0F894240022C0F88424C0F8882433
:104F6400704700BFF02F0020CC2E00202DE9F04721
:104F740090F8D074002F7CD0D0F8843413B1DB695E
:104F84005C1E06E0D0F8883413B1D3F8304400E056
:104F940000240546061DD6F88C0418B10368DB6BA3
:104FA400984700E0002058B1D6F88C0418B1036883
:104FB4001B6C984700E0002028B94FF0010904E079
:104FC4004FF0000901E04FF00009B9F1000F0BD0D8
:104FD400D6F88C0420B103685B6C0121984700E08B
:104FE400002020B9B84604E04FF0000801E04FF07B
:104FF4000008B8F1000F23D1D6F8800418B133F0BB
:105004000DFB824608E0D6F8840418B130F0EAFFBC
:10501400824601E04FF0000AB9F1000F0AD0D6F839
:105024008C0420B103685B6C0021984700E0404683
:1050340000B9B846B8F1000F04D04FF0000A01E0FF
:105044004FF0000ACAEB0403D5F8842432B19079F6
:105054004FF4007202FA00F080B206E0D5F888241A
:1050640012B1D2F83C0400E00020A3FB0001BDE82B
:10507400F08700200021BDE8F08700BF00B58FB0A5
:105084000A460430D0F8801451B100238DF8003062
:105094008DF801308DF80230684631F073FC0EE073
:1050A400D0F8841451B100238DF831308DF83230AA
:1050B4008DF8333068462FF083FC00E000200FB0F9
:1050C4005DF804FB00B58FB00A460430D0F88014B4
:1050D40081B100238DF800308DF801308DF8023055
:1050E400684631F04FFC0346C8B1684631F074FAA3
:1050F400034614E0D0F8841481B100238DF83130D4
:105104008DF832308DF8333068462FF059FC034661
:1051140028B168462FF04CFD034600E000231846F2
:105124000FB05DF804FB00BF00B58FB00A46043031
:10513400D0F8801489B100238DF800308DF8013047
:105144008DF802300123684631F01CFC0346D0B1CF
:10515400684632F051FC034615E0D0F8841489B156
:1051640000238DF831308DF832308DF8333001233F
:1051740068462FF025FC034628B168462FF0BAFC98
:10518400034600E0002318460FB05DF804FB00BF9F
:1051940030B58FB015460430D0F88024B2B1002366
:1051A4008DF800308DF801308DF8023002F58964F5
:1051B4000A462146684631F07FFB034608B32A4677
:1051C4002146684631F02AFD03461AE0D0F88424CB
:1051D400B2B100238DF831308DF832308DF8333090
:1051E40002F589640A46214668462FF077FB034698
:1051F40038B12A46214668462FF0C2FE034600E035
:10520400002318460FB030BD10B58EB00430D0F86E
:10521400804474B100238DF800308DF801308DF88E
:10522400023001230A4604F58961684631F08CFC9A
:1052340012E0D0F8840470B100238DF831308DF879
:1052440032308DF8333001230A4600F5896168460F
:105254002FF020FE00E000200EB010BD8A79A2F1EC
:10526400500313F0800F22D1F0B585B000F118047B
:1052740002F26C724B790133DBB20D798E784F7880
:105284000978A06B38B10391029701960095042127
:1052940031F0C4FD0DE0E06B38B103910297019643
:1052A400009504212FF0CCFE03E0002001E0002053
:1052B400704705B0F0BD00BF10B582B00C4600F1D8
:1052C4001803986B28B101AA0DF1060131F098FB7F
:1052D40008E0D86B28B101AA0DF106012EF00CFFED
:1052E40000E00020F8B1BDF8063013B9BDF8043071
:1052F400C3B1BDF8043003F01F0252002270C3F39F
:1053040045126270DB0AA370BDF8063003F01F0279
:105314002271C3F34312013A62715B1203F5EA632B
:10532400A37100E0002002B010BD00BF10B582B030
:105334000C4600F11803986B28B101AA0DF106017F
:1053440031F04CFB08E0D86B28B101AA0DF106013D
:105354002EF0C0FE00E00020F8B1BDF8063013B90D
:10536400BDF80430C3B1BDF8043003F01F0252008D
:105374002270C3F345126270DB0AA370BDF80630D5
:1053840003F01F022271C3F34312013A62715B12EC
:1053940003F5EA63A37100E0002002B010BD00BF72
:1053A4000830836C33B11B7813F0700F14BF0123E2
:1053B40000230AE0C36C3BB193F8313013F0500F73
:1053C40014BF0123002300E0002373B110B500F1E2
:1053D4001004A06B10B1002131F0A8F8E06B18B1F3
:1053E400002200232FF00AF810BD704708B500F121
:1053F4001003986B10B131F061F808BDD86B10B18F
:105404002EF0E4FF08BD4FF0FF3008BD00B583B0B7
:1054140000F11003986B28B101220DF1070130F05F
:1054240047FF09E0D86B28B101220DF107012EF0E6
:10543400D1FE01E04FF0FF30012802D19DF80700B2
:1054440001E04FF0FF3003B05DF804FB08B500F154
:105454001003986B10B131F0D5F908BDD86B08B1C1
:105464002FF05EFC08BD00BF00B583B000F110034F
:105474008DF80710986B28B101220DF1070131F066
:10548400ABFD08E0D86B28B101220DF107012FF024
:105494002DFF00E0002003B05DF804FB10B50446C6
:1054A400836DD3B94FF4807038F0ECFD0146A065EC
:1054B40088B104F1180300220270986B20B14FF4F4
:1054C400807232F0DDFE08E0D86B30B14FF48072A8
:1054D40030F080FB01E0024BA365A06D10BD00BF5E
:1054E40002A6002010B50446806D18B138F0D2FD34
:1054F4000023A365236D1BB9636D1BB1012302E077
:10550400012300E000231BB104F1180033F0D6F9A5
:1055140010BD00BF10B51830846B74B1012B08BFE7
:10552400002A16D21146204631F000F8034698B1FD
:10553400204631F015FD03460EE0C46B5CB12046F5
:105544002EF05CFF034638B120462FF055FE03468B
:1055540002E0002300E00023184610BD10B5044605
:105564000C4B036003697BB11A465B68013B5360D3
:1055740043B900690368DB6A9847206910B103687E
:105584005B689847002323611421204601F0ACFB9B
:10559400204610BD202F002070B594B00446012B86
:1055A40003D0022B04D0002304E044F2022301E0E0
:1055B40040F202230431684633F090FA129B1BB97F
:1055C400139B1BB1012302E0012300E000232BB352
:1055D4005C2001F079FB054600264660184B036009
:1055E4009DF804300373174B8360029B03619DF89D
:1055F4000C30037504A9183033F024F9124BAB6056
:10560400AE6526714FF47A73A36026730F4B236043
:10561400256165B16B6801336B6008E00023237179
:105624004FF47A72A2602373084A22602361084B04
:10563400009304A833F042F9204614B070BD00BFB3
:10564400702F0020CC2F00204C2F0020202F002072
:10565400742D002070B594B0044600228DF8042007
:105664004FF47A7302938DF80C2012921392234B09
:105674000093183104A833F07DF9129B1BB9139BD6
:105684001BB1012302E0012300E000232BB35C20C3
:1056940001F01AFB054600264660194B03609DF88D
:1056A40004300373174B8360029B03619DF80C3035
:1056B400037504A9183033F0C5F8104BAB60AE6520
:1056C40026714FF47A73A36026730F4B2360256110
:1056D40065B16B6801336B6008E0002323714FF4FC
:1056E4007A72A2602373084A22602361074B0093F5
:1056F40004A833F0E3F8204614B070BD4C2F00200A
:10570400702F0020CC2F0020202F0020742D00208B
:10571400012833D108B54FF6FF7399422DD11848AB
:10572400184B03600023C0F88434C0F88834C0F8F0
:105734009034154AC0F8942480F89C3480F89D3441
:10574400124AC0F8A8240722C0F8AC24292280F801
:10575400B12480F8B5340E4AC0F8A02480F8BC34D3
:1057640080F8CC3480F8D034FF2380F8D13480F82A
:10577400D234084A084902F01FFE08BD704700BF32
:10578400A0840020F02F0020A030002000093D005C
:10579400182E0020886E0020492E000008B500F164
:1057A4001803986B10B130F089FE08BDD86B10B1A6
:1057B4002EF00CFE08BD4FF0FF3008BD08B500F117
:1057C4001803986B10B130F073FD08BDD86B10B19D
:1057D4002EF000FD08BD4FF0FF3008BD08B500F104
:1057E4001803986B10B131F00DF808BDD86B08B1EF
:1057F4002FF096FA08BD00BF8A79A2F1500313F086
:10580400800F22D1F0B585B000F1180402F26C7259
:105814004B790133DBB20D798E784F780978A06B20
:1058240038B10391029701960095022131F0F6FAFE
:105834000DE0E06B38B103910297019600950221C7
:105844002FF0FEFB03E0002001E00020704705B0CC
:10585400F0BD00BF08B500F11803986B10B131F02A
:10586400BBFB08BDD86B10B12FF040FD08BD002074
:1058740008BD00BF08B500F11003986B10B131F0FA
:10588400ABFB08BDD86B10B12FF030FD08BD002074
:1058940008BD00BF10B504460F4B0360806D18B1FE
:1058A40038F0F8FB0023A365236D1BB9636D1BB1AE
:1058B400012302E0012300E000231BB104F11800DE
:1058C40032F0FCFF054BA36004F1180032F0F6FF40
:1058D400034B2360204610BD702F0020742D002040
:1058E4004430002010B50446114B0360806D18B19C
:1058F40038F0D0FB0023A365236D1BB9636D1BB186
:10590400012302E0012300E000231BB104F118008D
:1059140032F0D4FF074BA36004F1180032F0CEFF3D
:10592400054B23605C21204601F0DEF9204610BDC2
:10593400702F0020742D00204430002010B5044640
:105944000A4B036003697BB11A465B68013B5360F1
:1059540043B900690368DB6A9847206910B103689A
:105964005B68984700232361204610BD202F002048
:105974001030826B6AB1137813F0080F03D0D36927
:105984005069181A00E0002000281DDA6FF000406A
:105994007047C36BBBB193F8312012F0080F07D0E6
:1059A400D3E90401D3E90023821A61EB030301E084
:1059B400002200231046002B08BFB2F1004F03D38E
:1059C4006FF0004070470020704700BF2DE9F041A0
:1059D40094B0D0F89074002F00F09B801C460646CB
:1059E4003B68DB69384698470546B0F5405F40F2AE
:1059F40092804FF4007038F045FB8046002800F098
:105A04008C80B5F1806F07D923460246394609A830
:105A14002FF03AFE054606E023460246394609A819
:105A240032F0DCFA0546404638F034FB002D76D0DF
:105A34003B681B6A38469847341D94F8BC34FF2BE6
:105A440022D194F8C81484F8BC3484F8C81404F53A
:105A54009266304634F0D2FAC4F88C643EB1D4F87D
:105A640090345B6B3046984718B9012302E0002359
:105A740000E00023002B4AD001231A46D4F88C14EA
:105A8400204632F0ADFF42E094F8BD04D4F8C014CF
:105A9400D4F8C4248DF800308DF8010001910292ED
:105AA40003AB9DE8070083E807009DF80C2084F809
:105AB400BC249DF80D2084F8BD24049AC4F8C024A5
:105AC400059AC4F8C42406AE93E8070086E80700E4
:105AD40009AB83E807000ECB04F29C4033F09EFC34
:105AE40004F29C40C4F88C0430B1D4F89C345B6B51
:105AF400984718B9012302E0002300E0002333B1E2
:105B040001231A46D4F88C14204632F069FF284643
:105B140006E0002004E0002002E0002000E0284627
:105B240014B0BDE8F08100BF38B514461D46049B8F
:105B3400ABB900F11803986B38B1012D08BF002AE6
:105B440009D2114630F0F2FC38BDD86B28B12B468F
:105B54002EF054FC38BD002038BD002038BD012B88
:105B640024D100F118039A6B12B15069002106E0A8
:105B7400DA6B12B1D2E9000101E0002000212418FF
:105B84004D41986B38B1012D08BF002C0AD2214633
:105B940030F0CCFC38BDD86B30B122462B462EF009
:105BA4002DFC38BD002038BD002038BD022B24D187
:105BB40000F118039A6B12B1D069002106E0DA6B88
:105BC40012B1D2E9040101E00020002124184D4162
:105BD400986B38B1012D08BF002C0AD2214630F051
:105BE400A5FC38BDD86B30B122462B462EF006FCFE
:105BF40038BD002038BD002038BD002038BD00BFAE
:105C0400F0B58FB00446D0F89064002E00F0B08058
:105C140090F8D0545DB390F8D134FE2B04D133689E
:105C24005B6D3046984701E04FF0FF30B0F1FF3F25
:105C34000FD194F8D204362805D800F04FFF003075
:105C440018BF012099E033689B6C0AA93046984735
:105C540093E0002840F08E8094F8D134FE2B40F07D
:105C64008B8003212E2000F04BFF002085E090F86C
:105C7400D134FE2B08D1434B9B6813F4003F01D071
:105C840001200CE000200AE090F8D204362805D860
:105C940000F024FF003018BF012000E0012000289C
:105CA4006BD0261D96F8BC34FF2B1FD196F8C81470
:105CB40086F8BC3486F8C81406F59267384634F082
:105CC4009DF9C6F88C7437B1D6F890345B6B3846BE
:105CD400984700B901253DB101231A46D6F88C1422
:105CE400304632F07DFE0546284646E096F8BD046F
:105CF400D6F8C014D6F8C4248DF804308DF8050005
:105D04000291039204AB01AA07CA83E807009DF835
:105D1400102086F8BC249DF8112086F8BD24059A2D
:105D2400C6F8C024069AC6F8C42407AF93E807004F
:105D340087E807000AAB83E807000ECB06F29C4015
:105D440033F06CFB06F29C40C6F88C0428B1D6F8FC
:105D54009C345B6B984700B901253DB101231A4679
:105D6400D6F88C14304632F03BFE0546284604E053
:105D7400002002E0012000E0002084F8D0040FB0ED
:105D8400F0BD00BF0080004208B54FF6FF7101204E
:105D9400FFF7BEFC08BD00BFB0F846309AB2B0F8B9
:105DA40048309BB29A4204D3406B801A0344581E75
:105DB40070479B1A581E704772B6B0F84A3099B2B1
:105DC400B0F84C2093B2994201D3CB1A02E0826B13
:105DD4001144CB1A0269D06AC0F30260184462B657
:105DE400704700BFB0F84A2092B2B0F84C309BB272
:105DF4009A421DD172B6B0F84A2092B2934216D19B
:105E04000369DA6A12F0E06F0CD0DB69C3F30903AB
:105E14000122A0F84A200022A0F84C20026AD9B23C
:105E2400517001E04FF0FF3362B61846704762B616
:105E34000133826B934200D30023026B934203D25B
:105E4400026AD05CC0B27047416A9B1AC85CC0B297
:105E5400704700BF30B4B0F84A309AB2B0F84C3052
:105E64009BB29A4213D172B6B0F84A2092B29342CE
:105E74000CD10369DA6A12F0E06F03D0D869C0F379
:105E8400090001E04FF0FF3062B626E062B601334C
:105E9400846BA34200D30023016B8B4203D2016ABB
:105EA400C95CC9B203E0456A591A695CC9B29DB2BA
:105EB400A0F84C50856D6DB19A4201D3D31A01E01C
:105EC4002244D31AC26B934206D8C36DC5F88830F6
:105ED400084602E0084600E0084630BC704700BFB0
:105EE40010B5044694F8443013F0FF0F02D002F0CA
:105EF40041F9F7E710BD00BFEFF31383B3B9EFF334
:105F04001083B3B9EFF3058323B10F2B05D90A4AE4
:105F14009B5C03E04FF4807300E00023EFF31180F7
:105F2400002818BF834205D8184670474FF0FF3049
:105F340070470020704700BFF0E300E038B5044626
:105F440043691A6912685B691A4228D094F844308C
:105F540013F0FF0F02D002F00DF9F7E723690022D6
:105F64009A616369217E03EB0113197E0C4B03EBE9
:105F740001114968052008606169657E01EB05111E
:105F840091F8381003EB01135B681860A4F84A20F9
:105F9400A4F84C20A36D13B1E26DC3F8842038BD7E
:105FA4004444002070B504460E46036D13B1426D9F
:105FB400C3F88420A37E33B172B62269936943F097
:105FC4000053936162B6B4F84650ADB20135636BC9
:105FD4009D4200D30025B4F848309BB29D4228D19D
:105FE400FFF78AFF6369B3F85A3098421CDC2269D0
:105FF400536913F4000FEED0B4F848309BB2013368
:10600400616B8B4200D30023E16A8B4203D2E169C6
:10601400C95CC9B203E0A06A591A415CC9B2D16132
:106024009BB2A4F84830D6E7FF28D4DD02F0A2F8EA
:10603400D1E7E36A9D4203D2E369F6B25E5503E019
:10604400A26AEB1AF6B2D65472B6012084F8440060
:10605400ADB2A4F846502269936943F400039361F6
:1060640062B670BD08B5FFF79DFF08BD70B4036943
:106074005A6912F4401F44D0DB6AC3F30264002C53
:1060840036D0B0F84A50ADB2B0F84C60B6B203693D
:10609400DB69C3F309026B1C816B8B4200D30023C1
:1060A400B0F84C1089B28B420CD0016B8B4204D2F5
:1060B400016AD2B2CA541D4604E0456A591AD2B2E2
:1060C4006A541D46631E13F0FF04E0D1ABB2A0F87E
:1060D4004A30836D63B1B54201D3AE1B02E0826BDB
:1060E4001544AE1B026C964202D3C26DC3F88420E1
:1060F40003695A6912F4801F03D05A6942F480126A
:106104005A6103699D6915F4000F05D05B6913F4A6
:10611400000F03D1002302E0002300E00123002B41
:106124002ED0B0F84640A4B2B0F848309BB2A34297
:1061340017D00133426B934200D30023C26A9342C7
:1061440003D2C269D25CD2B203E0816A9A1A8A5C31
:10615400D2B20169CA610269D26AC2F30222032A75
:10616400E5D99AB2A0F84820A34209D102699369FB
:1061740023F4000393610269936943F480039361F8
:1061840015F4800F06D003695B6913F4800F03D103
:10619400002302E0002300E00123ABB1002380F8D8
:1061A4004430036D13B1426DC3F88820837E33B14C
:1061B40072B60269936923F00053936162B602696F
:1061C400936923F48003936170BC704700230C4AE5
:1061D4001278934207D20B4A52F8232082420DD000
:1061E4000133DBB2F3E7511C054B1970054B43F83F
:1061F4002200054A137843F002031370704700BF6E
:1062040000A60020D89B0020367E0020F8B507EEBB
:10621400901AF8EE677A9FEDA27AC7EE275A012406
:1062240004210D469FED9F6A202931DC07EE901A68
:10623400F8EEE77A85EEA77AF6EE007A77EE277A1B
:10624400FDEEE77A17EE903A002B03DDB3F5005F1D
:1062540002DA03E0012301E041F6FF7307EE903A0E
:10626400F8EEE76A76EEC76AC6EE877AF5EEC07A8C
:10627400F1EE10FA01D5F1EE677AB4EEE76AF1EEC9
:1062840010FA03DB1C460D46B0EE676A0131CBE71A
:106294000023A0F84A30A0F84C30A0F84630A0F80B
:1062A4004830866B4169B1F85C70F71BC763B1F87D
:1062B4005E70F61B066480F844300E6937684B69DB
:1062C4003B433360C2F340238376002B37D14369C9
:1062D400017E03EB01131B7E734901EB03139B68DF
:1062E400724E1E604369067E03EB06131E7E01EBAD
:1062F40006114968DB690B604369017E8E1C360117
:106304009E5926B1023103EB01135B683360436984
:10631400417E03EB011393F83830634901EB031317
:106324009B68D9261E604369467E03EB061393F8E7
:10633400386001EB06114968DB6B0B6017E04369B9
:10634400417E03EB011393F83830574901EB0313F3
:106354009B684FF2D9061E604369467E03EB061321
:1063640093F8386001EB06114968DB6B0B604369F5
:10637400417E0E1D36019E5926B1043103EB0113F3
:106384005B68336001696B1E1B0603F0F853C4F3AA
:106394000C041C43082D02DC4FF4003300E00023FE
:1063A40023430B6103690021D96041694B784C6830
:1063B40010333F4941F823404369597893F85A40D0
:1063C4003C4BCC5443695B785C1103F01F030121FF
:1063D40001FA03F3384941F824300469A36AC3F38A
:1063E4000F139B0003F01C030F2B01D85B0800E084
:1063F4000723A16A89B2890001F01C010F2901D881
:10640400490800E00721090401F4403103F00303C3
:106414000B43E36201698B6A43F088038B6202F0E9
:10642400030444F4701302F0040189B209B1234B4C
:10643400234302F00F01042901D143F0804302F009
:10644400200189B209B143F08053817E09B143F040
:10645400A00301698B6102F008039BB223B10169B7
:106464000B6943F000530B610469636923F08053A3
:1064740002F0100189B209B143F08053636102F460
:10648400807292B222B10269136943F4005313611A
:106494004369DB681B780BB9FFF798FEF8BD00BFB2
:1064A400001BB74BEC78AD604444002038F0010089
:1064B4000080002000E400E000E100E010003C0067
:1064C40008B50248FFF7D2FD08BD00BFF46E0020F6
:1064D40008B50248FFF7CAFD08BD00BF546F00208D
:1064E40008B50248FFF7C2FD08BD00BFB46F002025
:1064F40008B50248FFF7BAFD08BD00BF14700020BC
:1065040008B50248FFF7B2FD08BD00BF7470002053
:1065140008B50248FFF7AAFD08BD00BFD4700020EB
:1065240008B50248FFF7A2FD08BD00BF3471002082
:1065340079B1F8B505460B460024561E5AB12A68AF
:1065440012685F1C197828469047044432463B463B
:10655400F3E7002070472046F8BD00BF00B583B0C4
:10656400054B1B88ADF8043003685B68022201A95F
:10657400984703B05DF804FBA803002010B5144647
:1065840003685B689847204610BD00BFF0B58BB028
:1065940022B903681B68C9B2984732E01646012A3B
:1065A40000D10A2621B930228DF82520212419E0B2
:1065B40021243746B1FBF6F206FB1212D2B225466D
:1065C400092A02D83032D2B201E03732D2B20DF108
:1065D400280E754405F8242CB1FBF7F111B1013CE8
:1065E400E4B2E6E733B1013CE4B20AAB23442D2222
:1065F40003F8242C03685B68C4F1220201A9214436
:1066040098470BB0F0BD00BF08B5002902DA494233
:106614002D2300E000230A22FFF7B8FF08BD00BFC6
:1066240070B52DED028B86B00546B4EE400BF1EE4D
:1066340010FA06D703685B6803224F499847064659
:1066440082E00C46B0EEC07B9FED436BB4EE467B1C
:10665400F1EE10FA01DD012300E000233BB12B68C9
:106664005B68032245492846984706466CE09FED3F
:106674003C7BB4EEC70BF1EE10FA07DD2B685B68C8
:1066840003223F492846984706465DE09FED367B46
:10669400B4EEC70BF1EE10FA07D52B685B68032242
:1066A40037492846984706464EE0B5EEC00BF1EE52
:1066B40010FA03D5B1EE400B012300E000230022C1
:1066C400B6EE008BA24206D29FED297B28EE078B03
:1066D4000132D2B2F6E730EE080BFCEEC07BB8EE26
:1066E400678B30EE488B0A2217EE901A2846FFF784
:1066F4004DFF064644B32E238DF808300F2C00D9E5
:106704000F240122631ED9B2CCB1B2EE047B28EE71
:10671400077BFCEEC76BCDED016A9DF80430501C7D
:1067240006AC224403F1300402F8104C06EE903A11
:10673400B8EEE68B37EE488B0C46C2B2E2E72B6824
:106744005B6802A928469847304606B0BDEC028B28
:1067540070BD00BFAFF30080FFFFFFFFFFFFEF7FBF
:10676400000000E0FFFFEF41000000E0FFFFEFC189
:10677400000000A09999B93F944A0020984A00204B
:106784009C4A002081607047F0B58B4B5F699A6921
:10679400A3F5F823DE68894B984213D9884B9842B5
:1067A40016D9884B03441B0A874DA5FB0335ED0915
:1067B40005EB850505EB850505F2E245B5F5C56FE5
:1067C40009D20DE0814B984208D940F27E4507E09A
:1067D40040F2E24504E040F2276501E040F2B635BC
:1067E4007549D1F8803043F0C003C1F8803006F019
:1067F4001F03A5F548757649A1FB0515C5F3C40526
:10680400AB4207D265F30406724BDE60714B1B6822
:10681400002BFBDA17F0007F2ED16F4B19696F4BF9
:106824008B4302D10324002301E000240123E40666
:1068340087EA040111F0605F05D027F0605144EA53
:1068440001075D494F611B0382EA030111F4405FB4
:1068540009D022F440521A43574B9A61564B9B6C11
:1068640013F0080FFAD147F00077534B5F61524B96
:106874009B6C13F0200FFAD101210A4607E0072A86
:1068840001D8013203E0042908D80131012200FBB8
:1068940002F303FB01F3524CA342F0D951481844CC
:1068A400514BA3FB00031B0D6C2B00D96C23352B20
:1068B40000D836234D4800FB03F0B0FBF2F0B0FBE8
:1068C400F1F0454C2468DFF844E104EA0E0E03F0CD
:1068D4007F03474C1C43A6450BD03F4C4FF4805ECE
:1068E400C4F800E043F4005323603B4B1B68002BC7
:1068F400FBDA314B1B6903F00703013A934208D0DA
:1069040002F007022C4B1A612B4B9B6C13F4803F53
:10691400FAD10139890287EA010313F4E05F0BD04D
:1069240027F4E05701F4E0510F43234B5F61224BFE
:106934009B6C13F0020FFAD12E4A0244D2092E4B5B
:10694400A3FB0232120B042A00D90422531E1B0299
:1069540087EA030111F4407F06D027F4407103F461
:1069640040731943144B596113494B6923F0007365
:106974004B61114B9B6C13F0200FFAD11F4B186025
:10698400B0FBF2F21E4B1A601E4BA3FB00239B0CC0
:106994004FF0FF32B2FBF3F31B4A136006F01F0300
:1069A4009D4208D226F01F0635430A4BDD60094B91
:1069B4001B68002BFBDAF0BD00C00F4000A4781F59
:1069C4000046C32300BA3CDC23B24C0000366E01FF
:1069D4001F85EB510000084000800D4040300080CE
:1069E400FFB19F26808D5B00819F5E16001BB70060
:1069F400002000807FD1F0089F10E500906E0020F9
:106A04008C6E002083DE1B4364A500207F30018050
:106A140010B4104B53E8002F0F4A14680F4A106843
:106A2400012143E80012002AF3D10D4B1B68181A08
:106A34000C4B1B68A3FB00010A46B1F57A7F01D910
:106A44004FF47A724FF47A7000FB04205DF8044B23
:106A5400704700BF60A6002098A5002094A50020E0
:106A6400041000E064A5002098B138B50546FFF78E
:106A7400CFFF044603E0013D0AD004F57A74FFF722
:106A8400C7FF001BB0F57A7FF5D201F073FBF6E780
:106A940038BD7047362819D810B400010C4B1A18A9
:106AA4001B585C68D068044206D011B1C3F8840056
:106AB4000AE0C3F8880007E019B19368054A1A6030
:106AC40002E09368044A1A605DF8044B704700BF03
:106AD4004444002038F001003830010036280AD838
:106AE4000001064B19181B589A68CB681A4214BF48
:106AF4000120002070470020704700BF444400205C
:106B0400362836D810B400011A4A1318042918BFBD
:106B140001290FD110584468DA68224342600129E0
:106B240003D19A68382111601EE09A6840F6380152
:106B3400116019E010584268DC6822EA04024260DD
:106B440019B99A68382111600EE0022903D19A68B4
:106B54000949116008E0032903D19A6807491160C3
:106B640002E09A68064911605B6815221A605DF8B4
:106B7400044B70474444002038F0010038300100D1
:106B84003800010008B5FBF7D7FFFCF74BF801F01C
:106B9400F1FAFAE7844641EA000313F003036DD1E6
:106BA400403A41D351F8043B40F8043B51F8043BCC
:106BB40040F8043B51F8043B40F8043B51F8043BD3
:106BC40040F8043B51F8043B40F8043B51F8043BC3
:106BD40040F8043B51F8043B40F8043B51F8043BB3
:106BE40040F8043B51F8043B40F8043B51F8043BA3
:106BF40040F8043B51F8043B40F8043B51F8043B93
:106C040040F8043B51F8043B40F8043B51F8043B82
:106C140040F8043B51F8043B40F8043B51F8043B72
:106C240040F8043B403ABDD2303211D351F8043B12
:106C340040F8043B51F8043B40F8043B51F8043B52
