:0200000460009A
:100000004643464200000156000000000103030081
:1000100000000000000000000000000000000000E0
:1000200000000000000000000000000000000000D0
:1000300000000000000000000000000000000000C0
:1000400000000000010408000000000000000000A3
:100050000000800000000000000000000000000020
:100060000000000000000000000000000000000090
:100070000000000000000000000000000000000080
:10008000EB04180A063204260000000000000000FD
:10009000050404240000000000000000000000002F
:1000A0000000000000000000000000000000000050
:1000B0000604000000000000000000000000000036
:1000C0000000000000000000000000000000000030
:1000D00020041808000000000000000000000000DC
:1000E0000000000000000000000000000000000010
:1000F0000000000000000000000000000000000000
:10010000D8041808000000000000000000000000F3
:100110000204180804200000000000000000000095
:1001200000000000000000000000000000000000CF
:10013000600400000000000000000000000000005B
:1001400000000000000000000000000000000000AF
:10015000000000000000000000000000000000009F
:10016000000000000000000000000000000000008F
:10017000000000000000000000000000000000007F
:10018000000000000000000000000000000000006F
:10019000000000000000000000000000000000005F
:1001A000000000000000000000000000000000004F
:1001B000000000000000000000000000000000003F
:1001C000000100000010000001000000000000001D
:1001D000000001000000000000000000000000001E
:1001E000000000000000000000000000000000000F
:1001F00000000000000000000000000000000000FF
:10020000FFFFFFFFFFFFFFFFFFFFFFFFFFFFFFFFFE
:10021000FFFFFFFFFFFFFFFFFFFFFFFFFFFFFFFFEE
:10100000D10020432914006000000000000000000F
:101010002010006000100060006805600000000003
:10102000000000600074050000000000FFFFFFFFEB
:10103000FFFFFFFFFFFFFFFFFFFFFFFFFFFFFFFFC0
:10104000FFFFFFFFFFFFFFFFFFFFFFFFFFFFFFFFB0
:10105000FFFFFFFFFFFFFFFFFFFFFFFFFFFFFFFFA0
:10106000FFFFFFFFFFFFFFFFFFFFFFFFFFFFFFFF90
:10140000884207D0904205D251F8043B40F8043B93
:101410008242F9D8704700BF884204D2002340F8C6
:10142000043B8142FBD8704710B5504B504A5A6478
:10143000504A1A644FF42A029A634F4B9D46BFF3F9
:101440004F8FBFF36F8F00F0C5F908224B4BC3F8E5
:1014500054214B4A4B494C48FFF7D2FF4B4A4C4969
:101460004C48FFF7CDFF4C494C48FFF7D5FF4FF4F0
:1014700070024B4B1A60002304E04A494A4A42F882
:1014800023100133AF2BF8D9002303E08021474A12
:10149000995401339F2BF9D9454B434A1A6000F008
:1014A00085F9444A136843F4E0231360424CE3692E
:1014B00023F07F0343F04003E361636A23F07F037B
:1014C00043F040036362294B4FF0FF329A66DA66BD
:1014D0001A675A6700F084F900F0EEFC00F03EFB5A
:1014E00000F064F9354800F0F3FCE36E43F4405338
:1014F000E366334B00221A60C3F80821C3F81821B1
:10150000C3F82821C3F8382103F5A0239B6B13F0FF
:10151000010F09D12B4B2C4A5A6542F615621A6508
:101520009A6B42F001029A63264A936843F00113D2
:10153000936000F0C5F900F085FC00F0D9FC00F0E4
:1015400041FB00F049F9214B1B68132BFBD900F03C
:10155000D5FB1E4B1B68B3F5967FFAD300F03EF91E
:1015600000F0CAFC00F0C0FC30BFFDE700C00A403C
:10157000FFFFAFAA070020000000032000800D40FD
:1015800040A304000421006000000000C08200208D
:101590000AE404600000002000A70020C0820020B0
:1015A00088ED00E0B98F00000080002000E400E03A
:1015B00008ED00E024ED00E000C00F400046C3232A
:1015C0000040084000400D400000C056C0A500206B
:1015D00030B442690B011A44147A0D4A02EB041428
:1015E000A4680C4D2560446923441C7A02EB041264
:1015F0005268DB68136043694A1C12019A5822B191
:10160000013103EB01114B68136030BC704700BF20
:101610004444002061F8010070B54269037E02EB8A
:1016200003131E7A8E421BD0002402EB04131B7A94
:10163000FF2B15D08B4203D001341F2CF5D970BD80
:101640000546136819685368194208D0054B03EB27
:101650000616736805221A60E1B2FFF7B9FF2C760F
:1016600070BD00BF4444002030B442690B011A44ED
:1016700092F828400D4A02EB0414A4680C4D256032
:101680004469234493F8284002EB04125268DB6A51
:1016900013604369CA1C12019A5822B1033103EB4B
:1016A00001114B68136030BC704700BF44440020F8
:1016B00061F8010070B54269437E02EB031393F8B1
:1016C00028608E421CD0002402EB041393F82830CB
:1016D000FF2B15D08B4203D001341F2CF4D970BDE1
:1016E0000546136819685368194208D0054B03EB87
:1016F0000616736805221A60E1B2FFF7B5FF6C7633
:1017000070BD00BF4444002038B504460D4A936BB9
:1017100023F47C0343F48023936341690A681568CA
:101720004B682B431360036902221A61064900F0DB
:10173000E7FB217E2046FFF74BFF617E2046FFF747
:1017400093FF38BD00C00F40A0860100094BC3F8CD
:10175000A010000400F47020C3F8A4000122C3F814
:10176000B020044B5B6913F0010FFAD00122014B4A
:101770005A61704700402A400A4BC3F8A0000A4A49
:10178000C3F8A4200122C3F8B020064B5B6913F014
:10179000010FFAD0034BD3F8000121225A6180B225
:1017A000704700BF00402A4004000300064B4FF082
:1017B0008032C3F804210549C3F80011C3F8F420AE
:1017C000034AC3F8F020704700800D401B1018201A
:1017D0000C0D1113704700BF704700BF704700BF6A
:1017E00010B4224C00202060214A10231360214BAA
:1017F00021491960112111602049196012211160DD
:101800001F4919601F4911601F4919601F49116064
:101810001F4919601F4941F0150111601E491960E7
:1018200001F181510D3111601C4919601C49116091
:101830001C4919601C4911601C4919601C49116040
:101840001C4A1A6001232360BFF34F8FBFF36F8FD1
:10185000194B1860BFF34F8FBFF36F8F174A136890
:1018600043F4403313605DF8044B704794ED00E09F
:101870009CED00E0A0ED00E03F0000102500080313
:1018800009001000130020002100020714000020AE
:101890002500081300A700200900001027000B13E3
:1018A0001700004033001013180000602F000B07D2
:1018B000190000702F000B1350EF00E014ED00E052
:1018C00010B582B08E4B8F4AC3F85C228E49C3F8A4
:1018D0006012C3F86422A2F53042C3F8682202F510
:1018E000E042C3F86C22C3F87022C3F87422C3F834
:1018F00078221822DA661A675A679A67DA67C3F895
:101900008020C3F88420C3F8882003F58063012277
:10191000C3F82C23C3F83023C3F83423C3F8382387
:10192000C3F83C23C3F85023784B9A697849114097
:10193000784A0A439A61D3F8842042F00C02C3F833
:101940008420754A136843F002031360116821F480
:10195000F14121F073010904090C704B0B43136032
:101960004FF0FF3353606E4CA16803F5770303F526
:1019700060530B4043F000539360D36823F0780327
:10198000D360136A6748034067490B431362136AC5
:10199000184001435162654B9362D362D4F8B8306A
:1019A00023F03F0343F00103C2F8B830D4F8BC3051
:1019B00023F03F0343F00103C2F8BC30002313615E
:1019C0004FF4005414665A48106740F20561C2F89B
:1019D000801054665067C2F88410116821F002012B
:1019E0001160544991610221D16104E00021524A01
:1019F00042F8231001333F2BF8DD474A136843F0C8
:101A000001031360444B1B6813F0010FFAD1424BE2
:101A1000484A9A610224DC6140F2F562C3F8002270
:101A200040F26642C3F8102240F29942C3F82022E5
:101A3000424AC3F8302242F20142C3F8342240F253
:101A40003542C3F840223E4AC3F850223D4AC3F80B
:101A500054223D4AC3F8602242F20122C3F86422B4
:101A600000210846FFF772FE00210120FFF76EFEFD
:101A700000212046FFF76AFE0020FFF77DFE45F6B5
:101A80000D53984234D100210420FFF75FFE4FF43C
:101A900000010020FFF75AFE4FF400010120FFF77C
:101AA00055FE4FF400012046FFF750FE4FF40000B2
:101AB000FFF762FE45F60D53984208D14FF400013E
:101AC0000420FFF743FE1022204B1A7002E0082288
:101AD0001E4B1A701D4B1A781D49C1EB0252002390
:101AE000009301231B4802441B4800F0F5F905E070
:101AF000194B00221A605A609A60DA6002B010BD79
:101B000000801F40F9B00100F910010000C00F4033
:101B1000FFFCFF1F000300A000402A401200FFFF4F
:101B200000802A4000FFF07C40000080FF000F830F
:101B300063000200F05AF05A00422A409F04183015
:101B4000EB06180A063201263806180A4DA60020B0
:101B50000000007000000070A4A60020184B1B6954
:101B600013F0020F0AD0164B4FF440429A614FF423
:101B700080325A6143F242029A61EFE713F4005F48
:101B800004D14FF400520E4B5A61E7E713F4805F23
:101B900004D14FF480520A4B5A61DFE7002BDDDAA3
:101BA00013F4803F04D04FF48032054B9A61D5E79F
:101BB00013F0400F03D14022014B5A61CEE770472A
:101BC00000800D4030B5404A136823F001031360D4
:101BD000032313613D4BD3F8E030D8B23C4C206076
:101BE000C3F30B213B4D29601B0D07EE903A07EE26
:101BF000100AF8EE476AF3EE094A36EEE46A364810
:101C000080ED006AF8EE677A07EE101AB8EE477AB0
:101C100077EEC77A3149C1ED007ADFED315A76EEC1
:101C2000E56A67EEA67AC7EE866A37EE267ABCEEDC
:101C3000C77A136817EE10EA43EA0E531360D5ED26
:101C4000007AF8EE677A94ED007AB8EE477A9FED65
:101C5000256A37EE466AD1ED005A26EE256A90EDE8
:101C6000005AC6EE056A77EEA66AFCEEE66A16EE44
:101C7000903AD2F810011C4901EA03430343C2F829
:101C8000103137EE647A25EE877AC7EE056A77EE73
:101C9000A67AFCEEE77AD2F8101117EE903AC3F369
:101CA0000B030B43C2F81031136843F002031360B7
:101CB00000220E4B1A700E4A0E4BC3F8402101222F
:101CC0000D4B1A6030BD00BF80810D4000441F40A5
:101CD00058A5002054A500205CA5002060A5002088
:101CE0000000AA420000B4420000FF0F40E400E000
:101CF000A99100000080002008E100E038B540F61E
:101D00006172304BC3F8202100F0DAF82E4AD2F885
:101D1000803043F00303C2F8803040F204422B4B82
:101D2000C3F860212A4B1A682A4B1A4205D1274B67
:101D3000D3F8A83113F0030F1BD04FF00042244B0F
:101D40005A63224AD2F8403143F00203C2F84031CC
:101D50001E4BD3F8403113F0020FF9D14FF400328B
:101D60001D4B1A604FF00042194B9A63192000F086
:101D7000B7F8174B4FF080429A6300211960134C5B
:101D80000A23C4F8A831154D4FF42072284600F0FC
:101D90009BF84FF481032B604FF480032B64C4F84D
:101DA000585140F24313C4F848310D4A0D4BC3F863
:101DB00004224FF400320C4B1A600123C4F8403166
:101DC00038BD00BF00800D4000C00F4000002E4015
:101DD00000900D40001C1E008CE200E0000000207E
:101DE000C9970000008000200CE100E008B50F4B0F
:101DF0001B6E13F0020F01D1FBBE16E072B600227B
:101E00000B4BC3F840210B4AA3F50D131A64A3F141
:101E1000FF53A3F52B239D46BFF34F8F0648074B77
:101E20000360074B1B689B68984700BF00441F4036
:101E300000002E400300200000802020000012EB54
:101E40001C002000144BDA6E42F44032DA66DA6E7F
:101E500042F44072DA66A3F5603340F237625A64A6
:101E6000A0229A6401220D4B1A700D4B9B6C13F04B
:101E7000800FFAD10B4B40F237625A64A0229A6469
:101E80000122064B1A70074B9B6C13F0800FFAD19E
:101E90000022024B1A70704700C00F404CA6002071
:101EA00000400C4000800C40F8B500BFF8BC08BCF6
:101EB0009E467047000000005FF800F0518F000060
:101EC0005FF800F0719A00005FF800F0BDC70300F2
:101ED0005FF800F0398800005FF800F0F5A300001B
:101EE0005FF800F0198B00005FF800F0358C0000FF
:101EF0005FF800F0998E00005FF800F0A5BC0300C9
:101F00005FF800F02519000045000000AD0000005A
:101F1000B51300008D2A0000357E000081300100DD
:101F20002DB301001DC70100DDDB010019520200C5
:041F3000ED9202002C
:101F340080C00F40000000031900000010000000E2
:101F4400E8841F4001000000FF000000FF000000C3
:101F54000000000000000000180000001000000055
:101F6400E4841F4001000000FF000000FF000000A7
:101F740000000000000000001F0000001519000010
:101F840070C00F40000C00001100000011000000A0
:101F9400E0841F40020000002C000000120000003A
:101FA400E0841F4001000000100000001100000048
:101FB400DC841F40020000002D000000120000001D
:101FC400DC841F40010000001E0000000519000011
:101FD40070C00F40C0000000120000001300000099
:101FE400D0841F4001000000FF000000FF0000003B
:101FF40000000000000000001300000013000000B7
:10200400CC841F4001000000FF000000FF0000001E
:1020140000000000000000001C000000F518000093
:1020240001010101010101001603550053004200A2
:102034002000530065007200690061006C0000001C
:1020440018035400650065006E0073007900640095
:10205400750069006E006F000403090409024B0057
:10206400020100C032080B00020202010009040050
:1020740000010202010005240010010524010101F0
:10208400042402060524060001070582031000103B
:1020940009040100020A00000007050302400000D1
:1020A400070584024000000009024B00020100C041
:1020B40032080B00020202010009040000010202BE
:1020C4000100052400100105240101010424020675
:1020D4000524060001070582031000050904010018
:1020E400020A00000007050302000200070584023B
:1020F400000200000A060002EF0201400100010094
:1021040000000000000000000000000000000000CB
:1021140000000000000000000000000000000000BB
:1021240010B5054C237833B9044B13B10448AFF30D
:1021340000800123237010BD4884002000000000AB
:1021440094910400084B10B51BB108490848AFF33B
:1021540000800848036803B910BD074B002BFBD06F
:10216400BDE81040184700BF000000004C84002068
:1021740094910400C08200200000000001280ED1C8
:102184004FF6FF7399420AD110B5054C20460AF068
:1021940011FC044A044920460AF0E6F910BD7047D0
:1021A40004A30020886E0020D1A8000008B54FF6D3
:1021B400FF710120FFF7E2FF08BD00BF00220265A6
:1021C400704700BF704700BF036D142B03D040F865
:1021D400231001330365704738B5054600242B6D81
:1021E4009C4206DA55F8240018B100F009F80134CD
:1021F400F5E738BD02608160704700BF704700BFDB
:1022040008B5037C4BB1054B1A684368D31A81683F
:102214008B4202D342600368984708BDC0A50020E2
:1022240010B50446044901F0FDFF582277212046E9
:1022340002F064F9204610BDD472002010B50446A3
:1022440002F022F8204610BD38B50546274C236815
:102254005B680E22264920469847284602F08AF9F0
:102264000221B7EEC00A204608F0B2FA23685B6880
:102274000322204920469847204608F045FA23685F
:102284005B680B221C4920469847284602F0BCF99B
:102294000221B7EEC00A204608F09AFA23685B6868
:1022A4000322164920469847204608F02DFA236851
:1022B4005B680B221249204698479FED120A284674
:1022C40002F0B6FA0221B7EEC00A204608F080FAFE
:1022D40023685B6802220C4920469847204608F090
:1022E40013FA204608F010FA38BD00BFE46E00204F
:1022F400F8470020084800200C4800201848002017
:102304001C48002000507D442848002038B504466D
:1023140002F044FC04F1D8050023012219462846A2
:1023240003F07EF84FF41651284603F0E3F841F227
:10233400883008F071FC204638BD00BF10B5044653
:10234400034BC0F8D830D83003F0F4F8204610BD61
:10235400BC2D0020F8B504466B4803685B680A226C
:102364006A4998472378ABB1204602F011FD664DC7
:102374000621284608F02CFA2B685B680122644980
:1023840028469847204602F01DFD0621284608F0FD
:102394001FFA05E05C4803685B6807225D499847BB
:1023A400594803685B680D225B49984794F83830B4
:1023B4004BB304F13806304602F058FD524D002369
:1023C4000A220146284608F0B7F9544F2B685B6887
:1023D4000122394628469847304602F059FD002329
:1023E4000A220146284608F0A7F92B685B680122F7
:1023F400394628469847304602F026FD01462846CD
:1024040008F0D8F905E0404803685B6807224149B1
:1024140098473D4803685B6801224149984794F80E
:102424004830002B66D04834204602F03DFD092890
:1024340005D8354803685B6801223A499847204625
:1024440002F032FD304D00230A220146284608F0EE
:1024540073F92B685B680122334928469847204664
:1024640002F02EFD092805D828462B685B68012256
:102474002C499847204602F023FD234D00230A22CD
:102484000146284608F058F92B685B680122264962
:1024940028469847204602F027FD092805D82846F3
:1024A4002B685B6801221F499847204602F01CFDF7
:1024B400154D00230A220146284608F03DF92B68F1
:1024C4005B680122194928469847204602F01EFD00
:1024D400092805D828462B685B68012211499847CA
:1024E400204602F013FD00230A220146064808F0A4
:1024F40023F905E0044803685B6807220549984707
:10250400014808F001F9F8BDE46E00202C480020D1
:10251400384800203C48002044480020544800200B
:102524005048002058480020084A00205C480020F9
:102534000E4B1A6841F288339A4205D9D0F8C83054
:10254400092B03D8012302E0002300E000235BB140
:1025540010B5074C23685B681E220649204698473D
:10256400204608F0D1F810BD704700BFC0A5002078
:10257400E46E00206048002038B5054605F1D80413
:10258400204602F0DFFE00280CDD204602F0EEFEBD
:10259400C1B2284602F050FE0028EFD02846FFF7CB
:1025A400D9FEEBE72846FFF7C3FF38BD704700BFED
:1025B400F0B587B004460F4600F14C05134E334680
:1025C40028224FF0FF31284601F0AEFA3346282284
:1025D400394601A801F0A8FA9DF8083084F8503073
:1025E400039B6365049BA3659DF8143084F85C30F9
:1025F400074B01932146284601F06AFA0C2128462C
:1026040001F0D6FA204607B0F0BD00BF9471002057
:10261400FC2D002010B598B00446074B28224FF03B
:10262400FF314C3001F080FA37216846FFF7C0FFD4
:10263400204618B010BD00BF9471002000000000B7
:1026440010B52DED068B04468368012B12D1664824
:1026540003685B6805226549984794ED05AAB7EEBF
:10266400CAAA94ED069AB7EEC99A94ED078AB7EE12
:10267400C88A89E0032B12D15B4803685B68072290
:102684005B49984794ED05AAB7EECAAA94ED069A59
:10269400B7EEC99A94ED078AB7EEC88A74E0022BA4
:1026A40012D1514803685B6804225249984794ED5B
:1026B40005AAB7EECAAA94ED069AB7EEC99A94EDA4
:1026C400078AB7EEC88A5FE0042B12D14648036834
:1026D4005B6805224849984794ED05AAB7EECAAA53
:1026E40094ED069AB7EEC99A94ED078AB7EEC88AB4
:1026F4004AE00B2B12D13C4803685B6804223F4933
:10270400984794ED05AAB7EECAAA94ED069AB7EED7
:10271400C99A94ED078AB7EEC88A35E00A2B12D11C
:10272400314803685B6807223549984794ED05AA48
:10273400B7EECAAA94ED069AB7EEC99A94ED078A41
:10274400B7EEC88A20E0092B12D1274803685B68DA
:1027540008222C49984794ED05AAB7EECAAA94ED2D
:10276400069AB7EEC99A94ED078AB7EEC88A0BE0C9
:102774001D4803685B680422234998479FED188B22
:10278400B0EE489BB0EE48AB174C23685B6804225C
:102794001E49204698470221B0EE4A0B204608F015
:1027A40017F823685B6806221949204698470221D6
:1027B400B0EE490B204608F00BF823685B6806224C
:1027C4001449204698470221B0EE480B204607F0F2
:1027D400FFFF204607F098FFBDEC068B10BD00BF3D
:1027E4000000000080842EC1E46E00204C490020CB
:1027F400544900205C490020644900206C490020B1
:10280400744900207C490020884900209049002018
:1028140098490020A0490020F0B5BBB00F4600F154
:102824004C051A2231A9284601F072FB142228A96A
:10283400284601F06DFB28221FA9284601F068FBF9
:102844000E2216A9284601F063FB08220DA928468A
:1028540001F05EFB2E2204A9284601F059FB31A8A1
:10286400FFF7EEFE28A8FFF7EBFE1FA8FFF7E8FE30
:1028740016A8FFF7E5FE0DA8FFF7E2FE04A8FFF790
:10288400DFFE284601F00EFA0646344C204607F0D7
:102894003BFF23685B680D22314920469847314647
:1028A400204607F087FF204607F02EFF00268DF80C
:1028B4000C6003AB00930DF10D030DF10E020DF14D
:1028C4000F01284601F0D6F9204607F01DFF2368C2
:1028D4005B68112223492046984733460A229DF813
:1028E4000F10204607F028FF23685B6806221E4964
:1028F4002046984733460A229DF80E10204607F0DA
:102904001BFF23685B680722184920469847334613
:102914000A229DF80D10204607F00EFF23685B681D
:10292400052213492046984733460A229DF80C1085
:10293400204607F001FF204607F0E6FE23685B68A7
:1029440002220C4920469847204607F0DDFE17B1C5
:10295400642008F061F93BB0F0BD00BFE46E0020D4
:10296400A8490020B8490020CC490020D4490020BF
:10297400DC490020E449002010B50446FFF74AFE74
:1029840004F16000FFF7C2FC04F5AE70FFF748FCE9
:10299400204610BD10B5044600F5AE70FFF74EFC9E
:1029A40004F16000FFF7CAFC014BE364204610BD4C
:1029B400FC2D0020704700BF6030704700F5AE70FA
:1029C400704700BF00207047704700BF0020704769
:1029D400002070470020704700207047006920B134
:1029E40008B50368DB68984708BD0020704700BF3E
:1029F400006920B108B503681B69984708BD002029
:102A0400704700BF006920B108B503685B69984747
:102A140008BD4FF0FF307047006920B108B5036866
:102A24009B69984708BD7047006958B100B583B0E9
:102A340003689B6801220DF10701984728B19DF8AE
:102A4400070004E04FF0FF3070474FF0FF3003B051
:102A54005DF804FB00B583B08DF80710006930B150
:102A64000368DB6801220DF10701984700E00020AC
:102A740003B05DF804FB00BF036D13B15869002176
:102A84007047436D13B118685968704700200146B8
:102A9400704700BF036D13B1D86900217047436DBF
:102AA40013B118695969704700200146704700BF87
:102AB400036D1BB9436D1BB10120704701207047A2
:102AC40000207047036D33B11B7813F0700F14BFEF
:102AD400012000207047436D3BB193F8313013F06F
:102AE400500F14BF0120002070470020704700BF22
:102AF4001030826B6AB1137813F0080F03D0D369D6
:102B04005069181A00E0002000281DDA6FF0004018
:102B14007047C36BBBB193F8312012F0080F07D094
:102B2400D3E90401D3E90023821A61EB030301E032
:102B3400002200231046002B08BFB2F1004F03D33C
:102B44006FF0004070470020704700BF8A79A2F1FF
:102B5400500313F0800F22D1F0B585B000F11804B2
:102B640002F26C724B790133DBB20D798E784F78B7
:102B74000978A06B38B1039102970196009504215E
:102B840005F09AF80DE0E06B38B1039102970196D5
:102B94000095042103F0C0FC03E0002001E00020C4
:102BA400704705B0F0BD00BF10B582B00C4600F10F
:102BB4001803986B28B101AA0DF1060104F06EFE0A
:102BC40008E0D86B28B101AA0DF1060102F000FD5E
:102BD40000E00020F8B1BDF8063013B9BDF80430A8
:102BE400C3B1BDF8043003F01F0252002270C3F3D6
:102BF40045126270DB0AA370BDF8063003F01F02B1
:102C04002271C3F34312013A62715B1203F5EA6362
:102C1400A37100E0002002B010BD00BF10B582B067
:102C24000C4600F11803986B28B101AA0DF10601B6
:102C340004F022FE08E0D86B28B101AA0DF10601C8
:102C440002F0B4FC00E00020F8B1BDF8063013B97E
:102C5400BDF80430C3B1BDF8043003F01F025200C4
:102C64002270C3F345126270DB0AA370BDF806300C
:102C740003F01F022271C3F34312013A62715B1223
:102C840003F5EA63A37100E0002002B010BD00BFA9
:102C94000830836C33B11B7813F0700F14BF012319
:102CA40000230AE0C36C3BB193F8313013F0500FAA
:102CB40014BF0123002300E0002373B110B500F119
:102CC4001004A06B10B1002104F07EFBE06B18B17E
:102CD4000022002302F0FEFD10BD704708B500F18C
:102CE4001803986B10B104F037FB08BDD86B10B112
:102CF40002F0D8FD08BD4FF0FF3008BD00B583B029
:102D040000F11003986B28B101220DF1070104F0C2
:102D14001DFA09E0D86B28B101220DF1070102F078
:102D2400C5FC01E04FF0FF30012802D19DF80700F7
:102D340001E04FF0FF3003B05DF804FB08B500F18B
:102D44001003986B10B104F0ABFC08BDD86B08B14C
:102D540003F052FA08BD00BF00B583B000F11003C0
:102D64008DF80710986B28B101220DF1070105F0C9
:102D740081F808E0D86B28B101220DF1070103F0B6
:102D840021FD00E0002003B05DF804FB10B504460B
:102D9400836DD3B94FF480703BF070F90146A065A0
:102DA40088B104F1180300220270986B20B14FF42B
:102DB400807205F0F9FE08E0D86B30B14FF48072F0
:102DC40003F056FE01E0024BA365A06D10BD00BFE9
:102DD4004AA6002010B50446806D18B13BF056F9A0
:102DE4000023A365236D1BB9636D1BB1012302E0AE
:102DF400012300E000231BB104F1180006F0F2F9EE
:102E040010BD00BF10B51830846B74B1012B08BF1E
:102E1400002A16D21146204604F0D6FA034698B189
:102E2400204604F0EBFF03460EE0C46B5CB1204681
:102E340002F050FD034638B1204603F049FC034636
:102E440002E0002300E00023184610BD70B594B0E2
:102E5400044600228DF804204FF47A7302938DF80F
:102E64000C2012921392234B0093183104A806F0FD
:102E740015FA129B1BB9139B1BB1012302E001231A
:102E840000E000232BB35C2007F0F6FF0546002684
:102E94004660194B03609DF804300373174B83603D
:102EA400029B03619DF80C30037504A9183006F0E9
:102EB4005DF9104BAB60AE6526714FF47A73A36075
:102EC40026730F4B2360256165B16B6801336B601A
:102ED40008E0002323714FF47A72A2602373084A36
:102EE40022602361074B009304A806F07BF9204677
:102EF40014B070BD4C2F0020702F0020CC2F002068
:102F0400202F0020742D002008B500F11003986BC9
:102F140010B104F021FA08BDD86B10B102F0C2FC64
:102F240008BD4FF0FF3008BD08B500F11803986BD9
:102F340010B104F00BF908BDD86B10B102F0B6FB68
:102F440008BD4FF0FF3008BD08B500F11803986BB9
:102F540010B104F0A5FB08BDD86B08B103F04CF91F
:102F640008BD00BF8A79A2F1500313F0800F22D16B
:102F7400F0B585B000F1180402F26C724B7901339C
:102F8400DBB20D798E784F780978A06B38B1039154
:102F9400029701960095022104F08EFE0DE0E06B8D
:102FA40038B10391029701960095022103F0B4FA17
:102FB40003E0002001E00020704705B0F0BD00BF31
:102FC40008B500F11003986B10B104F053FF08BD6D
:102FD400D86B10B103F0F6FB08BD002008BD00BF9C
:102FE40008B500F11803986B10B104F043FF08BD55
:102FF400D86B10B103F0E6FB08BD002008BD00BF8C
:1030040010B504460F4B0360806D18B13BF03EF8D9
:103014000023A365236D1BB9636D1BB1012302E07B
:10302400012300E000231BB104F1180006F0DAF8D4
:10303400054BA36004F1180006F0D4F8034B236099
:10304400204610BD702F0020742D00204430002035
:1030540010B50446114B0360806D18B13BF016F8AF
:103064000023A365236D1BB9636D1BB1012302E02B
:10307400012300E000231BB104F1180006F0B2F8AC
:10308400074BA36004F1180006F0ACF8054B23606D
:103094005C21204607F000FF204610BD702F002061
:1030A400742D0020443000201830826B6AB11378EC
:1030B40013F0080F03D0D3695069181A00E00020F8
:1030C40000281DDA6FF000407047C36BBBB193F862
:1030D400312012F0080F07D0D3E90401D3E900230B
:1030E400821A61EB030301E0002200231046002B47
:1030F40008BFB2F1004F03D36FF0004070470020C7
:10310400704700BF38B514461D46049BABB900F1A7
:103114001803986B38B1012D08BF002A09D2114653
:1031240004F052F938BDD86B28B12B4602F0D2FB1B
:1031340038BD002038BD002038BD012B24D100F15A
:1031440018039A6B12B15069002106E0DA6B12B1D0
:10315400D2E9000101E00020002124184D41986BC0
:1031640038B1012D08BF002C0AD2214604F02CF9F5
:1031740038BDD86B30B122462B4602F0ABFB38BDCC
:10318400002038BD002038BD022B24D100F11803E3
:103194009A6B12B1D069002106E0DA6B12B1D2E960
:1031A400040101E00020002124184D41986B38B13E
:1031B400012D08BF002C0AD2214604F005F938BDC0
:1031C400D86B30B122462B4602F084FB38BD002078
:1031D40038BD002038BD002038BD00BF10B50446FE
:1031E4000A4B036003697BB11A465B68013B536079
:1031F40043B900690368DB6A9847206910B1036822
:103204005B68984700232361204610BD202F0020CF
:1032140010B504460C4B036003697BB11A465B6826
:10322400013B536043B900690368DB6A984720692E
:1032340010B103685B68984700232361142120467A
:1032440007F02AFE204610BD202F002008B5094BA8
:103254001B783BB101210D2007F0F4FC0022054B43
:103264001A7008BD00210D2007F0ECFC0122014B6F
:103274001A7008BD357E002008B50021024B18687D
:10328400FFF7CAFA08BD00BF74A3002008B54FF4C5
:103294007A71024B1868FFF76FF908BD70A300201C
:1032A40008B5024B1868FEF7CFFF08BD5CA30020E9
:1032B400012848D14FF6FF73994244D170B5224D8D
:1032C4002846FFF759FB214C22462149284609F09C
:1032D4004BF9204D2846FEF771FF22461E49284629
:1032E40009F042F91D4E1E4A41F288313046FEF77C
:1032F40081FF1C4D22462946304609F035F91A4E05
:103304001A4A64213046FEF775FF224629463046A4
:1033140009F02AF9164E174A4FF4FA613046FEF7BF
:1033240069FF22462946304609F01EF9124E134A17
:103334004FF4FA613046FEF75DFF224629463046D7
:1033440009F012F970BD7047B8A30020886E002000
:103354009508000068A50020C5000000E0A5002035
:103364004D110000FD00000018A600207911000096
:10337400FCA500208D110000C4A50020A1110000AF
:1033840038B501210D2007F093FC394B1C6808F077
:10339400C9FF384B1B7813F0FF0F0DD0364B1B7849
:1033A40013F0010F0AD0324B1B68344A12689B1A7F
:1033B4000E2B05D8002304E0002302E0002300E0E4
:1033C400012393B92A4B1B681B1B2A4A127812F05B
:1033D400FF0F03D0B3F5FA6F04D906E040F2EE22F2
:1033E400934202D808F09EFFD1E708F09BFF214BDF
:1033F4001B7813F0FF0F0DD01F4B1B7813F0010F38
:103404000AD01B4B1B681D4A12689B1A0E2B05D849
:10341400002304E0002302E0002300E00123002B4A
:10342400E3D0174C17492046FEF7CEFE4FF47A70CE
:1034340007F0F2FB144D2846FFF7BCFA134B186053
:103444002846FFF7B9FA124B18602846FFF7B6FA78
:10345400104B186010492046FEF7B6FE0F4920466F
:10346400FEF7B2FE0E492046FEF7AEFE38BD00BFA1
:10347400C0A5002055A6002054A60020B4A6002014
:1034840068A50020E0A50020B8A3002074A30020B4
:1034940070A300205CA3002018A60020FCA5002037
:1034A400C4A5002008B50248FEF796FE08BD00BF7B
:1034B40068A5002008B54FF6FF710120FFF7F8FE5C
:1034C40008BD00BF90F8A32090F8A200101A70471E
:1034D40090F8A23090F8A320934205D25A1C80F8A9
:1034E400A2200344987E70474FF0FF30704700BF1E
:1034F40090F8A23090F8A320934202D20344987E1D
:1035040070474FF0FF307047704700BFB0F830315C
:103514007BB190F82F31882B03D90123037100204C
:1035240070475A1C80F82F21184480F8A5100120F8
:1035340070470020704700BF38B5B0F83031BBB1D8
:103544000546144690F82F31C3F18902A24202D2F3
:1035540001202871144605F1A5002246184407F0FD
:10356400F1FB95F82F31234485F82F31204638BDDF
:10357400002038BD2DE9F0414369027E03EB0212BD
:10358400167A427E03EB021393F82840484B4FEA25
:10359400061E03EB0E01CF68220103EB0208D8F8E4
:1035A4000C5049684FF0150CC1F800C053F80E10C8
:1035B400C1F8847053F80EE0DEF804103943CEF8F5
:1035C4000410D8F80410C1F800C09958C1F8845008
:1035D4009A5853682B435360364B1968364B1B6813
:1035E400364AA2FB03239B0C03EB83035A00314BA3
:1035F4001B685B1A9A42FAD8002108293EDC330181
:103604002B4AD3589B681F4206D02301D3589B688A
:103614001D4203D1002302E0002300E001237BBB11
:103624002301234AD358C3F88850224BD3F800E02F
:10363400214B1B68214AA2FB0332920C02EB82024B
:103644001C4B1B68CEEB03039A42F9D82301184A9A
:10365400D358C3F88450174BD3F800E0164B1B68BB
:10366400164AA2FB0332920C02EB8202114B1B6836
:10367400CEEB03039A42F9D80131BEE7002100E002
:1036840001210B4B03EB061675684269067E02EBBB
:103694000612D2682A6003EB04135A684369407E19
:1036A40003EB0013DB6A13600846BDE8F08100BF3A
:1036B40044440020041000E0906E002083DE1B438D
:1036C40010B504460D4B1A6823695B6913F0007F3B
:1036D4000CD013F0807F09D1084B1B689B1A102B68
:1036E400F2D92046FFF746FF034620B123694FF481
:1036F400FE425A610123184610BD00BFC0A5002038
:103704002DE9F84390F82F61002E6ED00F46054640
:10371400FFF7D6FF804600286AD03A4BD3F80090D2
:103724000024B44220D82B69DB6D03F00703032B7C
:103734001AD83CB9296995F8A52042F480620A6632
:1037440001240FE0B44206D22A69291991F8A51080
:103754001166013406E01FB12B694FF400721A663A
:10376400013401E00133E2E72A69536913F4006F7D
:1037740006D0136943F4407313610420BDE8F88351
:1037840013F4806F0AD0136943F4407313612B69F7
:103794004FF400721A660220BDE8F88313F4005F48
:1037A40007D118490968C9EB0101322903D800215E
:1037B40002E0414600E0414651B1136943F44073CD
:1037C40013612B694FF400721A660420BDE8F88374
:1037D400B44207D9D26D12F0070F03D113F4007F5E
:1037E40009D15FB108F09EFD9BE70420BDE8F88392
:1037F4000420BDE8F8830020BDE8F8830020BDE87C
:10380400F88300BFC0A500202DE9F04705460E4609
:1038140090461F46FFF754FF002800F08A80814637
:103824007600B8F1000F01D14FF00108002485F8AB
:10383400A24085F8A340404BD3F800A0022C23D823
:103844002B69DB6D03F00703022C94BF00220122D5
:10385400032B19D8C2B934B92869F1B240F2014234
:103864000A4302660DE0012C06D1296908F1FF32F2
:1038740042F480720A6604E01FB12A694FF40071B1
:1038840011660134013BDFE795F8A330872B10D88C
:103894002869C26DC2F302425AB195F8A330872B4E
:1038A40007D8591C85F8A310016F2B449976013A67
:1038B400F2E72A69536913F4006F04D0136943F4DF
:1038C4004073136128E013F4105F07D11A490968A3
:1038D400CAEB0101322903D8002102E0494600E085
:1038E400494641B1136943F4407313612B694FF4A2
:1038F40000721A6610E095F8A310884509D8022CC6
:1039040007D9D26D12F0070F03D113F4007F03D14E
:1039140017B108F007FD91E72B69DA6D12F4E02F77
:1039240003D01A6942F400721A6195F8A300BDE845
:10393400F0870420BDE8F087C0A5002038B5044610
:103944000369D3F8145115F4706201D0C3F814213B
:1039540015F0020F13D02369D3F8702112F4004F2D
:1039640004D0002384F8A23084F8A33094F8A33060
:10397400872B04D8591C84F8A31023449A7615F095
:10398400010F20D094F830314BB9D4F8383103B159
:103994009847002384F82E31012384F8303194F8B9
:1039A4002E3194F82F21934209D22269591C84F8AC
:1039B4002E11234493F8A530C2F8603103E0236943
:1039C4000022C3F8602115F4007F11D094F8A300FD
:1039D40018B1D4F83C3103B19847002384F8A230DD
:1039E40084F8A33084F82E3184F82F3184F83031F0
:1039F40038BD00BF08B50248FFF7A0FF08BD00BFEF
:103A04009471002008B50248FFF798FF08BD00BF75
:103A1400D472002008B50248FFF790FF08BD00BF2C
:103A240014740020036900221A611D4B99420DD8B9
:103A340003691C4A9A64036901225A6203691A4A97
:103A44009A6203694FF43032DA621BE0174B9942F1
:103A54000CD80369164A9A64036900225A620369FE
:103A6400144A9A620369144ADA620BE00369134A3E
:103A74009A64036900225A620369114A9A620369CB
:103A84000D4ADA6203699A6C1A65036900221A62A4
:103A940003694FF001129A65036901221A617047A4
:103AA4007F1A06003B372819B80B05053F420F0063
:103AB4001C1A120C100E0202007F05000A090704EA
:103AC40060090101014B0360704700BFFC2D002019
:103AD40038B505460C462822002120463AF0EEFE71
:103AE4000B22094920463CF0E9FD0023E372012240
:103AF400E260EA6822610322626163620023A361D7
:103B0400E361024B236238BD244A00200AD7233CD8
:103B140010B50446034B0360142107F0BDF9204699
:103B240010BD00BFFC2D0020F8B5044616461F4604
:103B3400074B036000238360C160102007F09CF9E9
:103B440005463A46314634F04DF8A5602046F8BDA6
:103B5400E02D002000B585B08DF80C108DF80D20F7
:103B640080680023019300930123022203A934F007
:103B740071F805B05DF804FB08B50A4601743D21EF
:103B8400FFF7E8FF1E2007F047F808BD10B584B022
:103B940004AC04F8041D8068002301930122009200
:103BA4002346214634F0D0F89DF80C0004B010BD33
:103BB40070B505460E460021806834F03BF840F2AB
:103BC4005234002C09DD0121A86834F033F820B9FF
:103BD4000A2007F021F80A3CF3E7002C46DD002117
:103BE4002846FFF7D3FFA02809D04FF47A7007F0D6
:103BF40013F800212846FFF7C9FFA02838D1002177
:103C04002846FFF7B9FF20223F212846FFF7A2FFED
:103C14001E2007F001F800212846FFF7B7FFA0286F
:103C240003D00A2006F0F8FFF5E7322006F0F4FF8F
:103C340000223E212846FFF78DFF0A2006F0ECFF04
:103C4400002207212846FFF785FF00223F2128464E
:103C5400FFF780FF0A2006F0DFFF31462846FFF712
:103C64008BFF142006F0D8FF012070BD002070BD2A
:103C7400002070BDF8B50F4616461D46069C35213A
:103C8400FFF784FF0FB183093B7016B1C0F3011332
:103C9400337015B1C0F381032B7014B100F003002D
:103CA4002070F8BD08B53421FFF770FF40B208BD9D
:103CB40010B584B004AC04F8041D8068002101919F
:103CC400009313460122214634F03EF804B010BD9F
:103CD40030B583B00446084615460023236063606C
:103CE400A360E360236163610093ADF804300623AD
:103CF4006A462946FFF7DCFF9DF800309DF8012055
:103D040043EA022319B29DF802309DF8032043EAE6
:103D140002231AB29DF804309DF8050043EA0023FB
:103D24001BB2083D262D00F2B780DFE805F065B52B
:103D3400B5B5B5B514B5B5B5B5B52FB5B5B5B5B556
:103D44004AB5B5B5B5B5B5B5B5B5B5B5B5B580B5BF
:103D5400B5B5B5B59B0007EE901AB8EEE76B9FEDCD
:103D6400505B26EE056B84ED006B07EE902AB8EEEF
:103D7400E76B26EE056B84ED026B07EE903AB8EE26
:103D8400E77B27EE057B84ED047B85E007EE901A44
:103D9400B8EEE76B9FED425B26EE056B84ED006B9E
:103DA40007EE902AB8EEE76B26EE056B84ED026B06
:103DB40007EE903AB8EEE77B27EE057B84ED047BB3
:103DC4006AE007EE901AB8EEE76B9FED355B26EEDE
:103DD400056B84ED006B07EE902AB8EEE76B26EED8
:103DE400056B84ED026B07EE903AB8EEE77B27EEA5
:103DF400057B84ED047B4FE007EE901AB8EEE77B79
:103E04009FED296B87EE065B84ED005B07EE902A3D
:103E1400B8EEE77B87EE065B84ED025B07EE903A33
:103E2400B8EEE77B87EE065B84ED045B34E007EED7
:103E3400901AB8EEE77B9FED1C6B87EE065B84ED72
:103E4400005B07EE902AB8EEE77B87EE065B84ED15
:103E5400025B07EE903AB8EEE77B87EE065B84EDF3
:103E6400045B19E007EE901AB8EEE77B9FED0E6B4A
:103E740087EE065B84ED005B07EE902AB8EEE77BE5
:103E840087EE065B84ED025B07EE903AB8EEE77BC3
:103E940087EE065B84ED045B204603B030BD00BFB3
:103EA400000000000000B03F000000000000594086
:103EB40070B586B005460C462426324600212046BD
:103EC4003AF0FCFC2660EB6863600323A3600E4BAE
:103ED4001B6823611A2229466846FFF7F9FE9DED07
:103EE400007BB7EEC77B84ED057A9DED027BB7EED0
:103EF400C77B84ED067A9DED047BB7EEC77B84ED2A
:103F0400077A012006B070BDC0A5002000000000A3
:103F1400F0B5ABB007460C461546242632460021C0
:103F240020463AF0CBFC2660FB686360844B1B6838
:103F34002361002300930193029303930493059355
:103F4400282D25D10A23A3602822394606A8FFF785
:103F5400BFFE0023022B08DC2AAA02EBC30252E9AB
:103F6400240142E92A010133F4E79DED007BB7EE19
:103F7400C77B84ED057A9DED027BB7EEC77B84EDAC
:103F8400067A9DED047BB7EEC77B84ED077ACEE01D
:103F9400082D25D10123A360082239460CA8FFF778
:103FA40097FE0023022B08DC2AAA02EBC30252E983
:103FB4001E0142E92A010133F4E79DED007BB7EECF
:103FC400C77B84ED057A9DED027BB7EEC77B84ED5C
:103FD400067A9DED047BB7EEC77B84ED077AA6E0F5
:103FE4002E2D25D10923A3602E22394612A8FFF7CE
:103FF4006FFE0023022B08DC2AAA02EBC30252E95B
:10400400180142E92A010133F4E79DED007BB7EE84
:10401400C77B84ED057A9DED027BB7EEC77B84ED0B
:10402400067A9DED047BB7EEC77B84ED077A7EE0CC
:104034001A2D25D10323A3601A22394618A8FFF7A5
:1040440047FE0023022B08DC2AAA02EBC30252E932
:10405400120142E92A010133F4E79DED007BB7EE3A
:10406400C77B84ED057A9DED027BB7EEC77B84EDBB
:10407400067A9DED047BB7EEC77B84ED077A56E0A4
:10408400142D2DD10423A360142239461EA8FFF752
:104094001FFE0023022B08DC2AAA02EBC30252E90A
:1040A4000C0142E92A010133F4E79FED235B9DED06
:1040B400006B26EE056BB7EEC66B84ED056A9DEDCD
:1040C400026B26EE056BB7EEC66B84ED066A9DEDBA
:1040D400047B27EE057BB7EEC77B84ED077A26E0E9
:1040E4000E2D24D10223A3600E22394624A8FFF703
:1040F400EFFD0023022B08DC2AAA02EBC30252E9DB
:10410400060142E92A010133F4E79DED007BB7EE95
:10411400C77B84ED057A9DED027BB7EEC77B84ED0A
:10412400067A9DED047BB7EEC77B84ED077A012008
:104134002BB0F0BDAFF30080000000A046DF913F3C
:10414400C0A50020014B0360704700BFFC2D002078
:10415400014B0360704700BFFC2D002010B50446DE
:10416400034B0360102106F097FE204610BD00BFEC
:10417400FC2D002010B50446034B0360102106F00B
:104184008BFE204610BD00BFFC2D002038B505462F
:104194000C462822002120463AF090FB0B220A49C3
:1041A40020463CF08BFA0023E3720122E260AA6805
:1041B40022610D2262616362044BE361044BA361DB
:1041C400044B236238BD00BF2C4A0020000020C2EB
:1041D4000000AA420AD7233C38B505460C462822DB
:1041E400002120463AF06AFB0B220A4920463CF0A3
:1041F40065FA0023E3720122E260AA6822610622C2
:1042040062616362044BE361044BA361044B236268
:1042140038BD00BF2C4A002000009643008089442A
:10422400A69B443C38B50446002545608560C560BE
:104234000561856190F8383003F0800365F3C71396
:1042440080F8383090F83C3003F0C00365F38713EE
:1042540080F83C300160102006F00EFE084B03602D
:104264004FF48C738360C460E060102006F004FE99
:10427400044B03608560C4602061204638BD00BFE4
:10428400B02E0020042F002038B5044685683DB1C7
:1042940035B1284633F070FD1421284606F0FCFDA4
:1042A400606810B1102106F0F7FDE06818B110B194
:1042B40003685B689847206918B110B103685B68AC
:1042C4009847204638BD00BF30B585B08DF80D2025
:1042D400456865B104AC04F8041D00230193009300
:1042E400012302222146284633F0B4FC0AE001F0FF
:1042F4007F0304A901F8043D80680023009302228F
:1043040033F050FF05B030BD38B58469A4B3154609
:10431400044690F83C2061F3871265F3020263F3CC
:10432400C50280F83C209DF8103003F0070390F894
:10433400381063F3C5019DF8142002F0070262F3FC
:10434400020180F838109B0043EA4213C1F3C01203
:104354001A43D2B2F521FFF7B7FF94F83C2002F0DC
:104364000701C2F3C2039B0043EA411343EA9212DA
:10437400F4212046FFF7A8FF38BD00BF30B585B053
:10438400456865B104AC04F8041D002301930122BF
:10439400009223462146284633F0D6FC0CE061F017
:1043A4007F0304A901F8043D8068FF2301930122DF
:1043B40000920B4633F01AFF9DF80C0005B030BD97
:1043C40030B585B045686DB104AC04F8041D002314
:1043D400019302230093234601222146284633F009
:1043E400B3FC0DE061F07F0304A901F8043D80688B
:1043F400FF230193022300930B46012233F0F6FEC0
:104404009DF80C009DF80D3043EA002005B030BD46
:1044140008B5FFF7D5FF40BA80B208BD08B5FFF76D
:10442400F7FF00B208BD00BF30B585B045686DB177
:1044340004AC04F8041D00230193032300932346D2
:1044440001222146284633F07FFC0DE061F07F0312
:1044540004A901F8043D8068FF230193032300931A
:104464000B46012233F0C2FE9DF80C009DF80D307E
:104474001B0243EA00439DF80E00184305B030BD0B
:1044840010B504468821FFF7C3FF20848A21204603
:10449400FFF7C4FF60848C212046FFF7BFFFA08490
:1044A4008E212046FFF7B4FFE08490212046FFF7D9
:1044B400B5FF208592212046FFF7B0FF6085942147
:1044C4002046FFF7ABFFA08596212046FFF7A6FF05
:1044D400E08598212046FFF7A1FF20869A212046F7
:1044E400FFF79CFF60869C212046FFF797FFA0867C
:1044F4009E212046FFF792FFE08610BDF0B583B001
:10450400044615468068A8B90E46606810B11021AB
:1045140006F0C2FC102006F0AFFC074622683146C4
:1045240033F060FB67600121384633F083FB0346B8
:1045340020B91CE033F02AFC0346C0B1D021204648
:10454400FFF71CFFA061A84210D12046FFF798FF97
:1045540000230193009305231A4603212046FFF705
:10456400D3FE642006F058FB012300E00023184624
:1045740003B0F0BD836933B310B50446FA21FFF7E5
:1045840053FF228C5300C3EBE013B4F9221003FB56
:1045940001F3C2EB202202FB02F21213B4F924103D
:1045A40002FB01F2921302EBE323E36103EB8303C7
:1045B40080331B1207EE903AF8EEE77A9FED037A08
:1045C40087EE870A10BD9FED020A70470000C842BB
:1045D4000000C07F70B505460C46242632460021F3
:1045E40020463AF06BF92660AB6863600D23A36044
:1045F400044B1B682361E868FFF7BCFF84ED050AE0
:10460400012070BDC0A500202DE9F84F8369002B5F
:1046140000F0DD800446FFF7ADFFF7212046FFF7E9
:1046240003FF0511E269D317B2F5FA3243F1FF3300
:1046340002FB03F1A2FB028909EB4109B4F9300042
:10464400C11708FB01F600FB0966A8FB0001314411
:10465400B4F92E60F71706FB03FE02FB07EEA6FB78
:10466400026777444FEA474B4BEAD63B4FEA464A48
:1046740010EB0A0041EB0B01B4F92C604FF0000A77
:104684004FEAC60B1AEB000A4BEB010BB4F92A6094
:10469400F71706FB09F108FB0711A6FB08898944F3
:1046A4004FEA182040EA09604FEA2921B4F928604A
:1046B400F71706FB03F302FB0737A6FB02233B4471
:1046C4001F0347EA1257160336184F41003647F5C1
:1046D4000047E28CA2FB068902FB07994FEA6902B4
:1046E4004FEAE97352EA030175D0C5F58015EF1757
:1046F400F90741EA5501E807B0EB0A0061EB0B0149
:10470400061841EB010736184F414FEA871949EA69
:1047140096694FEA861816EB080647EB0907BD00B1
:1047240045EA96754FEA860E1EEB000645EB010737
:10473400BD0045EA96754FEA860E10EB0E006941FE
:1047440037F0C8F9430B43EAC1434D13B4F936605B
:10475400F71706FB05FE03FB07EEA6FB036777448A
:1047640003FB07F205FB0625A3FB06232B44560E89
:1047740046EAC3165F16B4F934804FEAE87908FBB9
:1047840001F300FB0933A8FB008999444FEAD8429E
:1047940042EA49324FEAE9438019794112184B4100
:1047A400100A40EA03601912B4F93240E5172B01EC
:1047B40043EA147322018018594137F04DF99FEDF3
:1047C400080A07EE900A27EE800ABDE8F88F9FEDED
:1047D400050ABDE8F88F9FED040ABDE8F88F00BF15
:1047E4000000803B0000C07F0000000070B505465B
:1047F4000C4624263246002120463AF05FF8266013
:10480400AB6863600623A360064B1B682361E868FA
:10481400FFF7FAFEDFED047A80EE270A84ED050A3D
:10482400012070BDC0A500200000C84200000000A7
:1048340008B52DED028BB0EE408AFFF7E5FEDFED03
:10484400107A80EE270AC0EE087A9FED091BB7EEB6
:10485400E70A36F025F9B7EE007B37EE400B9FED03
:10486400067B20EE070BB7EEC00BBDEC028B08BD38
:1048740000000020C05BC83F0000000040A5E540E8
:104884000000C84210B582B002AB03F8011D0268F3
:10489400546801221946A04702B010BD704700BFFA
:1048A40010B50446002101714FF47A7383600173DB
:1048B4000B4B03600B4B0361072343610A4B83617A
:1048C4000A23C36109230362022343628162C16232
:1048D40001634163816306F02DF8204610BD00BFDB
:1048E4001031002000127A00946E0020012808D1B3
:1048F40008B54FF6FF73994202D10248FFF7D0FF83
:1049040008BD704764840020F0B583B004460E46A9
:1049140015460021007F06F095F9A36904F1100201
:1049240092E8030002AA02E90300DA7C002A33D0E9
:1049340072B6DA7C12F0010F05D0564908685A693C
:1049440002409A620A60DA7C12F0020F05D05249E2
:1049540008689A690240DA620A60DA7C12F0040F8D
:1049640005D04E490868DA6902401A630A60DA7CA5
:1049740012F0080F05D04A4908681A6A02405A63BF
:104984000A60DA7C12F0100F05D0464908685A6AAA
:1049940002409A630A6062B600989A6890422BD0EB
:1049A4009860414A9269C2F30117404951F82710AF
:1049B400C2F382620132B1FBF2F110B1B1FBF0F249
:1049C40000E00A4622B1B1FBF2F1884200D2013282
:1049D400B2F5817F01D340F20112022A01D9023AD1
:1049E40000E00022D0B25208110289B2014312043D
:1049F40002F47F020A43DA601A68002111611A681E
:104A0400032151621A68D96811641A680199116600
:104A14001B6801221A61A1690B685E660B68DA6D76
:104A240012F4F81FFAD05B6FA1690B685D660B681E
:104A3400DA6D12F4F81FFAD05D6FEDB2A369DA7C77
:104A44000AB312F0010F02D0996A194A1160DA7C94
:104A540012F0020F02D0D96A164A1160DA7C12F001
:104A6400040F02D0196B144A1160DA7C12F0080F9B
:104A740002D0596B114A1160DA7C12F0100F02D087
:104A84009A6B0F4B1A600121207F06F0DBF8284651
:104A940003B0F0BD80E100E084E100E088E100E0E3
:104AA4008CE100E090E100E000C00F4024410020D0
:104AB40000E100E004E100E008E100E00CE100E0D6
:104AC40010E100E008B5002201F07F01FFF71CFFB0
:104AD40008BD00BF10B504461321FFF7F3FFE36AD6
:104AE400C01A10BD10B5044603681B69984738B155
:104AF400E36A0133E36200212046FFF7E3FF10BDC0
:104B04004FF0FF3010BD00BF08B541F08001FFF742
:104B1400FBFE08BD2DE9F04106460F46154622214D
:104B2400FFF7D0FF80464319FF2B01D9C0F1FF05E1
:104B34000024A54206D93A5D00213046FFF7E4FF80
:104B44000134F6E708EB0502D2B222213046FFF722
:104B5400DBFF2846BDE8F08170B5044603681B6995
:104B6400984780B10D212046FFF7ACFF064600218F
:104B74002046FFF7A7FF054632460D212046FFF7E2
:104B8400C3FF284670BD4FF0FF3070BD08B54FF627
:104B9400FF710120FFF7AAFE08BD00BF00220270CA
:104BA4004270828082600273028242610276828352
:104BB400026280F824200285C26280F8302080F8E6
:104BC400382080F83920C26380F8482080F84920D2
:104BD400C26480F8582080F85920026680F8682062
:104BE40080F86920026780F8782080F87920C0F87E
:104BF400802080F8882080F88920C0F8902080F8F0
:104C0400982080F89920C0F8A02080F8A82080F887
:104C1400A920022180F8B91080F8BA2080F8BB20BE
:104C240080F8BC20C0F8C020C0F8C420C0F8C82058
:104C3400C0F8CC20C0F8D020C0F8D42080F8AA2036
:104C4400704700BFA1F14103DBB2052B02D8A1F1EB
:104C540037007047A1F16103DBB2052B02D8A1F143
:104C640057007047A1F13000704700BF38B50446C3
:104C740005782D2D00D10134204638F075F86423D1
:104C840003FB00F02378A3F13002092A01D8013490
:104C9400F8E72E2B0ED16378A3F13002092A09D844
:104CA40002EB82035A001044A378A3F13002092ACC
:104CB40000D810442D2D00D1404238BD38B50446EB
:104CC4000D4638F051F8184AA2FB0032510964230A
:104CD40003FB110189B2154B03FB01F152092A8030
:104CE4002378A3F13002092A01D80134F8E72E2BE6
:104CF4000ED10E4A14F8013FA3F13000092807D859
:104D04000B48A0FB0202D208303B02FB0311F1E77F
:104D140001EB81010131074BA3FB01235B086B60AD
:104D240000232B7238BD00BF1F85EB51809698007D
:104D3400CDCCCCCCABAAAAAA10B4034653F81C4FD2
:104D44005968446081601B7A0373034653F8284F03
:104D54005968046141611B7A0376044B1B68436301
:104D64000123437003705DF8044B7047C0A5002015
:104D740008B50B4600F11C011846FFF79FFF08BD5C
:104D840008B50B4600F128011846FFF797FF08BD48
:104D940000234370838800EE103AD0ED027AF8EED7
:104DA400677ADFED076A87EEA67AB8EEC00A30EEBE
:104DB400070AB7EEC00A037B0BB1B1EE400B704794
:104DC400286B6E4E00234370038A00EE103AD0ED38
:104DD400057AF8EE677ADFED076A87EEA67AB8EE11
:104DE400C00A30EE070AB7EEC00A037E0BB1B1EE7B
:104DF400400B7047286B6E4E83684360034B1B68FF
:104E0400C360012343700370704700BFC0A5002036
:104E140083684360034B1B68C360012343700370C2
:104E2400704700BFC0A5002010B504460846FFF730
:104E34001DFFA06010BD00BF10B50446084637F042
:104E440093FFA06010BD00BF002343704368064871
:104E5400A0FB03204009642202FB103080B200F55D
:104E6400FA6080B2704700BF1F85EB510023437086
:104E740043680648A0FB03235B09A0FB0320400909
:104E8400642202FB1030C0B2704700BF1F85EB5193
:104E94000023437043680348A0FB0330C0F347304A
:104EA400704700BF5917B7D10023437043680348C4
:104EB400A0FB0330C0F38740704700BF83DE1B4371
:104EC400002343704368064AA2FB03235B0B054897
:104ED400A0FB03204009642202FB1030C0B27047DB
:104EE4005917B7D11F85EB51002343704368064817
:104EF400A0FB03235B09A0FB03204009642202FBFF
:104F04001030C0B2704700BF1F85EB5100234370BF
:104F140043680448A0FB03204009642202FB1030CC
:104F2400C0B270471F85EB51C3688360034B1B6895
:104F34004360012343700370704700BFC0A5002085
:104F440010B504460846FFF791FEE06010BD00BFAF
:104F5400C3688360034B1B68436001234370037081
:104F6400704700BFC0A5002010B50446084637F0BE
:104F7400FBFEE06010BD00BF10B5044601461030D2
:104F84003AF0FEF9044B1B682362012384F82530B0
:104F940084F8243010BD00BFC0A5002008B510223D
:104FA4003BF08CFB08BD00BFF8B5044690F8A9603F
:104FB400002E69D090F8AA10FFF744FE054694F835
:104FC400AB102046FFF73EFE00EB0510C0B294F88C
:104FD400A830984251D1D4F8D4300133C4F8D43035
:104FE40094F8BC3023B1D4F8CC300133C4F8CC30BD
:104FF40094F8B930C3B1012B2CD104F13800FFF778
:10500400FBFE04F14800FFF703FF94F8BC300BB338
:105014002046FFF791FE04F15800FFF785FF04F1E5
:105024006800FFF781FF15E004F14800FFF7F0FE88
:1050340094F8BC3033B12046FFF77EFE04F17800CB
:10504400FFF772FF04F18800FFF782FF04F1980074
:10505400FFF76AFFD4F8C450002D00F0E380D4F8C1
:10506400C430996AA86A3AF01FF8002840F0DA8040
:105074002846FFF781FF2D6BEEE7D4F8D0300133DB
:10508400C4F8D0300026CDE090F8BA30002B3FD1E0
:1050940000F1AA07644938463AF006F820B163499A
:1050A40038463AF001F818B9012384F8B93010E011
:1050B4005F49384639F0F8FF20B15E49384639F087
:1050C400F3FF18B9002384F8B93002E0022384F80E
:1050D400B930D4F8C030C4F8C430D4F8C4504DB199
:1050E4003946A86A39F0E0FF002803DA2B6BC4F8CC
:1050F400C430F2E7002D00F095803946A86A39F0F3
:10510400D3FF002840F38E800023C4F8C43089E024
:1051140090F8B920022A6ED090F8AA1000296AD01B
:1051240043EA4213013B282B65D8DFE803F015223C
:10513400272E334C53595F64646464646464646408
:105144006464646464646464646464646464151BB3
:1051540022272E333A40460000F1AA014830FFF7D7
:1051640063FE48E0412914BF0021012180F8BC10EE
:1051740041E000F1AA01FFF7FBFD3CE0532914BF15
:105184000021012180F8241035E000F1AA01FFF785
:10519400F7FD30E0572914BF0021012180F83010B9
:1051A40029E000F1AA015830FFF7CAFE23E000F11C
:1051B400AA016830FFF7C4FE1DE000F1AA013830EF
:1051C400FFF73AFE17E0302994BF0021012180F84F
:1051D400BC1010E000F1AA018830FFF7C5FE0AE018
:1051E40000F1AA019830FFF7ABFE04E000F1AA0138
:1051F4007830FFF7A5FED4F8C4509DB1D4F8C4307C
:10520400996AA86A39F050FF60B9EA6A94F8BA302A
:105214009A4207DC04D104F1AA012846FFF7BEFE36
:105224002D6BEAE73046F8BD344A00203C4A0020A2
:10523400444A00204C4A002038B50346D0F8C82020
:105244000132C0F8C820A1F10A02222A45D8DFE8B9
:1052540002F01744441744444444444444444444FA
:105264004444444444444444444444443544444409
:1052740044441744120093F8A8204A4083F8A82015
:105284000D461C4693F8BB300E2B07D8234400224E
:1052940083F8AA202046FFF787FE00E0002094F858
:1052A400BA30013384F8BA30002384F8BB302A2D95
:1052B40014BF0021012184F8A91038BD002083F80F
:1052C400BB0083F8BA0083F8A800022283F8B9204F
:1052D40083F8A90083F8BC0038BD93F8BB200D2ADD
:1052E40005D8501C83F8BB001A4482F8AA1093F81E
:1052F400A90028B993F8A820514083F8A81038BD14
:10530400002038BD0A4B1B68C31A0B44B3F5BE7F9B
:1053140008D9A1F5B47262B6054B1B681B1A9A42F0
:10532400FAD872B6024B1B681B1A9942FAD8704716
:10533400041000E0006920B108B50368DB689847F1
:1053440008BD7047006920B108B503681B69984718
:1053540008BD0020704700BF006920B108B503688C
:105364009B69984708BD4FF0FF307047006920B132
:1053740008B503685B69984708BD4FF0FF30704774
:105384002DE9F0410546884605F01AFC286928B144
:1053940003681B6841469847BDE8F0816B69002BA0
:1053A40035D01C4A136843F0807313601A4A13689B
:1053B40043F0010313606E6972B6184B1F68AB6942
:1053C40000221A6031463846FFF79CFF012484B15D
:1053D400AB6914EA080F01D0012200E000221A6030
:1053E4006B691E4431463846FFF78CFF6400E4B213
:1053F400EDE7AB6901221A6062B66B691E44074B84
:105404001B68DB1B9E42FAD80120BDE8F081002016
:10541400BDE8F081FCED00E0001000E0041000E0C5
:10542400F8B504461546002303714FF47A7282607E
:105434000373274A026080F82030994208BF012D87
:1054440002D1244B036141E00E46062908BF072D13
:1054540002D1214B036139E00E2908BF0F2D02D17F
:105464001E4B036132E0102908BF112D02D11C4BE1
:1054740003612BE0152908BF142D02D1194B0361D8
:1054840024E0192908BF182D02D1174B03611DE030
:105494001C2908BF1D2D02D1144B036116E00027FF
:1054A40007610121284605F003FC0221304605F07E
:1054B400FFFB84F8215084F822600D4B2D015A59CA
:1054C400A26136019B590833E36167612046F8BD48
:1054D400BC2D0020F46E0020546F0020B46F002017
:1054E4001470002074700020D470002034710020E7
:1054F4004444002008B5036923B10022184604F08F
:105504005BFF08BD084B03EB5103B3FBF1F14161B1
:10551400064A136843F080731360054A136843F026
:105524000103136008BD00BF0046C323FCED00E087
:10553400001000E010B50446006920B104F0D4FD69
:105544000023236109E0002194F8210005F0B0FB59
:10555400002194F8220005F0ABFB0023636110BD29
:1055640070B584B004460D46164601AB00F1240222
:1055740007CA83E807006A011946206A01F00EFC95
:10558400012805D1324601A9206A01F0AFFB00E0F1
:10559400002004B070BD00BF10B5044600F02CFE1E
:1055A400002384F8313084F8333010BD38B50D460B
:1055B4001446002200F12401006A01F097FB28B18F
:1055C40042892A8003892380012038BD002038BD08
:1055D40038B50D461446002200F12401006A01F09A
:1055E40085FB28B1C2892A8083892380012038BDA4
:1055F400002038BD38B590F831306BB90D460446FB
:105604003822002139F05AF9402384F831302562D8
:10561400012084F8330038BD002038BD70B506463B
:105624000C78202C01D10131FAE7116091600C78DB
:105634002F2C18BF002C0CBF0120002029D00131D1
:10564400222C18BF1F2C94BF012500251AD92F2CFA
:1056540018BF2A2C0CBF0125002513D03C2C18BFE1
:105664003A2C0CBF012500250CD0A4F13E05EDB267
:10567400012D06D97C2C18BF5C2C0CBF01250025FC
:1056840000E001258DB92E2C18BF202CCFD09160BD
:10569400CDE70C78202C01D02F2C01D10131F8E773
:1056A40019601146304601F041FA70BD2DE9F04F02
:1056B40083B0054690F8333013F0010F00F0E78013
:1056C4008A46164613F0400F06D190F8313013F095
:1056D400080F03D1002302E0012300E0012373B18A
:1056E400D5E9002312EB060843F10009D5E90401CA
:1056F400494508BF404504D2861A019602E0019646
:1057040000E00196002E00F0BF80D5E90023286A4E
:10571400D0F838741740C7F3080B2FBB13430AD1D2
:1057240095F8313013F0400F02D0D0F8343400E053
:10573400EB69AB6118E095F8333013F0400F03D0F8
:10574400AB690133AB610FE02A4652F8181F01F030
:10575400EBFA0028C0F29B8030B995F8313013F091
:10576400500F40F0918092E0286AAB69D0F82C4445
:10577400023B90F8452493401C447F0A3C44BBF10F
:10578400000F09D1B6F5007F09D3D0F81C329C4232
:1057940008D04FF0000907E04FF0010904E04FF092
:1057A400010901E04FF00109B9F1000F13D0CBF565
:1057B4000077BE4200D237460022214600F504702D
:1057C40003F05CFE0146002861D03A465944504635
:1057D40005F0B8FA4EE0B6F5806F35D3730A4FF092
:1057E400010808FA02F8C7EB0808434500D89846B0
:1057F4004FEA482700F5047BDBF80C309C4206D8BE
:1058040008EB0402934205D3CDF8009004E0CDF8F0
:10581400009001E001230093009B2BB1584603F054
:1058240005FE08B1CDF80090009B4BB9DBF80400ED
:105834000368D3F81490434652462146C84781462C
:10584400B9F1000F16D122E000F50471CB689C4237
:1058540007D14FF400721031504605F073FA01205D
:1058640005E0486803681B6952462146984770B1B1
:105874004FF40077BA44D5E90023D21943F1000369
:10588400C5E90023F61B3DE7019B981B07E095F84B
:10589400323043F0020385F832304FF0FF3003B06A
:1058A400BDE8F08FF0B583B00446D0E900678569A0
:1058B40001220DF10701FFF7F9FE012802D19DF83D
:1058C400070001E04FF0FF30C4E90067A56103B0B1
:1058D400F0BD00BF2DE9F84F0446856990F831C04A
:1058E400BCF1000F6FD016461F46D0E90001994263
:1058F40008BF90426BD056EA070302D10023A3618C
:105904005CE01CF0080F05D0D4E90423BB4208BFB7
:10591400B24258D316F1FF3247F1FF33D4F8209046
:1059240099F8458408F109085FFA88F8C8F1200A53
:10593400A8F1200E22FA08F203FA0AFA42EA0A024D
:1059440023FA0EFE42EA0E0E94F8333013F0400FA1
:1059540003D0E3697344A36130E010F1FF3241F1F5
:10596400FF33C8F1200BA8F1200A22FA08F803FA41
:105974000BFB48EA0B0823FA0AFA48EA0A0AD64556
:1059840002D350EA010308D11CF0400F02D0D9F829
:10599400343400E0E369A36101E0CAEB0E0E0EF1BA
:1059A400FF38BEF1000F09D004F11802A169206A82
:1059B40001F0BAF9C6460028F1DC04E0C4E9006746
:1059C4000120BDE8F88FA5610020BDE8F88F012013
:1059D400BDE8F88F2DE9F04F91B081460D4616468B
:1059E4009B4690F831303BB991F8313013F0500FA9
:1059F40005D04FF0000A04E04FF0010A01E04FF037
:105A0400010ABAF1000F40F0CB810BF00303012B24
:105A140008D0022B04D0002B40F0C281012302E005
:105A2400032300E002230BF00802134301936EB139
:105A340033690E33BE4FA7FB0337FF080237FFB2AB
:105A4400002200232846FFF745FF00E003274FF01C
:105A5400000844460AE04FF0000807E04FF0000851
:105A640004E04FF0000801E04FF00008202205A9EF
:105A74002846FFF71BFE002800F0DB80202840F0BA
:105A84008F819DF8143013F0800F0FD124B92A6848
:105A9400203A0E92AA690D92BC4201D20134E4B2BA
:105AA400002BD8D1002E40F0C48079E1B8F1000F6A
:105AB4002DD1BC4200D20024852BD7D1382200211D
:105AC400484638F0FBFE9DF8153089F83030BDF8B3
:105AD400183003F0370389F8313013F0100F03D175
:105AE40043F0080389F831302B6AC9F82030AB69D8
:105AF400C9F824302B68203BC9F8283095F8333096
:105B0400C3F3801389F82C304FF00108AEE7C02BA3
:105B140032D1019A89F833209DF8153013F0020F21
:105B240003D042F0400389F83330079BC9F81030A2
:105B3400089BC9F814300A9BC9F81C300B9BC9F8A0
:105B440008300C9BC9F80C3076B3336873600023BB
:105B5400B38132699DF817309A4206D1B38ABDF8F1
:105B640018209A4203D1534602E0012300E00123A6
:105B7400002B7FF473AF79E7C12B7FF472AF324609
:105B840005A9484600F046FF034600283FF46CAFE1
:105B9400B2892AB97168B268914202D0534600E0D2
:105BA4005346002B3FF462AF1BF4006F40F0F880C3
:105BB4001BF4884F04D199F8333013F0020F0FD03F
:105BC40099F8313013F0100F04D113F0010F03D101
:105BD400534602E0012300E00123002B40F0E08063
:105BE4001BF4806F14D099F8333013F0020F00F0D7
:105BF400D780002200234846FFF76CFE034618B105
:105C0400484600F065FD0346002B00F0C980CDE056
:105C14001BF4804F07D0D9E904234846FFF75AFE06
:105C240008B94FF0010ABAF1000F40F0B98001231E
:105C3400BCE01BF4007F00F0B380019B13F0020F63
:105C440000F0AE80002E00F0AB80BC421CD22022BB
:105C540005A92846FFF72AFD50B9D5F8188028462B
:105C640000F0FAFA002800F09B80C5F81880ECE7F1
:105C7400202840F0958024B92B68203B0E93AB6913
:105C84000D930134E4B2E0E795F83330C3F38013A5
:105C94008DF83C3038220021484638F00FFE2B6A3C
:105CA400C9F82030082389F8313009F1240310AAF7
:105CB40012E9070083E80700336873604FF00008B7
:105CC400A6F80C80B84566D2012241464846FFF743
:105CD40047FC0546002863D090F90030002B5FDBB9
:105CE4002022002138F0EAFDB8F1000F24D18523E9
:105CF4002B707B1EDBB289F830306B700D4B1B6848
:105D04007BB10DF10F020DF1120104A89847BDF803
:105D140010306B81BDF812302B819DF80F302B753C
:105D240034E045F221636B81EB816B822EE000BF8E
:105D340089888888508D0020B8F1010F0DD1C023C7
:105D44002B7001236B70019B63F07F0389F8333060
:105D54003369EB70B38AAB8018E0C1232B70002445
:105D64000E2C13D8B3892BB97268B3689A4203D046
:105D7400534602E0534600E001233BB9304603F0AA
:105D8400A5FBAB1C23F814000134E9E708F1010872
:105D94005FFA88F896E7484600F02EFA034605E0D5
:105DA400002089F8310089F833000346184611B001
:105DB400BDE8F08F2DE9F04196B006460C460192FD
:105DC400984600238DF851308DF852308DF85330B9
:105DD400ADF8143090F8313033B991F8313013F014
:105DE400500F03D0002302E0012300E00123002B25
:105DF4004CD1019B1B782F2B18D101E008AC15E086
:105E0400019B1A782F2A02D101330193F8E72AB9AA
:105E1400216A3046FFF7EEFB034638E0216A08A802
:105E2400FFF7E8FB03460028E8D130E001AB02AA03
:105E340001993046FFF7F2FB034640B3019B1B7800
:105E4400E3B1002302AA21463046FFF7C3FD03460F
:105E5400E8B1344608AF06F1300E3D46206861686B
:105E6400A268E3680FC510342F467445F5D1206845
:105E740028603046FFF790FB08ACD7E7434602AAF8
:105E840021463046FFF7A6FD034600E000231846EE
:105E940016B0BDE8F08100BF29B110B501F58961E4
:105EA400FFF788FF10BD0020704700BF38B590F899
:105EB400313073B991F8313013F0500F0BD0D1E970
:105EC400004504F01F04002554EA050305D100230E
:105ED40004E0012302E0012300E0012323B9134677
:105EE4000022FFF777FD38BD002038BD10B40478D8
:105EF400852C14BF0024012400221F2A11D8CB03AF
:105F040043EA5101835C13FA81F189B2012A14BF77
:105F1400002304F001030BB1032300E001231A441E
:105F2400EBE708465DF8044B704700BFF8B504463C
:105F3400006AA16901B10131012200F02BFE05467E
:105F440001283CD901231A460146206A00F078FE54
:105F54000746002838D0A36933B994F8333043F0A6
:105F6400400384F8333028E094F8332012F0400FD3
:105F740015D001339D4220D022F0400284F8332012
:105F8400E16900E03146A369994208D24E1C3246C9
:105F9400206A00F027FF0028F4D1074614E04FF0F0
:105FA400FF322946206A00F01DFF50B1A16921B1DA
:105FB4002A46206A00F016FF28B1A56104E00027F4
:105FC40002E0074600E007463846F8BDF8B590F809
:105FD400333013F0020F52D00546C16929B313F0D0
:105FE400400F1DD0D0E9026716F1FF3647F1FF37A5
:105FF400006A90F845240932D2B2C2F12004A2F119
:10600400200326FA02F207FA04F4224327FA03F3E0
:106014001A430023013200F013FE034628B931E08D
:10602400006A00F0FFFE034660B3002495F83030A8
:106034009C420CD8012221462846FFF791FA00B36E
:10604400037803F07F0303700134E4B2EEE7002326
:1060540085F8313085F833302C6A204603F0E6F9B0
:10606400034678B104F5047003F0E0F9034648B13F
:10607400D4F8400403681B6A9847034602E00023EF
:1060840000E000231846F8BD90F8313013F0100FEB
:1060940022D010B588B0044600220023FFF71AFC72
:1060A400202269462046FFF701FB40B1202815D184
:1060B4009DF8003013F0800F12D1002BF0D108238B
:1060C40084F8313094F8333043F0020384F83330E9
:1060D4002046FFF77BFF04E000207047002000E02B
:1060E400002008B010BD00BFF0B583B00646002400
:1060F400274696F830309C4256D800222146304636
:10610400FFF72EFA0546002869D00378C02B24D067
:10611400C12B41D0852B62D196F8313003F037037F
:106124008380344B1B6883B10DF103020DF106012A
:1061340001A898479DF803306B75BDF80620AA8125
:10614400BDF80430EB812A826B82326A92F81032F5
:1061540043F0010382F810321EE096F8333013F056
:10616400400F04D0437843F00203437003E04378C4
:1061740023F002034370D6E90423C5E90223F3693B
:106184006B61D6E90223C5E90623326A92F810321C
:1061940043F0010382F8103239462846FFF7A6FE81
:1061A40007460134E4B2A4E7012206F12401306A6F
:1061B40000F09CFD98B14780346A204603F036F91C
:1061C400034658B104F5047003F030F9034628B1CE
:1061D400D4F8400403681B6A9847034633B996F819
:1061E400323043F0010386F832300023184603B0FE
:1061F400F0BD00BF508D002038B590F831303BB36E
:10620400044690F8333013F0800F07D003F07F0377
:1062140080F83330FFF768FF03461AE0056A284622
:1062240003F004F9034658B105F5047003F0FEF8D1
:10623400034628B1D5F8400403681B6A984703460F
:106244003BB994F8322042F0010284F8322000E095
:106254000123184638BD00BF70B5054690F83130AB
:1062640013F0400F03D0006A00F0C4FE00E0806821
:106274002B6AD3F83C341844B0F1806F46D22846D8
:10628400FFF754FE0346002843D02A6AAB69D2F8CC
:106294002C14023B92F84564B340CE180024286ABB
:1062A40090F84524012393409C420DD20522A11964
:1062B40000F5047003F0E2F850B34FF400720021CB
:1062C40038F0FCFA0134EAE795F8313013F0400F66
:1062D40017D195F8333063F07F0385F83330D0F865
:1062E4003C14D5E90223521843F10003C5E9022303
:1062F400D0F83C14D5E90423521843F10003C5E94E
:1063040004232846FFF778FF034602E0002300E059
:106314000023184670BD00BF91F8313013F0500FC0
:106324001ED010B5044640F60223FFF753FB034684
:10633400C8B1102384F831302046FFF78DFF03469F
:1063440088B1A369E361002200232046FFF7C2FA63
:10635400C12384F833302046FFF74EFF034602E0A2
:10636400002318467047184610BD00BF2DE9F041C0
:1063740096B006460D46019298460023ADF84C307F
:106384008DF839308DF83A308DF83B3090F8313053
:1063940033B991F8313013F0500F03D0002302E0E9
:1063A400012300E00123002B4FD1019B1B782F2BED
:1063B40011D101E002AD0EE0019B1A782F2A02D11F
:1063C40001330193F8E7296A02A8FFF713F9044699
:1063D4000028EFD13CE001AB10AA01993046FFF749
:1063E4001DF90446A0B3019B1B783BB3002310AAFC
:1063F40029463046FFF7EEFA074650B9B8F1000FC8
:1064040006D010AA29463046FFF786FF00B13C4665
:10641400ECB9344602AF06F1300E3D46206861689F
:10642400A268E3680FC510342F467445F5D120687F
:1064340028603046FFF7B0F802ADCCE710AA294631
:106444003046FFF769FF044602E0002400E03C46C2
:10645400204616B0BDE8F081F0B59DB000238DF85C
:1064640069308DF86A308DF86B308DF831308DF8E5
:1064740032308DF8333090F8313013F0080F04D1F6
:1064840013F0100F03D1012302E0002300E00023E6
:10649400002B3DD1056A0C6AA5423AD1044640F668
:1064A40001230EA8FFF786FC034690B325466F46EA
:1064B40004F1300E3E4628686968AA68EB680FC686
:1064C400103537467545F5D12868306004F124034A
:1064D40017AA07CA83E807009DF8683084F83030AB
:1064E40094F8333063F07F0384F833302046FFF7A9
:1064F40083FE034668B10023079302238DF83330EB
:1065040008238DF831306846FFF760FD034600E04C
:10651400002318461DB0F0BD2DE9F04F83B09DF85F
:1065240030909DF834B09DF838809DF83CA090F8E8
:10653400314014F0080F1BD0A2F2BC74A4B27F2C1B
:1065440018D85C1EE4B20B2C16D809F1FF34E4B25F
:106554001E2C13D8B8F13B0F98BFBBF1170F8CBF9B
:10656400012500250BD8BAF13B0F08D9012506E017
:10657400012504E0012502E0012500E00125002DAC
:1065840040F09F801E4601920F460446FFF734FEFA
:10659400002800F09880019BA3F2BC7292B27F2A7B
:1065A40098BF0C2E0AD8B9F11F0F0AD8760146EA13
:1065B400422242EA09091FFA89F904E04FF000096E
:1065C40001E04FF00009BBF1170F98BFB8F13B0F82
:1065D4000BD8BAF13B0F0BD84FEA481848EACB283E
:1065E40048EA6A081FFA88F804E04FF0000801E05E
:1065F4004FF000081AF0010F02D04FF0640B01E0D5
:106604004FF0000B0026B24694F830309E423CD83E
:10661400002231462046FEF7A3FF0346002853D04C
:106624000278852A04D04FD3C03A012A25D94BE0F9
:1066340094F8312002F037028280216A91F8102206
:1066440042F0010281F8102217F0010F03D0A0F8E4
:106654001080A0F8129017F0020F05D083F814B040
:10666400A3F80880A3F80A9017F0040F05D083F864
:1066740015B0A3F80C80A3F80E9051461846FFF706
:1066840035FC82460136F6B2BEE7012204F124014C
:10669400206A00F02BFBB8B1A0F802A0246A2046BF
:1066A40002F0C4FE054678B104F5047002F0BEFEA3
:1066B400054648B1D4F8400403681B6A9847054668
:1066C40002E0002500E00546284603B0BDE8F08F4F
:1066D40090F8333013F0020F69D070B582B0C569F9
:1066E400002D67D0044613F0400F30D0D0E90201EA
:1066F40010F1FF3041F1FF31236A93F84524093248
:10670400D2B2C2F12006A2F1200320FA02F201FA69
:1067140006F6324321FA03F31A430132A3692BB17B
:10672400591C0191ED1A2A44013A02E00195002313
:10673400E3613AB100230199206A00F081FA18B9A3
:10674400012302E0002300E00023FBB134E081696F
:1067540091B102AA002342F8043D006A00F0E4FA71
:1067640000282BDB58B14FF0FF32A169206A00F0FA
:1067740039FB034618B922E001950023C36101994E
:1067840021B1206A00F04EFB0346C0B1D4E90023D6
:10679400C4E90223C4E9042394F8333063F07F038B
:1067A40084F833302046FFF727FD034607E0002333
:1067B40018467047012302E0002300E00023184636
:1067C40002B070BD2DE9F84F044690F8333013F051
:1067D400020F00F010818A46934613F0080F06D08A
:1067E400D0E90423FFF776F8002800F00481D846A6
:1067F400B8F1000F00F0E0802368206AD0F8385424
:106804001D40C5F30809002D3FD1A16989B394F84F
:10681400333013F0400F1DD0E669D4E9022312F19E
:10682400FF3243F1FF3390F845040930C0B2C0F1A0
:10683400200EA0F12007C24003FA0EFE42EA0E0227
:1068440023FA07F73A431644B1420BD20131A1614E
:10685400012308E004F1180200F066FA0346002858
:1068640001DAC8E0002383B92046FFF75FFB60B973
:10687400C1E0E36943B92046FFF758FB002800F064
:10688400BA80A369E36100E0A361206AA369D0F838
:106894002C24023B90F84564B34099186D0A2944AE
:1068A400B9F1000F04D1B8F5007F03D3002202E050
:1068B400012200E0012262B3C9F50075A84500D2A7
:1068C4004546B9F1000F09D1D4E90067D4E904239E
:1068D4009F4208BF964203D2012202E0012200E057
:1068E400052200F5047002F0C9FD002800F0838041
:1068F4002A465146484404F025FA206AA944B9F5C9
:10690400007F3FD100F5047002F090FD002839D1DA
:1069140071E0B8F5806F20D34FEA58270123B340C4
:106924005B1B9F4200D83B465D02D0F81C62B1421B
:1069340003D85F18BE4200D2012232B1002280F88F
:1069440010224FF0FF32C0F81C22D0F81402026863
:10695400966A5246B047A8B94DE0D0F81C32994225
:1069640006D1002380F810324FF0FF33C0F81C32F8
:10697400D0F8140203685B6A5246984700283AD05C
:106984004FF40075D4E90001401941F10001C4E954
:106994000001AA44C5EB0808D4E904238B4208BFCC
:1069A4008242BFF425AF94F8333063F07F0384F858
:1069B4003330C4E904011BE7D4E90001D4E902231C
:1069C4008B4208BF82420AD2C4E9020194F83330F0
:1069D40063F07F0384F833305846BDE8F88F0C4BDE
:1069E4001B688BB194F8333063F07F0384F8333041
:1069F4005846BDE8F88F94F8323043F0010384F828
:106A040032300020BDE8F88F5846BDE8F88F00BF4B
:106A1400508D00202DE9F8438946154600240E2C9C
:106A240021D809F1020333F81470AB892BB96A68D1
:106A3400AB689A4203D0002602E0002600E001265B
:106A44001EB1B7FA87F676090EE0284602F03EFD3D
:106A540002F018FE8046384602F014FE804503D149
:106A64000134E4B2DBE701263046BDE8F88300BF19
:106A74002DE9F84F884690F83130002B4FD08346EB
:106A840091460E464FF0020A00259BF830309A4595
:106A94003FD8002251465846FEF762FD07460028BB
:106AA4003DD00378C12B3AD100240E2C2CD8BB1C2A
:106AB40033F814007DB100F510539BB2B3F5806F29
:106AC4002DD2194B03EA8525C0F30900284300F5AC
:106AD400803000250BE000F520539BB2B3F5006F26
:106AE40001D3B0B103E0B3F5806F09D317E009F126
:106AF400FF324244314602F011FD064608B90EE069
:106B040005460134E4B2D0E70AF1010A5FFA8AFAD1
:106B1400BBE700233370C8EB0600BDE8F88F002004
:106B240088F80000BDE8F88F00FC0F0070B50D4632
:106B34000B684B6000248C810C61AB892BB96A68AB
:106B4400AB689A4203D0002602E0002600E001264A
:106B5400C6B9284602F0BAFC4FF6FF73984217D024
:106B640002F090FDE30343EA540353FA80F39BB22B
:106B7400DA0342EA530303EB2024A4B22B69013362
:106B84002B61DAE7AC822B69013BFE2B00D900268E
:106B9400304670BD2DE9F84F814692468B4609B1C7
:106BA4008F1E01E0D0F82074D9F830349F4200D30E
:106BB4000027C7F3C80607F00704012303FA04F407
:106BC400E4B2B8463D4600E00026D9F82C14002271
:106BD40001EB1531484602F051FC024648B3B6F5C4
:106BE400007FF1D214B30135935D1C420FD1C8EB81
:106BF400050353450CD1BBF1000F08BFBAF1010FD7
:106C040001D1C9F8208408F10200BDE8F88FA84634
:106C1400AF4211D0D9F830349D4202D26400E4B2BC
:106C2400E0E74FF400764FF00008454601360124B2
:106C3400D5E70020BDE8F88F0120BDE8F88F00BF3C
