:0200000460009A
:100000004643464200000156000000000103030081
:1000100000000000000000000000000000000000E0
:1000200000000000000000000000000000000000D0
:1000300000000000000000000000000000000000C0
:1000400000000000010408000000000000000000A3
:100050000000800000000000000000000000000020
:100060000000000000000000000000000000000090
:100070000000000000000000000000000000000080
:10008000EB04180A063204260000000000000000FD
:10009000050404240000000000000000000000002F
:1000A0000000000000000000000000000000000050
:1000B0000604000000000000000000000000000036
:1000C0000000000000000000000000000000000030
:1000D00020041808000000000000000000000000DC
:1000E0000000000000000000000000000000000010
:1000F0000000000000000000000000000000000000
:10010000D8041808000000000000000000000000F3
:100110000204180804200000000000000000000095
:1001200000000000000000000000000000000000CF
:10013000600400000000000000000000000000005B
:1001400000000000000000000000000000000000AF
:10015000000000000000000000000000000000009F
:10016000000000000000000000000000000000008F
:10017000000000000000000000000000000000007F
:10018000000000000000000000000000000000006F
:10019000000000000000000000000000000000005F
:1001A000000000000000000000000000000000004F
:1001B000000000000000000000000000000000003F
:1001C000000100000010000001000000000000001D
:1001D000000001000000000000000000000000001E
:1001E000000000000000000000000000000000000F
:1001F00000000000000000000000000000000000FF
:10020000FFFFFFFFFFFFFFFFFFFFFFFFFFFFFFFFFE
:10021000FFFFFFFFFFFFFFFFFFFFFFFFFFFFFFFFEE
:10100000D10020432914006000000000000000000F
:101010002010006000100060006805600000000003
:10102000000000600074050000000000FFFFFFFFEB
:10103000FFFFFFFFFFFFFFFFFFFFFFFFFFFFFFFFC0
:10104000FFFFFFFFFFFFFFFFFFFFFFFFFFFFFFFFB0
:10105000FFFFFFFFFFFFFFFFFFFFFFFFFFFFFFFFA0
:10106000FFFFFFFFFFFFFFFFFFFFFFFFFFFFFFFF90
:10140000884207D0904205D251F8043B40F8043B93
:101410008242F9D8704700BF884204D2002340F8C6
:10142000043B8142FBD87047664B4FF42A01664A61
:1014300066482DE9F0475A641864654A99639546F1
:10144000BFF34F8FBFF36F8F00F01EFA614B082080
:10145000614A6249C3F854016148FFF7D1FF614A0C
:1014600061496248FFF7CCFF61496248FFF7D4FF4A
:10147000614C62494FF470000023614A086044F8EF
:1014800023200133B02BFAD15E4B80215E4A03F852
:10149000011B9342FBD14F4D4FF080385B494FF019
:1014A000FF325B4B0026DFF8A4A1DFF8A4911C609B
:1014B000C5F80481C5F800A1C5F8F480C5F8F0901E
:1014C0000B68544F43F4E0230B60FB693D4923F064
:1014D0007F0343F04003FB617B6A23F07F0343F00B
:1014E00040037B628A66CA660A674A6700F0D2F9DF
:1014F000494A4A4B6320A2630321E363484A494BAC
:10150000106000F160401E6042F8041C00F6A170FB
:101510004549464AC3F8082D0B68454A43F0807395
:101520000B601368434943F00103136003680B60C9
:1015300000F000FCC5F804813F48C5F800A1C5F8DB
:10154000F480C5F8F09000F09FFDF96E3B4A41F43D
:1015500040513B4BF9661660C2F80861C2F8186149
:10156000C2F82861C2F838619A6BD20708D442F6F3
:101570001562344959651A659A6B42F001029A6303
:101580002F4A314C936843F00113936000F0F4F953
:1015900000F030FD00F068FD00F0FEFB00F076F991
:1015A0002368132BFCD900F085FC2368B3F5967FE4
:1015B000FBD300F06DF900F053FD00F061FD30BF8A
:1015C000FDE700BF00C00A40FFFFAFAA07002000F0
:1015D0000000032000800D4048A104009422006018
:1015E00000000000C0820020A2E304600000002090
:1015F00040A60020C08200200080002088ED00E08E
:10160000314C000000E400E0A0E400E024ED00E044
:1016100008ED00E000C00F40556100005961000076
:1016200014E000E018E000E0FCED00E00000202005
:10163000001000E06CA500200046C32300400840D5
:1016400000400D400000C05670A500201B1018205F
:101650000C0D11132DE9F041294F00254269012499
:10166000B96B4FF0020E16684FF4303821F47C014C
:101670000369DFF89CC041F48021B9633168576881
:10168000394331604FF001161E49C3F810E01D6167
:10169000C3F848C05C629962C3F82C809F6C1A49F9
:1016A0001F651D629E651C61037E184E02EB0315CB
:1016B0002C7A2B4601EB0414A46826602C7AED6882
:1016C00001EB0414646825601C690CB15B6923603C
:1016D000407E0E4C02EB001393F828001A4601EBF3
:1016E00000108068046093F82840D86A01EB041168
:1016F0004B681860136B0BB1526B1A60BDE8F08138
:1017000000C00F40B80B05059443002061F80100AC
:101710003B3728194369027E03EB0212F0B4147AB6
:101720008C4209D01A7AFF2A06D08A4228D01A7E23
:10173000FF2A01D08A4201D0F0BC704701252E4615
:1017400093E806000968114217D00F4A03EB06130D
:1017500005270E4E02EB041461680F60197A02EB44
:10176000011189680E601C7AD96802EB0412526874
:1017700011601A690AB15B6913600576F0BC7047A5
:1017800000252E46DCE700BF9443002061F80100ED
:1017900043690B4A03EB011010B4017A094C02EBC8
:1017A000011189680C60047AC16802EB0412526866
:1017B000116002690AB1436913605DF8044B704718
:1017C0009443002061F801004369427E03EB02125A
:1017D000F0B492F828408C420BD093F82820FF2ACE
:1017E00007D08A422BD093F83820FF2A01D08A42B2
:1017F00001D0F0BC704701252E4693E80600096829
:10180000114219D00F4A03EB061305270E4E02EBC7
:10181000041461680F6093F8281002EB01118968C5
:101820000E6093F82840D96A02EB041252681160E6
:101830001A6B0AB15B6B13604576F0BC70470025EC
:101840002E46DAE79443002061F8010043690C4A10
:1018500003EB011010B490F828100A4C02EB0111B0
:1018600089680C6090F82840C16A02EB0412526843
:101870001160026B0AB1436B13605DF8044B704753
:101880009443002061F80100704700BF704700BF1B
:10189000704700BFF0B5244A0020244B4FF0100CD5
:1018A000234C1126DFF8C8E0122720600125C2F87A
:1018B00000C0C3F800E01660DFF8B8E01D4EC3F8C2
:1018C00000E01D4917601E6041F015011B4F1C4EC2
:1018D00017601E601B4F1C4E17601E601B4F11606F
:1018E0001B4E1C491F6016601B4F19601B4E1C4984
:1018F00017601E601B4F11601B4E1C491F60166055
:1019000019602560BFF34F8FBFF36F8FC3F8B0012D
:10191000BFF34F8FBFF36F8F52F8883C43F44033CF
:1019200042F8883CF0BD00BF9CED00E0A0ED00E077
:1019300094ED00E00900100040A6002013002000F4
:1019400021000207140000202500081309000010E0
:101950001600202027000B1317000040330010133F
:10196000180000602F000B07190000702F000B13E8
:101970003F00001025000803F0B58D4B18228D4E56
:1019800001208D4948F20C7E8C4D4FF0FF378C4C76
:1019900083B0C3F85C12C3F860520025C3F8641228
:1019A000C3F868424FF40054C3F86C628549C3F829
:1019B0007062C3F87462C3F87862834EDA661A679D
:1019C0005A679A67DA67C3F88020C3F88420C3F89F
:1019D000882040F20562C1F82C03C1F83003C1F839
:1019E0003403C1F83803C1F83C03C1F85003294659
:1019F000B36976481840764B03437648B361D6F80E
:101A0000843043F00C03C6F8843002260368334365
:101A10000360036803EA0E0E6F4B4EEA0303DFF820
:101A2000F0E103606D4B4760DEF808703B406C4F9F
:101A300043F000538360C36823F07803C360036AF4
:101A40001F40684B3B43664F0362036A1F40654B70
:101A50003B43654F43628762C762DEF8B830634F2D
:101A600023F03F0343F00103C0F8B830DEF8BC3088
:101A7000DFF884E123F03F0343F00103C0F8BC30FA
:101A8000056104660767C0F8802044664767C0F8B0
:101A900084200468564B24F00204564A0460C0F8BF
:101AA00018E0C66143F8041B9342FBD1494B1A6806
:101AB000194642F001021A600B68464A13F001030E
:101AC000FAD14D4E022540F2F56440F2664040F2F4
:101AD00099414A4F966142F20146D56140F235453F
:101AE000C2F8004242F20124C2F810020120C2F8FA
:101AF00020121146C2F8307207F15A47C2F8346218
:101B000007F51377C2F840523D4E3E4DC2F8507271
:101B1000C2F85462C2F86052C2F86442C2F8A030FF
:101B2000C2F8A430C2F8B0004B692A4ADD07FBD5E1
:101B3000012300244FF4803011465361C2F8A040C5
:101B4000C2F8A400C2F8B0304B69224ADC07FBD5CA
:101B5000012300244FF4003011465361C2F8A04025
:101B6000C2F8A400C2F8B0304B691A4AD807FBD5B6
:101B700001230024244811465361C2F8A040C2F852
:101B8000A400C2F8B0304B69124ADB07FBD5D2F88B
:101B9000003145F60D5121209BB250618B4239D066
:101BA0001A4B00221A605A609A60DA6003B0F0BDE6
:101BB00000801F40F9700100F9B00100F910010028
:101BC000F900010000841F4000C00F40FFFCFF1F10
:101BD000000300A000402A401200FFFFFF37F7007B
:101BE00000FFF07C40000080FF000F8363000200D4
:101BF00000422A4000432A40F05AF05A9F0418300D
:101C0000063201263806180A04000300E4A5002065
:101C100000802A4000244FF4802001231146C2F89E
:101C2000A040C2F8A400C2F8B0304B693B4ADF07BD
:101C3000FBD501234FF40004002011465361C2F884
:101C4000A040C2F8A400C2F8B0304B69334ADE07A6
:101C5000FBD501234FF400044FF48030114653614B
:101C6000C2F8A040C2F8A400C2F8B0304B692B4AB9
:101C7000DD07FBD501234FF400044FF4003011467B
:101C80005361C2F8A040C2F8A400C2F8B0304B695A
:101C9000224ADC07FBD501234FF4000420481146FB
:101CA0005361C2F8A040C2F8A400C2F8B0304B693A
:101CB0001A4AD807FBD5D2F8003145F60D5121203C
:101CC0009BB250618B4210D0164B08224FF4000497
:101CD0001A7015490020154A01230090521A144821
:101CE000224400F0D5F903B0F0BD4FF400044FF4E6
:101CF000802101231046C2F8A040C2F8A410C2F807
:101D0000B03043690549DB07FBD50120054B1022A4
:101D10004FF0807448611A70DBE700BF00402A4032
:101D2000040003008DA5002000000070000000707A
:101D3000E4A50020F0B4174A40274FF480314FF457
:101D400080564FF400554FF4404443F2420013696B
:101D500013F0020F06D0946151619061136913F082
:101D6000020FF8D113F4005F01D15561EFE713F4CE
:101D7000805F01D15661EAE7002BE8DA13F4803F77
:101D800001D09161E3E75B0601D45761DFE7F0BC66
:101D9000704700BF00800D40394A03203949F3EEF7
:101DA000095A13689FED386A23F00103DFED376AA3
:101DB000F0B4136000241061D1F8E030344FD8B291
:101DC000C3F30B211B0D334E07EE100A05EE101A5C
:101DD00007EE903A304BB8EEC55A304DB8EEC77AA0
:101DE0003060F8EEE77A29602D4937EE466A2D4ECD
:101DF00077EEC57A2C4877EE666A2C4D37EE657A19
:101E000026EE276AC7ED007A66EEA76A176867EEC6
:101E1000277A83ED007AC6EE075A86EE876AC7EE08
:101E2000876A35EE857AFCEEC77A36EE057A17EECC
:101E3000903ABCEEC77A47EA035376EE857A136090
:101E400017EE103AD2F81071FCEEE77A01EA03417E
:101E5000394317EE903AC2F81011C3F30B03D2F8CE
:101E600010110B43C2F81031136843F002031360E2
:101E70003470C0F840510E4B0122F0BC1A6070471C
:101E800080810D4000441F400000AA420000B4427F
:101E900064A500205CA5002060A5002058A50020B6
:101EA0000000FF0F40E400E000800020314E000001
:101EB00008E100E0304B40F6617270B5C3F82021B4
:101EC00040F2044500F0D8F82C492D48D1F8802084
:101ED0002C4C42F003022C4BC1F88020C0F860511A
:101EE000226813401BB9D0F8A8319A071AD0244BA6
:101EF0004FF00041234A51631A46D3F8401141F094
:101F00000201C3F84011D2F840319B07FBD44FF4D3
:101F100000301E491B4B4FF00042086019209A63A5
:101F200000F0A6F81A4D0022164B4FF08041144CD9
:101F30000A26996328461A601146C4F8A8614FF42E
:101F4000207200F089F84FF4810640F243114FF4FB
:101F50008000104B104A2E602864C4F85851C4F811
:101F60004811C3F804220D4A4FF4003101231160D7
:101F7000C4F8403170BD00BF00800D4000C00F406C
:101F800000002E4000900D40001C1E008CE200E07E
:101F90000000002000800020FD4F00000CE100E068
:101FA00008B50E4B1B6E9B0700D4FBBE72B60C4BE4
:101FB00000200C4AC3F8400103F160430A49A3F52D
:101FC0005F2311649D46BFF34F8F084A03F5E0433A
:101FD00007491268184619609368984700441F40E3
:101FE00000002E4000C00A40030020001C0020001A
:101FF000000012EB114B1249D86E0A4640F44030F3
:1020000030B4D86640F23765D86EA02440F44070F2
:10201000D8664D648C64936C1B06FCD4094B40F26B
:102020003760A0211A4658649964936C13F08003BA
:10203000FBD1054A137030BC704700BF00C00F4091
:1020400000400C4000800C408CA50020F8B500BF7B
:10205000F8BC08BC9E4670475FF800F09DC50300C1
:102060005FF800F085BA03005FF800F02D4900002A
:102070005FF800F0554500005FF800F09D57000044
:102080005FF800F0854700005FF800F09142000023
:102090005FF800F0CD610000450000007D00000009
:1020A000D5080000B91D000031380000C509010045
:1020B000AD6E0100D9F70100190802000585020084
:0420C000898F020002
:1020C40080C00F4000000003190000001000000051
:1020D400E8841F4001000000FF000000FF00000032
:1020E40000000000000000001800000010000000C4
:1020F400E4841F4001000000FF000000FF00000016
:1021040000000000000000001F000000D10D0000CE
:1021140070C00F40000C000011000000110000000E
:10212400E0841F40020000002C00000012000000A8
:10213400E0841F40010000001000000011000000B6
:10214400DC841F40020000002D000000120000008B
:10215400DC841F40010000001E000000C50D0000CB
:1021640070C00F40C0000000120000001300000007
:10217400D0841F4001000000FF000000FF000000A9
:102184000000000000000000130000001300000025
:10219400CC841F4001000000FF000000FF0000008D
:1021A40000000000000000001C000000B90D000049
:1021B4000101010101010100160355005300420011
:1021C4002000530065007200690061006C0000008B
:1021D40018035400650065006E0073007900640004
:1021E400750069006E006F000403090409024B00C6
:1021F400020100C032080B000202020100090400BF
:10220400000102020100052400100105240101015E
:1022140004240206052406000107058203100010A9
:1022240009040100020A000000070503024000003F
:10223400070584024000000009024B00020100C0AF
:1022440032080B000202020100090400000102022C
:1022540001000524001001052401010104240206E3
:102264000524060001070582031000050904010086
:10227400020A0000000705030200020007058402A9
:10228400000200000A060002EF0201400100010002
:10229400000000000000000000000000000000003A
:1022A400000000000000000000000000000000002A
:1022B40010B5054C237833B9044B13B10448AFF37C
:1022C40000800123237010BD48840020000000001A
:1022D400948F0400084B10B51BB108490848AFF3AC
:1022E40000800848036803B910BD074B002BFBD0DE
:1022F400BDE81040184700BF000000004C840020D7
:10230400948F0400C08200200000000010B5054C2A
:10231400204606F011FB2046034A0449BDE810405C
:1023240006F0E4B804A30020D86D0020C5660000C0
:1023340010B50446044901F0C1F960222046772112
:1023440001F040FB204610BD2472002010B5044665
:1023540001F0E8F9204610BD38B50546234C0E219E
:10236400234805F0D1FE284601F090FB2046B7EE45
:10237400C00A022104F018F803211E4805F0C4FE27
:10238400204603F0ADFF0B211B4805F0BDFE284697
:1023940001F086FB2046B7EEC00A022104F004F8DF
:1023A4000321164805F0B0FE204603F099FF0B21E7
:1023B400134805F0A9FE28469FED120A01F0B0FC6F
:1023C4002046B7EEC00A022103F0EEFF02210E48B8
:1023D40005F09AFE204603F083FF204603F080FFB9
:1023E4004FF4FA60BDE8384004F0FCB9346E0020C4
:1023F40048470020584700205C47002068470020D9
:102404006C47002000507D447847002008B51E2109
:10241400034805F079FE0348BDE8084003F060BFB7
:102424007C470020346E002038B5044601F012FECB
:102434000023012204F1D8051946284602F082FA45
:1024440028464FF4165102F0EDFA41F2883004F0B8
:10245400C9F9204638BD00BF044B10B5044640F806
:10246400D83F02F0FFFA204610BD00BFBC2D00206B
:1024740038B504460A215E4805F046FE2378002B51
:1024840000F09D80204602F01FF90621594803F010
:102494008BFF0121584805F037FE204602F02EF943
:1024A4000621544803F080FF0D21544805F02CFE0A
:1024B40094F83830002B7DD004F13805284602F01A
:1024C4004BF900230A2201464A4803F021FF012167
:1024D4004B4805F019FE284602F052F90023014644
:1024E4000A22444803F014FF0121454805F00CFE7C
:1024F400284602F01DF901463E4803F049FF012138
:10250400404805F001FE94F84830002B49D0483487
:10251400204602F041F909285BD9204602F03CF933
:10252400002301460A22334803F0F2FE0121364813
:1025340005F0EAFD204602F03BF909284ED9204671
:1025440002F036F9002301460A222A4803F0E0FE8D
:1025540001212D4805F0D8FD204602F03FF9092855
:1025640041D9204602F03AF9002301460A222148C3
:1025740003F0CEFE0121254805F0C6FD204602F0F9
:1025840041F9092820D9204602F03CF900230146EC
:102594000A22184803F0BCFE1648BDE8384003F090
:1025A4009FBE07211A4805F0AFFD1248BDE8384028
:1025B40003F096BE0721164805F0A6FD9FE7072104
:1025C400134805F0A1FD6FE70121124805F09CFDB9
:1025D400D9E701210F4805F097FD9EE701210D4839
:1025E40005F092FDABE701210A4805F08DFDB8E73F
:1025F4009C470020346E0020A8470020B4470020E8
:10260400C4470020C047002058490020CC47002080
:10261400AC470020C84700202DE9F0410B4D80460F
:102624000F4600F1D8042E68204602F003F928B9B9
:102634002B689B1BBB42F7D3BDE8F081204602F018
:1026440007F9C1B2404601F0D5FFEDE770A50020BF
:1026540070B505460E4600F1D80406E002F0F8F81D
:10266400C1B2284601F0C6FFC0B9204602F0E2F824
:1026740000282046F2DC31462846FFF7CDFF094A00
:1026840041F2883312689A4207D9D5F8C830092B29
:1026940003D8BDE87040FFF7B9BE70BD2846FFF708
:1026A400E7FEE2E770A50020704700BFF0B500F137
:1026B4004C05144E87B00F460446334628224FF08B
:1026C400FF31284600F0FCFC33463946282201A895
:1026D40000F0F6FC049A9DF8143028469DF8087022
:1026E4002146039EA26584F85C3084F850706665C8
:1026F40000F0BEFC28460C2100F010FD204607B077
:10270400F0BD00BFE470002010B598B00446074B3C
:1027140028224FF0FF314C3000F0D2FC37216846BC
:10272400FFF7C4FF204618B010BD00BFE4700020BE
:102734008368012B10B504462DED068B4BD0032B7B
:102744004CD0022B4DD0042B4ED00B2B4FD00A2B48
:1027540050D0092B2ED004212B4805F0D5FC9FED39
:10276400288BB0EE489BB0EE48AB0421274805F017
:10277400CBFCB0EE4A0B0221254803F015FE0621DE
:10278400244805F0C1FCB0EE490B0221204803F0B7
:102794000BFE0621204805F0B7FCB0EE480B0221E1
:1027A4001B4803F001FE1A48BDEC068BBDE810403F
:1027B40003F096BD0821194805F0A6FC94ED05AA7E
:1027C40094ED069A94ED078AB7EECAAAB7EEC99AB1
:1027D400B7EEC88AC9E705211148EDE7072111487A
:1027E400EAE704211048E7E705211048E4E704215B
:1027F4000F48E1E707210F48DEE700BFAFF3008091
:102804000000000080842EC1D8480020E048002049
:10281400346E0020E8480020F0480020CC48002016
:102824009C480020A4480020AC480020B448002064
:10283400BC480020C4480020F0B500F14C04BBB0F3
:102844000E461A2204A9204600F016FE0DA91422F1
:10285400204600F011FE16A92822204600F00CFEA6
:102864001FA90E22204600F007FE28A908222046B0
:1028740000F002FE2E2231A9204600F0FDFD04A83E
:10288400FFF756FF0DA8FFF753FF16A8FFF750FFF9
:102894001FA8FFF74DFF28A8FFF74AFF31A8FFF74D
:1028A40047FF204600F018FD07462D48002503F099
:1028B40017FD0D212B4805F027FC3946284803F065
:1028C40067FD274803F00CFD0DF10F020DF10E0317
:1028D40003A9204600920DF10D028DF80F5000F06F
:1028E400CBFC1F4803F0FCFC11211F4805F00CFC35
:1028F4002B460A229DF80C10194803F009FD062105
:102904001A4805F001FC2B460A229DF80D101448C4
:1029140003F0FEFC0721164805F0F6FB2B460A22BD
:102924009DF80E100E4803F0F3FC0521114805F044
:10293400EBFB2B460A229DF80F10094803F0E8FC34
:10294400074803F0CDFC02210B4805F0DDFB0448E9
:1029540003F0C6FC16B1642003F044FF3BB0F0BDA5
:10296400346E0020F8480020084900201C4900204B
:10297400244900202C490020344900202DE9F0414D
:102984000646C0B0FFF7C0FE06F1600806F5AE7457
:1029940001AF35464046FFF747FD2046FFF7C8FC28
:1029A40001A8FFF7B1FE0DF12C0E0FCF0FC50FCF0D
:1029B4000FC597E8030006F1280785E80300BEE881
:1029C4000F000FC7BEE80F000FC7179B01A8DEF862
:1029D4000010169A9DF854E09DF86050396086F80E
:1029E40050E0B365726586F85C50FFF71DFD01A9E0
:1029F4004046D82204F016F89DF8E0E0399B01A87F
:102A04003D993E9A9DF8FCC03C9D9DF8E8803B9F13
:102A140086F83CE1C6F840319DF8FDE09DF8FE30B3
:102A2400C6F85011C6F8542186F858C186F859E101
:102A340086F85A31C6F84C5101AD86F84481C6F87F
:102A44004871FFF709FD01A8FFF772FC0FCD0FC411
:102A54000FCD0FC40FCD0FC495E80F0084E80F000D
:102A640001A8FFF773FC304640B0BDE8F08100BF19
:102A740010B5044600F5AE70FFF768FC04F1600081
:102A8400FFF7EAFC204610BD704700BF6030704776
:102A940000F5AE70704700BF2DE9F8431D4D0121CC
:102AA4000D201D4C03F076FF1C4F2E6840F2EE28DB
:102AB400DFF87C9004E0B3F5FA6F15D805F0AAFBB3
:102AC40005F0A8FB237843B13B78DB0705D52B68D9
:102AD400D9F800209B1A0E2B06D82B6822789B1B52
:102AE400002AE8D14345E9D941F2883003F07AFE5F
:102AF4000B48FFF7C9FF0B4B18600948FFF7C6FFE7
:102B0400094B18600648FFF7C3FF084B1860BDE87F
:102B1400F88300BF70A5002095A5002094A500208F
:102B2400B8A3002074A3002070A300205CA300209D
:102B3400F4A5002008B5084B01211868FFF77CFEB6
:102B4400064B4FF47A711868FFF782FD044B18683E
:102B5400BDE80840FFF700BC74A3002070A3002068
:102B64005CA3002010B5054C2046FFF707FF204664
:102B7400034A0449BDE8104005F0B8BCB8A30020DE
:102B8400D86D0020E10700000020704790F8A320D2
:102B940090F8A200101A704790F8A23090F8A32081
:102BA4009A4205D95A1C034480F8A220987E7047A3
:102BB4004FF0FF30704700BF90F8A23090F8A32088
:102BC4009A4202D90344987E70474FF0FF30704711
:102BD400704700BFB0F8303193B190F82F31882B93
:102BE4000BD8C21810B45C1C012380F82F4118467E
:102BF40082F8A5105DF8044B70470122002302718E
:102C04001846704738B50546B0F8300190B195F8CC
:102C14002F311446C3F1890294420CD805F1A50062
:102C24002246184403F0FEFE95F82F3120461C443A
:102C340085F82F4138BD144601222A71EEE700BF02
:102C44002DE9F04F8346404883B01525DBF814A0E6
:102C54009BF818609BF819300AEB06163B490AEBFF
:102C64000313DFF8ECE0367A0C4693F8283036018B
:102C7400DFF8E0901B01871950F8068000EB030C85
:102C8400C658F8687B68DCF80C7000931D60C8F8BF
:102C94008400D8F80430DCF8042003430192C8F817
:102CA40004301560C6F8847073683B437360096828
:102CB400DEF80030A9FB0332920C02EB82025200D0
:102CC40023685B1A9A42FBD8204A0925DFF884C09E
:102CD4009146D8F80830184202D0B3681F4231D167
:102CE400C6F888701468DEF80010ACFB0131890C5A
:102CF40001EB810113681B1B9942FBD8C6F8847051
:102D0400D9F80040DEF80010ACFB0131890C01EB6E
:102D1400810113681B1B9942FBD8013DD9D1284678
:102D24009BF81830009A0AEB0313DB6813609BF8D6
:102D34001930019A0AEB031ADAF82C30136003B045
:102D4400BDE8F08F0120EBE794430020041000E07D
:102D5400E06D002083DE1B430D49026910B50C6849
:102D640005E0DB0107D40B681B1B102B08D8536943
:102D740013F0007FF5D14FF4FE430120536110BDE1
:102D84000446FFF75DFF0028F9D02269F3E700BF8E
:102D940070A500202DE9F04790F82FA1BAF1000F9B
:102DA40002D10420BDE8F08705460E46FFF7D4FFA4
:102DB4000028F6D02E4F00244FF40079D7F8008075
:102DC400544529691AD8CB6D03F00703032B09D99D
:102DD40014E095F8A5200133012442F48062042B09
:102DE4000A660BD02A19002CF3D0A24527D9013347
:102DF40092F8A5200134042B0A66F3D14B69180517
:102E040022D45A0527D4980404D43A68C8EB0202A1
:102E1400322A09D90B694FF40072042043F4407339
:102E24000B610A66BDE8F087544505D9CA6D52079F
:102E340002D19B0519D4C6B105F0ECF9C0E70EB177
:102E4400C1F860900134D9E70B69042043F440735E
:102E54000B61BDE8F0870B694FF40072022043F464
:102E640040730B610A66BDE8F0870020BDE8F08777
:102E740070A500202DE9F84F0C461546984681466A
:102E8400FFF76AFF10B90420BDE8F88F0022630041
:102E9400002D40F2014A1446DBB23D4E08BF012525
:102EA400022C43EA0A0AD6F800B089F8A22089F86D
:102EB400A32048D9D9F8103099F8A320872A12D82A
:102EC400D96DC1F3024111B90DE0882A0BD002F18A
:102ED400010E09EB020001395FFA8EF289F8A32092
:102EE4001F6F8776F1D15A6910054CD412F4105F24
:102EF40004D13168CBEB0101322912D91A694FF49C
:102F0400007142F440721A611966DA6D12F4E02F0E
:102F140003D01A6942F400721A6199F8A300BDE85B
:102F2400F88F99F8A310A94209D3022C07D9D96DB7
:102F3400490704D19205E8D4B8F1000FE5D005F0B3
:102F440069F9022CB6D8D9F81020D36D03F0070321
:102F5400032B0DD8691E4FF4007041F480714CB9F5
:102F6400C2F860A0013B0134032B01D8022CF6D92E
:102F74001346A1E7012C04D0B8F1000FF2D010667B
:102F8400F0E71166EEE71A6942F440721A61BCE791
:102F940070A50020036970B5D3F81451044615F4E4
:102FA400706201D0C3F81421AE070BD5D3F87011A9
:102FB400080442D50022012084F8A220224484F887
:102FC400A3009176EA0710D594F8306116B394F80B
:102FD4002E6194F82F21B2422BD9721C264484F816
:102FE4002E2196F8A520C3F86021AB0511D594F8DD
:102FF400A30018B1D4F83C3103B19847002384F8F6
:10300400A23084F8A33084F82E3184F82F3184F868
:10301400303170BDD4F838210AB1904723690122B8
:10302400002184F8302194F82F2184F82E11B24223
:10303400D3D80022C3F86021D7E794F8A320872AC5
:10304400C0D8501CC0B2B9E70148FFF7A3BF00BF06
:10305400E47000200148FFF79DBF00BF24720020E8
:103064000148FFF797BF00BF64730020704700BF9B
:1030740070B50C46054628220021204601263BF067
:10308400D5FB0B22084920463DF0E0FA002200233C
:103094000320E2720549ED68E660256162626061C1
:1030A4002162A361E36170BD744900200AD7233C07
:1030B40010B50446142103F057FD204610BD00BF8F
:1030C400F8B504460025084816461F46E16020600E
:1030D4001020A56003F040FD05463A46314630F025
:1030E40025FDA5602046F8BDE02D002030B5024640
:1030F40085B00C4600213D2580680123147402220A
:103104000191009103A98DF80D408DF80C5030F019
:1031140043FD1E2003F066FB05B030BD2DE9F047EA
:103124000646884684B000218068552430F024FD8A
:1031340004E00A2003F056FB013C2CD00121B068C6
:1031440030F01AFD05460028F3D004AC4FF0000916
:103154000127B068CDF804903A4604F8049D00971E
:103164002346214630F0AAFD9DF80C30A02B17D041
:103174004FF47A7003F036FBB0682346CDF8049020
:103184003A46009721468DF80C9030F097FD9DF853
:103194000C30A02B04D00025284604B0BDE8F087ED
:1031A40000213046FFF7A2FF00273F214FF0200EF9
:1031B4000123B0688DF80C10022201972146009774
:1031C40099468DF80DE030F0E7FC1E2003F00AFB71
:1031D400B068234601970122CDF8009021468DF86E
:1031E4000C7030F06BFD9DF80C304FF0000A0A2093
:1031F400A02BEBD13E27322003F0F4FAB06821462D
:10320400012302228DF80C70CDF804A00727CDF815
:1032140000A08DF80DA030F0BFFC0A2003F0E2FA04
:10322400B06821468DF80C70CDF804A00123CDF8C8
:1032340000A002223F278DF80DA030F0ADFC012341
:103244000222B0682146CDF804A0CDF800A08DF884
:103254000DA08DF80C7030F09FFC0A2003F0C2FA28
:1032640041463046FFF742FF142003F0BBFA2846DC
:1032740004B0BDE8F08700BF2DE9F04184B04FF001
:10328400350C4FF0000E012504AC884680681746C3
:1032940004F804CD1E4621462346CDF804E02A4610
:1032A40000950A9C30F00AFD9DF80C30B8F1000F2F
:1032B40002D09A0988F8002017B1C3F301123A70BA
:1032C40016B1C3F38102327014B103F00303237007
:1032D40004B0BDE8F08100BF10B584B001223421F0
:1032E400002404AB806803F8041D19468DE814001B
:1032F40030F0E4FC9DF90C0004B010BD00000000A7
:10330400F0B587B000251646062706AA0560456075
:1033140004AB02F80C6D04468560083EC560056187
:103324004561886811460195012200970495ADF81E
:10333400145030F0C3FC9DF810309DF811009DF836
:10334400135043EA00209DF812109DF815209DF8B3
:10335400143041EA052100B243EA022309B21BB248
:10336400262E2FD8DFE806F0142E2E2E2E2E312EE8
:103374002E2E2E2E312E2E2E2E2E312E2E2E2E2E63
:103384002E2E2E2E2E2E2E2E142E2E2E2E2E1400BB
:1033940007EE900AB8EEE75B07EE901AB8EEE76B1B
:1033A40007EE903A9FED184BB8EEE77B85EE043BB1
:1033B40086EE045B87EE046B84ED003B84ED025BD8
:1033C40084ED046B204607B0F0BD07EE900A20465A
:1033D400B8EEE75B07EE901AB8EEE76B07EE903AAB
:1033E4009FED0B4BB8EEE77B25EE045B26EE046BFA
:1033F40027EE047B84ED005B84ED026B84ED047B9B
:1034040007B0F0BDAFF30080000000000000594099
:10341400000000000000B03FF0B50C46242587B042
:1034240006462A460021204603273BF0FFF9104BAD
:10343400F06831461B681A22606068462560A76000
:103444002361FFF75DFF01209DED005B9DED026BA5
:103454009DED047BB7EEC55BB7EEC66BB7EEC77BDD
:1034640084ED055A84ED066A84ED077A07B0F0BD51
:1034740070A5002000000000F0B524268DB00C4695
:10348400074615460846324600213BF0CFF95A4A12
:103494000023F9681268282D266061602261019377
:1034A400009302930393049305933AD0082D4FD0CD
:1034B4002E2D64D01A2D00F08A80142D04D00E2DE8
:1034C40074D001200DB0F0BD04232A46394606A865
:1034D400A3600CADFFF714FF06AB6A46F3E80201E4
:1034E400AB42E2E80201F9D19FED414B9DED005B57
:1034F4009DED026B9DED047B25EE045B26EE046BD3
:1035040027EE047B0120B7EEC55BB7EEC66BB7EEC2
:10351400C77B84ED055A84ED066A84ED077A0DB005
:10352400F0BD0A232A46394606A8A3600CADFFF76E
:10353400E7FE06AB6A46F3E80201AB42E2E80201A9
:10354400F9D19DED005B9DED026B9DED047BD9E708
:1035540001232A46394606A8A3600CADFFF7D0FE26
:1035640006AB6A46F3E802019D42E2E80201F9D1A2
:103574009DED005B9DED026B9DED047BC2E709238D
:103584002A46394606A8A3600CADFFF7B9FE06AB80
:103594006A46F3E80201AB42E2E80201F9D19DED8B
:1035A400005B9DED026B9DED047BABE702232A4695
:1035B400394606A8A3600CADFFF7A2FE06AA6B4627
:1035C400F2E80201AA42E3E80201F9D1B9E70323D0
:1035D4002A46394606A8A3600CADFFF791FE06AB58
:1035E4006A46F3E80201AB42E2E80201F9D1A8E736
:1035F400000000A046DF913F70A50020704700BF87
:10360400704700BF10B50446102103F0ADFA204600
:1036140010BD00BF10B50446102103F0A5FA2046E2
:1036240010BD00BFF8B50C460646282200212046EE
:1036340001273BF0FBF80B22094920463DF006F830
:1036440000230D250748E3720749B668074AE76077
:10365400266163626561E061A1612262F8BD00BF19
:103664007C490020000020C20000AA420AD7233C63
:10367400F8B50C46064628220021204601273BF0D7
:10368400D5F80B22094920463CF0E0FF002306252B
:103694000748E3720749B668074AE7602661636230
:1036A4006561E061A1612262F8BD00BF7C49002030
:1036B4000000964300808944A69B443C38B50446E8
:1036C4000025102094F8382094F83C3002F0800251
:1036D400216003F0C003656065F3C712A56065F35C
:1036E4008713E56084F8382084F83C302561A561AF
:1036F40003F032FA094903464FF48C72E06010205B
:10370400DC6019609A6003F027FA054A03462046F4
:103714009D60DC6023611A6038BD00BF942E0020D8
:10372400B02E002038B58568044635B1284630F0FF
:10373400DFFA2846142103F017FA606810B110214B
:1037440003F012FAE06848B103685B68984720699F
:1037540010B103685B689847204638BD206900288B
:10376400F7D1F9E730B5436885B08DF80D206BB11A
:1037740004AC00251846022204F8041D0123214646
:103784000195009530F008FA05B030BD01F07F02D4
:1037940004A98068009301F8042D022230F080FC13
:1037A40005B030BD30B5446885B074B104AB0122B6
:1037B4000025204603F8041D19468DE8240030F046
:1037C4007DFA9DF80C0005B030BD04AB012261F018
:1037D4007F01FF24806803F8041D19468DE8140056
:1037E40030F094FC9DF80C0005B030BD426830B553
:1037F40085B09AB104AB00250224104603F8041DD9
:10380400012219468DE8300030F058FA9DF80C007A
:103814009DF80D3043EA002005B030BD04AB61F0E3
:103824007F01FF25022403F8041D01228068194644
:103834008DE8300030F06AFCE8E700BF426830B53C
:1038440085B0BAB104AB00250324104603F8041D67
:10385400012219468DE8300030F030FA9DF80D3021
:103864009DF80C201B029DF80E0043EA0243184306
:1038740005B030BD04AB61F07F01FF25032403F8DC
:10388400041D0122806819468DE8300030F03EFCAA
:10389400E4E700BF38B50446FA21FFF7CFFFDFEDB8
:1038A400117A218CB4F92420C1EB2023B4F92250DD
:1038B400490003FB03F3C1EBE0101B1305FB00F00D
:1038C40002FB03F39B1303EBE02000EB8003E061B6
:1038D40080331B1200EE103AB8EEC00A80EE270ABD
:1038E40038BD00BF0000C84270B50C46242506460A
:1038F40000212A4620463AF099FFF0680A4B0D2130
:10390400B6681A688369A160226184E860002BB9F3
:103914009FED060A012084ED050A70BDFFF7BAFF8A
:10392400012084ED050A70BD70A500200000C07F51
:1039340010B588210446FFF759FF43BA8A2120466F
:103944002384FFF753FF43BA8C2120466384FFF797
:103954004DFF43BA8E212046A384FFF747FF43BAA5
:1039640090212046E384FFF741FF43BA9221204689
:103974002385FFF73BFF43BA942120466385FFF775
:1039840035FF43BA96212046A385FFF72FFF43BA9C
:1039940098212046E385FFF729FF43BA9A21204660
:1039A4002386FFF723FF43BA9C2120466386FFF753
:1039B4001DFF43BA9E212046A386FFF717FF40BA96
:1039C400E08610BDF8B504468068154698B130F01D
:1039D40099F970B1D0212046FFF7E4FE01462A4848
:1039E400A16102F0D5FC284802F07AFCA369AB423D
:1039F40017D00020F8BD60680E4610B1102103F006
:103A0400B3F8102003F0A8F807463146226830F0D6
:103A14008DF867603846012130F0AEF80028D9D11E
:103A2400E7E72046FFF784FFA36923B9642002F087
:103A3400D9FE0120F8BD94F83C30052594F83820CF
:103A4400204663F03F03F52102F0C70265F3020349
:103A54006FF3020265F3C50384F83820C2F3C01281
:103A640084F83C30FFF77EFE94F83C202046F42195
:103A7400C2F3C20302F007049B0043EA441343EA7F
:103A84009212FFF76FFED1E7346E0020836913B9F9
:103A94009FED020A7047FFF7FDBE00BF0000C07F24
:103AA4008369002B00F010812DE9F04F064687B0A2
:103AB400FFF7F0FEF7213046FFF7C0FEF469B6F9D0
:103AC4002820E517B4F5FA34B6F92AA04FEAE273D0
:103AD40045F1FF35A4FB04784FEAEA7B059004FB2B
:103AE40005FE02FB05FCCDE9007808EB4E0704FB5C
:103AF40003CCA2FB042301976344DDE900891F037F
:103B04000AFB09FE130347EA1257F28C08FB0BEE7B
:103B1400AAFB08AB98460023F3444FEA1A2040EA74
:103B24000B604FEA2B2118EB000ACDE9022347EB87
:103B3400010B1AF10000DDE902894BF50041A0FBFD
:103B440008AB08FB01BB4FEA6B024FEAEB7352EA86
:103B5400030100F0B480B6F92EA005994FEAEA7B80
:103B64000AFB05FE0F11AAFB040104FB0BEEB6F9D8
:103B74003040C7F580174FEA404AE5177144CDE954
:103B84000245DDE90089029D4FEA414BB6F92C401C
:103B940005FB09FE039D4BEAD03B08FB05E1029DB2
:103BA400F807A5FB0889E5178944F91718EB0A08F3
:103BB400CDE902450D4602994FF0000449EB0B098B
:103BC400C90000940191E907DDE9004541EA570184
:103BD40014EB080445EB0905001B61EB050104180F
:103BE40041EB010524184D414FEA841A4FEA851B25
:103BF4001AEB040A4BEA946B4BEB050B4FEA8A056C
:103C04004FEA8B0444EA9A7415EB000A44EB010B67
:103C14004FEA8A054FEA8B04401944EA9A746141D9
:103C240037F010FFB6F936204FEA613CB6F934405C
:103C34004FEA503EB6F932A002FB0CF7D3174EEA16
:103C4400C14E04FB01F6E5170EFB03774FEAEA7B4E
:103C5400A2FB0E2300FB05663B4402FB0CFCA4FB09
:103C640000450EFB03CCA2FB0E2335444FEAD44897
:103C74006344560E48EA453846EAC3165F1680196F
:103C84004FEAE5494FEA0A12794110EB08004FEA7E
:103C94000B1341EB0901040A43EA1A7344EA016471
:103CA4000D12101943EB050137F08EFE9FED080A43
:103CB40007EE900A27EE800A07B0BDE8F08F9FED6B
:103CC400050A07B0BDE8F08F9FED030A704700BFF7
:103CD4000000803B000000000000C07F70B50C466F
:103CE400242605460021324620463AF09FFD094B22
:103CF400A96806221B68E86826606160A2602361E7
:103D0400FFF7CEFEDFED047A012080EE270A84ED72
:103D1400050A70BD70A500200000C8420000000024
:103D240008B52DED028BB0EE408AFFF7B9FEDFED4A
:103D3400107A80EE270A9FED0A1BC0EE087AB7EED0
:103D4400E70A36F065FEB7EE007B9FED076B37EEB2
:103D5400400BBDEC028B20EE060BB7EEC00B08BD8A
:103D640000000020C05BC83F0000000040A5E54003
:103D74000000C842704700BF10B582B00468012239
:103D840002AB03F8011D19466368984702B010BDE1
:103D9400704700BFF8B54FF47A720F4BDFF840E07C
:103DA400072182600A26022203600C4F00230925A2
:103DB4000446C0F810E0416119468761C661056296
:103DC4004262037103738362C36203634363836365
:103DD40002F0A4FB2046F8BD60300020E46D002012
:103DE40000127A00F8B504460E46007F00211546FD
:103DF40002F0C4FDA369D4F810E0DA7C6069002AFB
:103E040000F08B8072B6DA7CD70706D552495A691E
:103E14000F683A409A620A60DA7C910706D54F49E6
:103E24009A690F683A40DA620A60DA7C570706D565
:103E34004B49DA690F683A401A630A60DA7C110761
:103E440006D548491A6A0F683A405A630A60DA7C10
:103E5400D7066AD462B69A68A769724561D0424AA5
:103E6400C3F808E092694149C2F3011CC2F38262BB
:103E740051F82C100132B1FBF2F2BEF1000F52D016
:103E8400B2FBFEF141B1B2FBF1F2724588BF0131E0
:103E9400B1F5817F50D33649D9601A684FF0000CD0
:103EA40003234FF0010EC2F810C053623B68116443
:103EB4001066C2F810E05E66D96D11F4F81FFBD0ED
:103EC4005A6F5D66DA6D12F4F81FFBD05D6FFB7CF0
:103ED400EDB2E3B1DE0703D5264BBA6A1A60FB7C68
:103EE400980703D5244BFA6A1A60FB7C590703D55B
:103EF400224B3A6B1A60FB7C1A0703D5204B7A6B72
:103F04001A60FB7CDB0602D5BA6B1E4B1A60207F5D
:103F1400012102F033FD2846F8BD9A681F46724518
:103F24009DD1D968B9E71146ACE717495A6A0F68B9
:103F34003A409A630A608DE702290AD902394FEAA6
:103F4400510E4FEA0E4241EA0E2102F47F02114360
:103F5400A2E70021A0E700BF80E100E084E100E0E7
:103F640088E100E08CE100E000C00F4074400020D4
:103F7400FF7F7F0000E100E004E100E008E100E0F1
:103F84000CE100E010E100E090E100E010B504462F
:103F940000221321FFF726FFE36AC01A10BD00BFF9
:103FA400036810B51B690446984740B1E36A0022D0
:103FB400204601331146E362FFF714FF10BD4FF0B2
:103FC400FF3010BD2DE9F04117460C460022222196
:103FD4000546FFF707FF00EB0708B8F1FF0F03D909
:103FE400C0F1FF0700EB070847B1E61914F8012BED
:103FF40080212846FFF7F6FEB442F7D15FFA88F233
:104004002846A221FFF7EEFE3846BDE8F08100BF46
:10401400036870B51B690446984790B100220D21CE
:104024002046FFF7DFFE0022064620461146FFF732
:10403400D9FE0546324620468D21FFF7D3FE284699
:1040440070BD4FF0FF3070BD0148FFF7A3BE00BF45
:104054006484002000220221027042708280826007
:1040640002730282426102768283026280F8242013
:104074000285C26280F8302080F8382080F8392028
:10408400C26380F8482080F84920C26480F8582030
:1040940080F85920026680F8682080F86920026759
:1040A40080F8782080F87920C0F8802080F8882073
:1040B40080F88920C0F8902080F8982080F8992012
:1040C400C0F8A02080F8A82080F8A92080F8BA20A1
:1040D40080F8BB2080F8BC20C0F8C020C0F8C42001
:1040E400C0F8C820C0F8CC20C0F8D020C0F8D42034
:1040F40080F8AA2080F8B910704700BF38B5057859
:1041040004462D2D08BF0134204638F0E5FD237800
:104114006422A3F1300102FB00F0092905D814F848
:10412400013FA3F13002092AF9D92E2B03D02D2DFA
:1041340008BF404238BD6378303B092BF7D8A278DA
:1041440003EB8303303A00EB4300092A98BF80183D
:104154002D2D08BF404238BD70B50D46044638F0D9
:10416400BBFD1B4B64261B4AA3FB00135909298082
:10417400237806FB1100A3F1300102FB00F00929AA
:1041840005D814F8013FA3F13002092AF9D92E2BDE
:104194000AD000EB800000220F4B01302A72A3FBEF
:1041A40000235B086B6070BD61780134A1F13002BB
:1041B400092AEED8074B094EA6FB031314F8011F76
:1041C400DB0803FB0200A1F13002092AF4D9E0E77D
:1041D4001F85EB5180969800ABAAAAAACDCCCCCC73
:1041E4002DE9F04190F8A96004463EB390F8AA3056
:1041F400A3F14102052A7FD9A3F16102052A94BFE4
:10420400A3F15702A3F1300294F8AB301201A3F1E9
:104214004101D2B2052900F29780373B134494F848
:10422400A820DBB29A4200F09C80D4F8D03000265B
:104234000133C4F8D0303046BDE8F08190F8BA308C
:104244001BBB00F1AA07B24938463AF0E5FE002844
:1042540040F0BF80012384F8B930D4F8C050C4F8CA
:10426400C4502DB9E7E72D6BC4F8C450002DE2D03B
:104274003946A86A3AF0D0FE0028F4DBDBD00023EC
:104284003046C4F8C430BDE8F08190F8B920022A61
:104294003AD090F8AA10B9B343EA4213013B282B51
:1042A40032D8DFE813F053014D0145013F012D01E0
:1042B40026012C0020011A013100310031003100A7
:1042C4003100310031003100310031003100310062
:1042D4003100310031003100310031003100310052
:1042E400310031003100530112014D0145013F01FC
:1042F4002D010D0108010301A3F1370284E7AA305F
:1043040038F0EAFCC4F89400D4F8C450002D92D0DC
:104314002B4604F1AA0704E02D6B002D8BD0D4F8B2
:10432400C430996AA86A3AF077FE002883D1EA6A11
:1043340094F8BA309A423FF77EAFEDD11022394655
:1043440028463CF083F9E7E7A3F16101052994BF0E
:10435400573B303B134494F8A820DBB29A427FF4D5
:1043640064AFD4F8D43094F8BC200133C4F8D4300A
:10437400002A45D0D4F8CC2094F8B9300132C4F8DE
:10438400CC20002B00F0E780012B52D0D4F8C4508D
:10439400002D3FF450AF2B46DFF88481012710E055
:1043A40005F110003AF0A4FFD8F8003085F8257024
:1043B40085F824702B622D6B002D3FF43CAFD4F8AC
:1043C400C430996AA86A3AF027FE29460028E7D043
:1043D40031E7504938463AF01FFE00283FF43AAF1F
:1043E4004D4938463AF018FE00285BD04B49384610
:1043F4003AF012FE002855D0022384F8B9302CE795
:1044040094F8B930002B00F0E880012BBED1444A67
:10441400206C1568216D126884F8393084F83830BE
:1044240084F8493084F8483065646265E063E16487
:10443400ACE73B4AA646204684F839305EF81C1F98
:104444001768DEF804C06764276C6160C4F808C0AC
:10445400E7639EF808701168277350F8287F616538
:104464004568216D6561E1641568616E2761077AAD
:104474001068216684F8383084F8493084F848306C
:104484002776656363702370E06584F8593011689A
:10449400626FE16684F8583084F8693084F86830D3
:1044A400226773E7002384F8B930D6E6AA3038F0DF
:1044B40013FC206428E7AA30FFF720FE606723E797
:1044C400AA30FFF71BFE60661EE7A1F14101B1FAB5
:1044D40081F1490980F8BC1016E7AA30FFF70EFEF7
:1044E400C4F8840010E7AA30FFF708FEC4F8A4005B
:1044F4000AE7302994BF0021012180F8BC1003E7AA
:10450400A1F15701B1FA81F1490980F83010FBE6B5
:10451400844900208C490020944900209C490020B3
:1045240070A5002000F12801AA30FFF715FEEBE684
:10453400A1F15301B1FA81F1490980F82410E3E6AD
:1045440000F11C01AA30FFF707FEDDE6AA30FFF7F1
:10455400D5FD2065D8E62746216D254B012257F865
:104564001C0FE164796860602046A1603F7AD3F84B
:1045740000E0277350F8287FD4F884104568276139
:1045840065611D68077A186884F8492084F8482012
:10459400C4F854E0277684F8792084F87820656399
:1045A40062702270E067C4F8801001221D68D4F89C
:1045B40094101868D4F8A430C4F88C50C4F89C0043
:1045C400C4F8901084F8892084F8882084F899200D
:1045D40084F89820C4F8A030D8E6054B0122206D59
:1045E4001968E064616584F8492084F84820DCE7B0
:1045F40070A50020D0F8C82038B501320346A1F1D7
:104604000A00C3F8C820222840D8DFE800F0183F89
:104614003F183F3F3F3F3F3F3F3F3F3F3F3F3F3FCD
:104624003F3F3F3F3F3F3F3F2F3F3F3F3F3F183FCD
:10463400120093F8A82082F02C0283F8A8201D46CB
:1046440093F8BB300C460E2B33D90020A4F12A0179
:1046540095F8BA300022B1FA81F1013385F8BB2014
:10466400490985F8BA3085F8A91038BD002202211D
:1046740083F8BB20104683F8BA2083F8A82083F877
:10468400A92083F8BC2083F8B91038BD93F8BB2067
:104694000D2A05D8501C1A4483F8BB0082F8AA10CE
:1046A40093F8A90068B993F8A820514083F8A8109A
:1046B40038BD2B440022284683F8AA20FFF790FD3A
:1046C400C4E7002038BD00BFD0ED027A0022DFED40
:1046D4000A6AB8EE677A8388427000EE103A037B68
:1046E400C7EE267AB8EEC00A37EE800AB7EEC00AE3
:1046F4000BB1B1EE400B7047286B6E4ED0ED057ACE
:104704000022DFED0A6AB8EE677A038A427000EE8F
:10471400103A037EC7EE267AB8EEC00A37EE800A56
:10472400B7EEC00A0BB1B1EE400B7047286B6E4E6A
:1047340010B442680024074B64214470A3FB0203B5
:104744005DF8044B5B0901FB132000F5FA6080B2AD
:10475400704700BF1F85EB5110B4084B002442681A
:1047640064214470A3FB02205DF8044B4009A3FBC1
:1047740000235B0901FB1300C0B270471F85EB5196
:10478400044A002143684170A2FB0330C0F3473060
:10479400704700BF5917B7D1044A002143684170DC
:1047A400A2FB0330C0F38740704700BF83DE1B4386
:1047B40030B442680024074D64214470A5FB0252C2
:1047C400054B500BA3FB00235B0901FB130030BC1A
:1047D400C0B270475917B7D11F85EB5110B4084BBD
:1047E4000024426864214470A3FB02205DF8044B5A
:1047F4004009A3FB00235B0901FB1300C0B270470F
:104804001F85EB5110B442680024064B64214470A8
:10481400A3FB02035DF8044B5B0901FB1320C0B248
:10482400704700BF1F85EB51006910B10368DB6856
:1048340018477047006910B103681B69184770472F
:10484400006910B103689B6918474FF0FF30704747
:10485400006910B103685B6918474FF0FF30704777
:104864002DE9F0410646884602F022F8306928B165
:10487400036841461B68BDE8F04118477369002B83
:1048840056D02D492D4A0B6843F080730B60136892
:1048940043F001031360746972B6A1F55D41B56913
:1048A400F8390A682860A31808681B1AB3F5BE7F94
:1048B40008D9A4F5B47062B60B689B1A9842FBD869
:1048C40072B6B5691E490B689B1A9C42FBD84FF01F
:1048D400080E01211A4818EA010F14BF012300230E
:1048E4002B6003687769D31A3C442344B3F5BE7F35
:1048F40008D9A4F5B47562B603689B1A9D42FBD827
:1049040072B6B56903689B1A9C42FBD84900BEF194
:10491400010EC9B2DFD101232B6062B67369084965
:104924001C440B689B1A9C42FBD80120BDE8F08113
:104934001846BDE8F08100BFFCED00E0001000E087
:10494400041000E070B5002304464FF47A752C4837
:1049540082B02371A5600D462060237384F8203053
:1049640031B9012A04D1274B2046236102B070BD1E
:10497400062D06D1072A04D1234B2361204602B019
:1049840070BD0E2D06D10F2A04D1204B2046236181
:1049940002B070BD102D04D1112A02D11C4B236129
:1049A400ECE7152D04D1142A02D11A4B2361E5E753
:1049B400192D04D1182A02D1174B2361DEE71C2DCF
:1049C40004D11D2A02D1154B2361D7E700261046D6
:1049D40001210192266101F0DDFF0221284601F048
:1049E400D9FF019A0E4B110184F8225084F821203A
:1049F4002D015A58A2615B5966610833E361BDE732
:104A0400BC2D0020446E0020A46E0020046F002002
:104A1400646F0020C46F0020247000208470002084
:104A24009443002003691BB11846002201F060B9C9
:104A34004B080A4608491944B1FBF2F130B4074D5A
:104A440041612B68064C43F080732B60236843F06C
:104A54000103236030BC70470046C323FCED00E033
:104A6400001000E038B5056904463DB1284601F060
:104A7400A1FA002323610023636138BD294690F81D
:104A8400210001F087FF294694F8220001F082FFFB
:104A94000023636138BD00BF2DE9F843DDF82080B1
:104AA400099FB3B116460C46054603EB010904E021
:104AB40020460134C0474C450BD02B683246214672
:104AC40028461B6998473A4631460028F0D1BDE88C
:104AD400F8830120BDE8F8832DE9F843DDF8208050
:104AE400AAB11F460C46054602EB010901E04C45FC
:104AF4000DD02B68414620465E6AB84721460246DF
:104B040028460134B0470028F1D1BDE8F8830120DC
:104B1400BDE8F883002070470020704700207047EC
:104B24004FF0FF30704700BF036D0BB10120704799
:104B3400406D003018BF0120704700BF704700BFB0
:104B440010B50446806D18B139F058FA0023A365F6
:104B5400236D2BB104F11800BDE8104033F01CBEE6
:104B6400636D002BF6D110BD012BF0B5054695B051
:104B74003BD0022B01F1040140F20223684618BF26
:104B8400002333F003FF129B002B37D05C2004AFCB
:104B940001F0E2FF9DF8042004461F4B0026DFF8D5
:104BA40088E022733946029A1830A3609DF80C30CD
:104BB40022612375C4F800E0666033F0ABFD6368DE
:104BC4004FF47A7115480133154AA6652E712E7378
:104BD4002C61A0606360A9602A60124B3846009380
:104BE40033F0DAFD284615B0F0BD44F20223043157
:104BF400684633F0CBFE129B002BC7D1139B002BCE
:104C0400C4D14FF47A71064A2B7104AF2B732B6114
:104C1400A9602A60E1E700BF782F0020F82E002069
:104C2400CC2E0020742D00201C2F0020F0B5002372
:104C340095B04FF47A74234F1A460546183104A8E8
:104C44008DF804308DF80C3012931393029400976E
:104C540033F0F6FD129B53B35C20002601F07CFF79
:104C64009DF804300446184A04A918302373029BA3
:104C740022602361154A9DF80C30A260237566609A
:104C840033F048FD63684FF47A71114A0133A76029
:104C9400A6652E712E732C616360A9602A600D4B8A
:104CA40004A8009333F078FD284615B0F0BD139B9B
:104CB400002BD1D1064A2B71AC602B732B612A6077
:104CC400EDE700BFF82E00201C2F0020782F0020D5
:104CD400CC2E0020742D0020836C13B1184631F0C3
:104CE4005DBEC06C08B12FF0CBBB4FF0FF307047F6
:104CF400836C00B583B063B1184601220DF107013E
:104D040031F07EFD01280CD19DF8070003B05DF859
:104D140004FBC06C28B101220DF107012FF0D6FA73
:104D2400F0E74FF0FF30F1E770B5D0F884448EB06F
:104D34001646C4B1002504F589640A46684621462E
:104D44002B468DF800508DF801508DF8025031F04B
:104D5400C7FC08B90EB070BD32462146684631F032
:104D640053FE0EB070BDD0F888040028F2D000F5D0
:104D740089650A462346684629468DF831408DF8F0
:104D840032408DF833402FF0F1FD0028E2D0324656
:104D94002946684630F024F90EB070BD30B5D0F81D
:104DA40084448FB0A4B100250A46684621460123F5
:104DB4008DF800508DF801508DF8025031F0F6FC5A
:104DC40008B90FB030BD684632F0BCFD0FB030BD3D
:104DD400D0F888040028F4D00A4601230146684626
:104DE4008DF831408DF832408DF833402FF03CFE81
:104DF4000028E6D068462FF0A1FE0FB030BD00BFFA
:104E0400036DF0B50C4683B02BB318460DF10602C2
:104E140001A931F02BFBD8B1BDF80430BDF8062050
:104E240003B9AAB102F01F06C3F343155912C2F322
:104E3400451703F01F037600013D01F5EA61D21224
:104E440026706571A17123716770A27003B0F0BD03
:104E5400002003B0F0BD406D0028F9D00DF106022A
:104E640001A92FF0B3F9D6E730B5D0F884448FB058
:104E7400A4B100250A46684621462B468DF8005009
:104E84008DF801508DF8025031F090FC08B90FB044
:104E940030BD684631F0AAFE0FB030BDD0F88804AA
:104EA4000028F4D00A462346014668468DF831406E
:104EB4008DF832408DF833402FF0D6FD0028E6D02F
:104EC40068462FF09BFE0FB030BD00BF30B5D0F860
:104ED40084448FB07CB100250A46012304F589611E
:104EE40068468DF800508DF801508DF8025031F06D
:104EF4008FFB0FB030BDD0F888040028F9D00A46E3
:104F0400012300F5896168468DF831408DF83240FF
:104F14008DF833402FF0F8FF0FB030BD30B5D0F826
:104F240084448FB074B100250A46684621462B4656
:104F34008DF800508DF801508DF8025031F036FC98
:104F44000FB030BDD0F888040028F9D00A462346B3
:104F5400014668468DF831408DF832408DF8334073
:104F64002FF082FD0FB030BD036D9BB11A7812F0A3
:104F7400700F00D1704710B504460021184631F077
:104F840063FE606D28B100220023BDE810402FF0BD
:104F94008DBA10BD406D0028ECD090F8313013F07C
:104FA400500FE7D0002200232FF080BA38B5846D6B
:104FB4000CB1204638BD05464FF4807039F016F820
:104FC4000146A86580B1286D0C7028B14FF4807239
:104FD40033F0EEF8AC6DECE7686D40B14FF48072DD
:104FE40030F066FEAC6DE4E7024CAC65E1E70C46DC
:104FF400DFE700BF8AA500208A79A2F150031B06CF
:1050040021D402F26C72F0B54B7985B0046D013392
:105014000D798E784F78DBB209784CB10391204634
:10502400029702210196009531F02EFF05B0F0BDE4
:10503400406D0028FAD0039102218DE8E00030F0A1
:1050440027F805B0F0BD0020704700BFD0B5046D4F
:105054008CB1012B08BF002A01D30020D0BD11461A
:10506400204631F0F1FD0028F7D0204631F078FFDA
:105074000028F2D0D0BD446D002CEED020462FF095
:1050840015FA0028E9D02046BDE8D04030F0CEB86B
:10509400036DF0B50C4683B02BB318460DF1060230
:1050A40001A931F0F3F9D8B1BDF80430BDF80620F8
:1050B40003B9AAB102F01F06C3F343155912C2F390
:1050C400451703F01F037600013D01F5EA61D21292
:1050D40026706571A17123716770A27003B0F0BD71
:1050E400002003B0F0BD406D0028F9D00DF1060298
:1050F40001A92FF07DF8D6E7F8B590F8D034002B4D
:1051040046D0D0F884240446002A46D0D369D0F887
:1051140090045F1E00283ED00368DB6B984730B1D3
:10512400D4F8900430B303681B6C9847A0B1D4F84A
:1051340084240026002A4AD0104633F0F5F90546A7
:105144003EB1D4F89004A8B1036800215B6C984781
:1051540080B1D4F8842410E0D4F8900450B10368EA
:1051640001215B6C984728B1D4F884240126002AD5
:10517400E2D12CE00025D4F884247B1BF2B1907991
:105184004FF4007202FA00F080B2A0FB0301F8BDF4
:1051940000200021F8BD0646CEE7D0F88834F3B1EC
:1051A400D3F83074D4F890040028B5D11946A3B1CB
:1051B4000646084630F08CFF0546C1E7D4F888243B
:1051C400002AE5D0D2F83C04A3FB0001F8BDD4F8D2
:1051D40088140029EDD11546B2E71D46CDE71F46D8
:1051E400E0E700BF036D13B1586900217047436DB8
:1051F40013B193E80300704718461946704700BF7F
:10520400036D13B1D86900217047436D13B1186958
:105214005969704718461946704700BF036D13B1AA
:10522400184631F0EDBA406D08B12FF04FB84FF089
:10523400FF307047036D13B1184631F0AFBB406DBA
:1052440008B12FF01DB94FF0FF30704790F8D034FB
:1052540063B1D0F8842462B191794FF40073D069BA
:105264008B4001389BB2A3FB000170470020002152
:105274007047D0F88824002AF8D0D2F83034D2F815
:105284003C04A3FB00017047036D33B11B7813F09A
:10529400700F14BF012000207047406D30B190F8AA
:1052A400313013F0500F14BF01200020704700BFAD
:1052B4008A79A2F150031B0621D402F26C72F0B574
:1052C4004B7985B0046D01330D798E784F78DBB25C
:1052D40009784CB103912046029704210196009568
:1052E40031F0D2FD05B0F0BD406D0028FAD0039135
:1052F40004218DE8E0002FF0CBFE05B0F0BD0020C6
:10530400704700BF006900282FD00368184A1B6942
:1053140093420ED1026D6AB1137803F0080303F0CF
:10532400FF0013B3D3695069181A48BF6FF00040E7
:1053340070471847416DC9B191F8313003F0080343
:1053440003F0FF008BB1D1E90423D1E9000130B4AB
:10535400101A4FF000056FF0004463EB01018D4219
:1053640008BF844200D2204630BC704708467047CC
:10537400B9330000036963B11A68074992698A4224
:1053840008D1186D08B131F079BD586D08B12FF00E
:105394000BBD70471846104721310000836C13B1D0
:1053A400184631F06BBDC06C08B12FF0FDBC7047DE
:1053B400036D13B1184631F061BD406D08B12FF093
:1053C400F3BC704703698BB10E4810B41C68E468E1
:1053D400844211D1186D18B15DF8044B31F0FCBD55
:1053E400586D28B15DF8044B2FF092BF0020704730
:1053F40000205DF8044B7047184623465DF8044BC3
:10540400184700BFFD310000036973B11A680849E9
:1054140052698A4207D1186D08B131F0BFBA586D8C
:1054240018B12FF02DB8184610474FF0FF307047D1
:10543400A52F0000036923B31968134A10B58C68BB
:1054440082B0944214D1186D48B101220DF10701C4
:1054540031F0D6F990B19DF8070002B010BD586D37
:105464000028F8D001220DF107012EF02FFFF1E7FB
:10547400184601220DF10701A047EBE74FF0FF307A
:10548400EBE74FF0FF3070478D2F0000036D13B131
:10549400184631F0A1BD406D08B12FF039BF7047F7
:1054A400836C13B1184631F097BDC06C08B12FF06E
:1054B4002FBF704700B5836C83B08DF8071043B1DC
:1054C400184601220DF1070131F086FD03B05DF8A5
:1054D40004FBC06C0028F9D001220DF107012FF064
:1054E40017FF03B05DF804FB10B5036982B08DF8B3
:1054F4000710BBB11968104ACC68944215D1186DD5
:1055040030B101220DF1070131F066FD02B010BD8A
:10551400586D0028FAD001220DF107012FF0F8FE92
:1055240002B010BD184602B010BD01220DF10701F2
:105534001846A04702B010BDFD3100002DE9F0412E
:10554400D0F8905492B04DB11F462B6804462846BB
:10555400DB699847B0F5405F064603D8002012B0D7
:10556400BDE8F0814FF4007038F040FD804600281B
:10557400F4D0B6F1806F07AE02463B46294630466A
:1055840044D832F0BDFC0746404638F037FD002FC2
:10559400E4D02B6828461B6A984794F8C054FF2D22
:1055A40038D094F8C18401AAD4F8C4C404ABD4F8A4
:1055B400C8E404F594678DF804508DF80580CDF89F
:1055C40008C0CDF80CE007CA83E807008DF8118005
:1055D400CDF814C0CDF818E08DF8105093E807000A
:1055E40086E80700384696E80E0033F0DDFE94F8AE
:1055F400B134C4F890742BB901233946201D1A46DE
:1056040033F050F9012012B0BDE8F08130F058F8C1
:105614000746B9E704F2944384F8C05494F8CC14D0
:105624001D46184634F018FCC4F89054284633F04C
:1056340093FF0028E6D10123D4F89014201D1A46C4
:1056440033F030F9DEE700BF026D62B1137803F086
:10565400080303F0FF000BB3D3695069181A48BF5D
:105664006FF000407047416DC9B191F8313003F0DB
:10567400080303F0FF008BB1D1E90423D1E9000151
:1056840030B4101A4FF000056FF0004463EB0101D1
:105694008D4208BF844200D2204630BC7047084681
:1056A400704700BF826C62B1137803F0080303F003
:1056B400FF000BB3D3695069181A48BF6FF000405C
:1056C4007047C16CC9B191F8313003F0080303F09D
:1056D400FF008BB1D1E90423D1E9000130B4101AE1
:1056E4004FF000056FF0004463EB01018D4208BFE9
:1056F400844200D2204630BC70470846704700BF41
:10570400D0B4039C16461F4634B1012C1ED0022C83
:105714000DD00020D0BC7047046DDCB1012B08BF54
:10572400002AF6D220461146D0BC31F08DBA036D62
:10573400B3B1DA69B61847F10007012F08BF002E8C
:10574400E7D231461846D0BC31F07EBA036D93B12E
:105754005A69EFE7406D0028DBD0D0BC2EF0A6BE1E
:10576400436D002BD5D01846D3E9042392197B410D
:10577400D0BC2EF09BBE436D002BCAD01846D3E993
:10578400002392197B41E8E738B504460C4B806D41
:10579400236018B138F032FC0023A365236D04F1B3
:1057A40018054BB1284632F0F7FF064B2846A36094
:1057B40032F0F2FF204638BD636D002BF2D1F4E7DE
:1057C4001C2F0020742D002038B504460E4B806D2C
:1057D400236018B138F012FC0023A365236D04F193
:1057E40018056BB1284632F0D7FF084B2846A36052
:1057F40032F0D2FF20465C2101F0B6F9204638BDD4
:10580400636D002BEED1F0E71C2F0020742D0020D7
:1058140070B5254B0546046903601CB16668013EFA
:1058240066600EB1284670BD2368204ADB6A934245
:105834002CD1A06D10B138F0E1FBA665236D5BB3EC
:1058440004F1180032F0A8FF2C69002CEAD0236878
:10585400174A5B6893421CD1164BA06D236018B1A4
:1058640038F0CCFB0023A365236D04F11806BBB10B
:10587400304632F091FF104B3046A36032F08CFF7B
:1058840020465C2101F070F9284670BD20469847F7
:10589400DAE720469847C5E7636D002BD0D1D3E7FC
:1058A400636D002BE4D1E6E7CC2E0020B128000084
:1058B400393500001C2F0020742D002070B5294BB1
:1058C4000446056903601DB16E68013E6E602EB129
:1058D4002046142101F048F9204670BD2B68224A65
:1058E400DB6A934230D1A86D10B138F087FBAE6506
:1058F4002B6D7BB305F1180032F04EFF2569002DA6
:10590400E6D02B68194A5B68934220D1184BA86DE6
:105914002B6018B138F072FB0023AB652B6D05F1D9
:105924001806DBB1304632F037FF124B3046AB601D
:1059340032F032FF28465C2101F016F9204614218A
:1059440001F012F9204670BD28469847D6E728464C
:105954009847BDE76B6D002BCCD1CFE76B6D002B67
:10596400E0D1E2E7CC2E0020B12800003935000058
:105974001C2F0020742D00202DE9F041D0F89064F4
:105984008AB00446002E48D090F8D034002B4AD177
:1059940090F8D134FE2B5AD090F8D204362835D959
:1059A40094F8C064FF2E71D094F8C18403ADD4F888
:1059B400C4C406ABD4F8C8E404F594678DF8006059
:1059C4008DF80180CDF804C0CDF808E09DE807000B
:1059D40085E807008DF80D80CDF810C0CDF814E0EF
:1059E4008DF80C6095E8070083E8070038460ECB75
:1059F40033F0DAFC94F8B134C4F890746BB9012331
:105A04003946201D1A4632F04DFF07E000F0BCFF76
:105A1400003018BF01200028C2D1002084F8D0042F
:105A24000AB0BDE8F08190F8D134FE2B16D094F87A
:105A3400D204362805D800F0A7FF003018BF012093
:105A4400ECE73368304606A99B6C9847E6E71B4BA6
:105A54009868C0F340400028DFD0A1E7336830469F
:105A64005B6D9847431C0546E1D048B994F8D1349E
:105A7400FE2BD2D12E20032100F08CFF2846CDE747
:105A8400012084F8D0040AB0BDE8F08104F2944502
:105A940094F8CC1484F8C064284634F0DDF9C4F8D2
:105AA4009054284633F058FD0028B6D10123D4F889
:105AB4009014201D1A4632F0F5FEAFE70080004234
:105AC400F0B4184B0024184EFF2507211748292746
:105AD400174AC3F89464174E18601846C3F8A824EC
:105AE400C3F8AC1483F8B174C3F8A064C3F8844455
:105AF400C3F88844C3F8904483F89C4483F89D44D5
:105B040083F8B54483F8BC4483F8CC4483F8D04488
:105B140083F8D15483F8D254074A0849F0BC02F000
:105B2400E5BC00BFA0840020F02F00209C2F0020A3
:105B340000093D00FC2D0020D86D0020AD28000098
:105B4400B0F84630B0F848209BB292B2934202D2E9
:105B5400501EC01A7047406B01381044C01A704779
:105B640072B6B0F84A30B0F84C2099B293B2994268
:105B740001D2826B11440269CB1AD06AC0F302606D
:105B8400184462B6704700BFB0F84A20B0F84C30F1
:105B940092B29BB29A4270B428D00133846BA34270
:105BA40017D2016B9EB28B4218D2016AC95CC9B28A
:105BB400856DA0F84C60B5B19A4238BF1219D31A5A
:105BC400C26B93420FD8C36D0846C5F8883070BCC9
:105BD40070470026016B33468B42E6D3591A456A57
:105BE400695CC9B2E4E7084670BC704772B6B0F8A5
:105BF4004A1089B28A4202D062B60A46CDE70369E6
:105C0400DA6A12F0E06F04D0D869C0F3090062B612
:105C1400DDE74FF0FF30FAE790F8443043B110B5B8
:105C2400044602F0F7FA94F84430002BF9D110BD81
:105C3400704700BFB0F84A20B0F84C3092B29BB223
:105C44009A4210D00133816B026B8B4228BF002330
:105C5400934204D39B1A426AD05CC0B27047026A72
:105C6400D05CC0B2704772B6B0F84A1089B28A42AA
:105C740001D062B6E6E70369DA6A12F0E06F11D088
:105C8400DB690021026AC3F3090310B40124A0F8FC
:105C94004A40A0F84C10D9B2517062B618465DF86B
:105CA400044B70474FF0FF3362B61846704700BF8D
:105CB400EFF31380B8B9EFF310834BB9EFF3058218
:105CC4003AB94FF48073EFF3118050B1984208D27F
:105CD40070470F2AF7D9054BD35CEFF311800028E6
:105CE400F4D1184670474FF0FF30F1E7F0E300E0DD
:105CF40007EE901A9FEDA47A0421B6EE005AF8EE4E
:105D0400677A9FEDA26A2DE9F043C7EE275A0E4643
:105D1400012541F6FF741DE0A342A8BF234607EE08
:105D2400903AF8EEE76A76EEC76AC6EE877AF5EE41
:105D3400C07AF1EE10FA48BFF1EE677AF4EEC67A53
:105D4400F1EE10FA03D8B0EE676A0E461D46013133
:105D5400212911D007EE901AF8EEE77A85EEA77A9A
:105D640077EE057AFDEEE77A17EE903A002BD3DC56
:105D7400F7EE006A0123D6E70021436902F40074B8
:105D8400D0F83890B3F85C70B3F85E808C42A0F819
:105D94004A10C7EB0907A0F84C1008BF8C46A0F8BE
:105DA400461018BF4FF0010CA0F8481080F84410BA
:105DB400D3F810E05969DEF80040C76344EA0104EF
:105DC400C8EB09010164CEF8004080F81AC040F025
:105DD400CE80047E6E4903EB04146E4F247E01EBE7
:105DE4000414A4682760047E03EB0414277ED4F80B
:105DF4001CE001EB07146468C4F800E0047E03EBC4
:105E04000414276A0FB1646A3C60447ED92703EB0B
:105E1400041494F8384001EB0414A4682760447E09
:105E240003EB041494F83870E46B01EB0711496830
:105E34000C60417E03EB01110C6C0CB1496C2160C8
:105E4400711E5C785F68082E4FEA01614FF000060E
:105E5400D8BF4FF4003E04F1100401F0F853C8BF5A
:105E6400B64601691D434C4B4EEA05050D61CE60F3
:105E740043F824704369012448495D7893F85A3003
:105E8400474E6B54456901696B7803F01F075B113A
:105E9400BC4046F823408B6A9B0803F01C030F2B7D
:105EA40060D85B1003F00303DCB28B6A9B0003F041
:105EB4001C030F2B53D8DB0303F44033234302F0BA
:105EC4000304CB628B6A43F088038B6253074BD481
:105ED40044F4701302F00F04042C847E08BF43F0D2
:105EE4008043970648BF43F080530CB143F0A003AE
:105EF40016078B6103D50B6943F000530B614B69A3
:105F0400D40623F0805348BF43F080534B61D3053C
:105F140003D50B6943F400530B61EB681B78E3B9B9
:105F2400204E357865B3204C2368834226D0691E01
:105F34002346C9B204EB810103E053F8042F9042D5
:105F44001AD08B42F9D16B1CDBB2184A3370137828
:105F540044F8250043F002031370BDE8F0834FF4C6
:105F64004033ABE70324A0E7114B2343B2E7447E5D
:105F74004FF2D90706494AE7BDE8F083BDE8F0834C
:105F84000123094CE1E700BF001BB74BEC78AD607F
:105F94009443002038F001000080002000E400E079
:105FA40000E100E088A50020D89B0020857D00202A
:105FB40010003C00436919695A69096811422BD0E1
:105FC40070B590F84420044632B102F023F994F8F5
:105FD4004430002BF9D16369206900210F4A05255B
:105FE4008161207EA66D03EB0010007E02EB0010A1
:105FF40040680560607E03EB001393F8383002EBD1
:10600400031253681D60A4F84A10A4F84C1016B18A
:10601400E36DC6F8843070BD704700BF9443002020
:10602400F8B5036D04460E4613B1426DC3F88420DF
:10603400A37E33B172B62269936943F0005393612E
:1060440062B6B4F84650636BADB201359D4249D295
:10605400AFB2B4F848309BB2AB4220D1FFF728FE70
:106064006369B3F85A3098422DDC21694B691B02ED
:10607400EFD5B4F84830626B9BB20133934227D218
:10608400E26A98B2934228D2E269D35CDBB2CB6174
:10609400A4F84800B4F848309BB2AB42DED0E36ABF
:1060A4009D4222D3ED1AF6B2A36A5E5572B6012060
:1060B400226984F84400A4F84670936943F4000309
:1060C400936162B6F8BDFF28C3DD02F0A3F8C0E710
:1060D4000020E26A03469342D6D39B1AA26AD35C99
:1060E400DBB2D4E700273D46B3E7F6B2E3695E5579
:1060F400DCE700BFFFF794BF0269536913F4401F44
:10610400F0B542D0D36AC3F30265002D3AD0B0F89B
:106114004A70B0F84CE0BFB21FFA8EFE06E0026A85
:10612400D65402696B1E13F0FF051AD0D1697B1C8B
:10613400866BB0F84C40C1F30901B34228BF002379
:10614400A4B2A342EED0026BCEB21F469342A3EB9D
:106154000204E4D3436A1E556B1E026913F0FF0563
:10616400E4D1BBB2816DA0F84A3059B1774573D2FE
:10617400836BCEEB03031F44036C9F4202D3C36DB6
:10618400C1F884305369DC0255D4D2F818E01EF407
:10619400000F02D0536919021CD41EF4800F48D09A
:1061A40053695B0246D50021036D80F8441013B196
:1061B400416DC3F88810837E3BB172B6026993695E
:1061C40023F00053936162B60269936923F4800358
:1061D4009361F0BDB0F84650B0F84830ADB29BB210
:1061E4009D422DD0466BC46A0AE0C169C95CC9B23C
:1061F400D161D16AC1F30221032912D8AB421FD065
:1062040001339E4298BF0023A342A3EB0401ECD3C5
:10621400876A795CC9B2D161D16AC1F302210329C9
:10622400ECD999B2AB42A0F848100CD01EF4800F00
:10623400B6D1F0BDF0BD536943F480135361A4E7B4
:10624400ADB2A0F84850936923F4000393619369B5
:1062540043F480039361A0E7CEEB07078CE700BF0C
:106264000148FFF749BF00BF446E00200148FFF713
:1062740043BF00BFA46E00200148FFF73DBF00BF2D
:10628400046F00200148FFF737BF00BF646F002090
:106294000148FFF731BF00BFC46F00200148FFF77A
:1062A4002BBF00BF247000200148FFF725BF00BFAB
:1062B40084700020F8B50E4671B17AB107461446D1
:1062C40000253B68384616F8011B1B689847013CBB
:1062D4000544F6D12846F8BD0846F8BD1046F8BD79
:1062E40010B5064C82B003680222248801A95B68B9
:1062F400ADF80440984702B010BD00BFA8030020C9
:10630400036810B514465B689847204610BD00BF6B
:10631400F0B506468BB0002A33D0012A08BF0A2202
:1063240051B3212500E0FDB26F1EB1FBF2F402FB74
:106334001411C8B2092900F1370100F1300088BFF7
:10634400C8B221460AAC98BFC0B22C4404F8240C4D
:106354000029E8D133B1013D0AAB2D22EDB22B4423
:1063640003F8242C336801A9C5F1220230462944DC
:106374005B6898470BB0F0BD302221258DF82520AD
:10638400E8E70368C9B21B6898470BB0F0BD00BFCB
:10639400002903DB00230A22FFF7BABF49422D2359
:1063A4000A22FFF7B5BF00BFB4EE400B70B5F1EEA3
:1063B40010FA05462DED028B86B080F19180B0EE87
:1063C400C07B9FED4B6BB4EE467BF1EE10FA0ADD19
:1063D400036803224E495B6898470646304606B078
:1063E400BDEC028B70BD9FED447BB4EEC70BF1EEA8
:1063F40010FA58DC9FED427BB4EEC70BF1EE10FAB5
:1064040051D4B5EEC00B0C46F1EE10FA56D400236D
:10641400002C57D0B6EE008B00229FED3B7B01325F
:1064240028EE078BD1B28C42F9D830EE080B0A2241
:106434002846FCEEC07BB8EE678B17EE901A30EE60
:10644400488BFFF765FF0F2C4FF00102B2EE047B7F
:106454004FF02E0328BF0F2406468DF8083014444D
:10646400E4B228EE070B531C06A91144DAB2A24287
:10647400FCEEC06BCDED016A9DF8043006EE903A57
:1064840003F13003B8EEE68B01F8103C30EE488B94
:10649400E7D12B68284602A95B689847304606B0C6
:1064A400BDEC028B70BD2B6803221A495B689847C8
:1064B4000646304606B0BDEC028B70BDB1EE400B13
:1064C4000123A5E7B6EE007B28460A2230EE070B2F
:1064D400FCEEC07B17EE901AFFF71AFF06467DE725
:1064E400036803220C495B689847064676E700BFB9
:1064F400FFFFFFFFFFFFEF7F000000E0FFFFEF4122
:10650400000000E0FFFFEFC1000000A09999B93F2F
:10651400EC490020E8490020E449002081607047EC
:10652400964A974B90422DE9F043964CD3F814E0E9
:106534009969E6681CD9944B984240F21581934BB3
:1065440040F22765924F0344924C1A0AA7FB023289
:10655400D30903EB830303EB830202F2E243AB426E
:1065640028BF2B46A3F54873A4FB0335ED0804E0CC
:10657400894DA84294BF06250E25814A06F01F07BF
:10658400D2F88030AF4243F0C003C2F880300AD260
:106594007C4B26F01F061A462E43DE601368002B40
:1065A400FCDA06F01F071EF0007331D17B4C7C4AE5
:1065B400D4F810C014460CEA0202A2420ABF4FF0FB
:1065C400C0534FF4805200228EEA030414F0605F3B
:1065D40008D02EF0605E03F06053694C43EA0E0E5F
:1065E400C4F814E081EA020313F4405F08D0644B5A
:1065F40021F4405111431A469961936C1C07FCD451
:106604004EF0007E5E4AC2F814E0936C9906FCD406
:106614000121644C0A4601FB02F300FB03F3A3428D
:1066240009D8072A00F29580013201FB02F300FB2E
:1066340003F3A342F5D95C485C4C1844A4FB000363
:106644001B0D6C2B00F28B80352B00F28F80DFF852
:10665400888136235648DFF844C1564CDCF8009054
:10666400B0FBF2F009EA04044445B0FBF1F00BD0AE
:1066740043F400534FF480586446CCF80080CCF8BF
:1066840000302368002BFCDADFF8F4C0013ADCF8B0
:10669400103003F00703934207D002F00702644668
:1066A400CCF81020A36CDB03FCD4013989028EEAF8
:1066B400010313F4E05F0CD0314B2EF4E05E01F4DF
:1066C400E0511A4641EA0E0EC3F814E0936C9907A0
:1066D400FCD4394B39490344DB09A1FB0331090BD1
:1066E400042928BF04214B1E1B028EEA030212F464
:1066F400407F07D02EF4407E03F44073204A43EADF
:106704000E0353611E4B5C691A4624F000745C61ED
:10671400936C9B06FCD42A4B4FF0FF32294CBD42AC
:10672400A3FB00E320604FEA9343274CB2FBF3F34F
:10673400B0FBF1F1254A2160136008D2114B26F019
:106744001F061A462E43DE601368002BFCDABDE8F0
:10675400F08304293FF66FAF013101225BE7DFF8D4
:106764007C806C231A4876E7122506E71948DFF87F
:10677400708000FB03F043EA08086CE700A4781F6C
:1067840000C00F40000008400046C32300BA3CDCB0
:1067940023B24C001F85EB5100366E0100800D4082
:1067A40040300080FFB19F26808D5B00819F5E1684
:1067B40000B29F267F3001807FD1F0089F10E50052
:1067C40083DE1B43E06D0020DC6D002068A5002003
:1067D40000643F4D001BB700362000806C20008011
:1067E40000200080002857D001222DE9F04F85B009
:1067F40083462A4C2A4D2B4EDDE9028954E8003F9A
:106804002868336844E800210029F7D1264FCDE9F0
:1068140002893A68D31A254A4FF47A7E019712689E
:106824000127A3FB02234FF47A72984600238B427C
:1068340008BF42452CBFC246F2460EFB00AA54E8EC
:10684400003F2A68316844E80073002BF7D10198AF
:106854000068411A15484FF47A7E00680EFB02F274
:10686400A1FB00014FF47A70CAEB020288460021B2
:10687400994208BF40452CBF434673461A447245AB
:1068840007D3BBF1010B0AF57A7AD8D105B0BDE87C
:10689400F08F01F0BFFCD2E7704700BFE0A50020F5
:1068A40070A500206CA50020041000E068A500205D
:1068B4002DE9F003124A0126124D134C52E8003F11
:1068C4002968206842E80063002BF7D10F4A166854
:1068D4000F4F321A4FF000094FF47A783E684FF4A4
:1068E4007A709945A2FB066708BFB8453C462CBFA1
:1068F4003C46044600FB0140BDE8F003704700BF7E
:10690400E0A5002070A500206CA50020041000E084
:1069140068A5002000010F4B1A181B5810B4D0684A
:106924005C68044205D059B1C3F884005DF8044B97
:106934007047936849B9084A5DF8044B1A60704778
:10694400C3F888005DF8044B7047044A5DF8044BB3
:106954001A607047944300203830010038F0010079
:106964000001054B1A5819189268CB681A4214BFD3
:1069740001200020704700BF94430020362801D82E
:10698400FFF7C8BF704700BF362801D8FFF7E8BF3C
:106994000020704736281CD800011A4A012902EB4E
:1069A4000003105810B415D0042913D0DC684268D1
:1069B40022EA040242609A68E9B102291ED003293E
:1069C4005B685DF8044B0CBF0F4910491160152238
:1069D4001A607047DA680129446842EA0402426096
:1069E4009A6808D040F6380111605B6815225DF89A
:1069F400044B1A60704738211160F6E704491160AE
:106A0400F3E700BF94430020383001003800010050
:106A140038F0010008B5FCF73FF8FCF78BF801F0FB
:106A2400F9FBFAE7844641EA000313F003036DD14E
:106A3400403A41D351F8043B40F8043B51F8043B3D
:106A440040F8043B51F8043B40F8043B51F8043B44
:106A540040F8043B51F8043B40F8043B51F8043B34
:106A640040F8043B51F8043B40F8043B51F8043B24
:106A740040F8043B51F8043B40F8043B51F8043B14
:106A840040F8043B51F8043B40F8043B51F8043B04
:106A940040F8043B51F8043B40F8043B51F8043BF4
:106AA40040F8043B51F8043B40F8043B51F8043BE4
:106AB40040F8043B403ABDD2303211D351F8043B84
:106AC40040F8043B51F8043B40F8043B51F8043BC4
:106AD40040F8043B51F8043B40F8043B103AEDD233
:106AE4000C3205D351F8043B40F8043B043AF9D284
:106AF400043208D0D2071CBF11F8013B00F8013B57
:106B040001D30B8803806046704700BF082A13D363
:106B14008B078DD010F003038AD0C3F10403D21A7B
:106B2400DB071CBF11F8013B00F8013B80D331F8AF
:106B3400023B20F8023B7BE7043AD9D3013A11F82F
:106B4400013B00F8013BF9D20B7803704B7843709A
:106B54008B7883706046704737F048BA37F046BA8E
:106B640037F04CBA37F04ABA37F048BAF0B44E1E90
:106B74000025374600E00135B0FBF2F302FB1300B9
:106B840000F13704092800F13000E4B298BFC4B220
:106B9400184607F8014F002BEDD14A1953704DB137
:106BA400013316F8014F1778E81A3770834202F858
:106BB4000149F5DB0846F0BC704700BFA4484FF01C
:106BC4000F0CA44B826F42F47F02F0B5826700255C
:106BD400D0F880204FF470469F4C4FF4604E294605
:106BE4004FF4806714432A46C0F88040A3F88C61B0
:106BF40048F2B826A3F88EC1A3F89051B3F88801DF
:106C040080B240F0F000A3F8880101EB4100914B01
:106C14000131002540011C4604290344A3F804E083
:106C2400DF805A841A865A805A81DE815A82DA8237
:106C34005A83DA83E9D1B4F888014FF00F0C874BFB
