:0200000460009A
:100000004643464200000156000000000103030081
:1000100000000000000000000000000000000000E0
:1000200000000000000000000000000000000000D0
:1000300000000000000000000000000000000000C0
:1000400000000000010408000000000000000000A3
:100050000000800000000000000000000000000020
:100060000000000000000000000000000000000090
:100070000000000000000000000000000000000080
:10008000EB04180A063204260000000000000000FD
:10009000050404240000000000000000000000002F
:1000A0000000000000000000000000000000000050
:1000B0000604000000000000000000000000000036
:1000C0000000000000000000000000000000000030
:1000D00020041808000000000000000000000000DC
:1000E0000000000000000000000000000000000010
:1000F0000000000000000000000000000000000000
:10010000D8041808000000000000000000000000F3
:100110000204180804200000000000000000000095
:1001200000000000000000000000000000000000CF
:10013000600400000000000000000000000000005B
:1001400000000000000000000000000000000000AF
:10015000000000000000000000000000000000009F
:10016000000000000000000000000000000000008F
:10017000000000000000000000000000000000007F
:10018000000000000000000000000000000000006F
:10019000000000000000000000000000000000005F
:1001A000000000000000000000000000000000004F
:1001B000000000000000000000000000000000003F
:1001C000000100000010000001000000000000001D
:1001D000000001000000000000000000000000001E
:1001E000000000000000000000000000000000000F
:1001F00000000000000000000000000000000000FF
:10020000FFFFFFFFFFFFFFFFFFFFFFFFFFFFFFFFFE
:10021000FFFFFFFFFFFFFFFFFFFFFFFFFFFFFFFFEE
:10100000D10020432914006000000000000000000F
:101010002010006000100060004C01600000000023
:10102000000000600058010000000000FFFFFFFF0B
:10103000FFFFFFFFFFFFFFFFFFFFFFFFFFFFFFFFC0
:10104000FFFFFFFFFFFFFFFFFFFFFFFFFFFFFFFFB0
:10105000FFFFFFFFFFFFFFFFFFFFFFFFFFFFFFFFA0
:10106000FFFFFFFFFFFFFFFFFFFFFFFFFFFFFFFF90
:10140000884207D0904205D251F8043B40F8043B93
:101410008242F9D8704700BF884204D2002340F8C6
:10142000043B8142FBD87047664B4FF42A01664A61
:1014300066482DE9F0475A641864654A99639546F1
:10144000BFF34F8FBFF36F8F00F01EFA614B082080
:10145000614A6249C3F854016148FFF7D1FF614A0C
:1014600061496248FFF7CCFF61496248FFF7D4FF4A
:10147000614C62494FF470000023614A086044F8EF
:1014800023200133B02BFAD15E4B80215E4A03F852
:10149000011B9342FBD14F4D4FF080385B494FF019
:1014A000FF325B4B0026DFF8A4A1DFF8A4911C609B
:1014B000C5F80481C5F800A1C5F8F480C5F8F0901E
:1014C0000B68544F43F4E0230B60FB693D4923F064
:1014D0007F0343F04003FB617B6A23F07F0343F00B
:1014E00040037B628A66CA660A674A6700F0D2F9DF
:1014F000494A4A4B6320A2630321E363484A494BAC
:10150000106000F160401E6042F8041C00F6A170FB
:101510004549464AC3F8082D0B68454A43F0807395
:101520000B601368434943F00103136003680B60C9
:1015300000F000FCC5F804813F48C5F800A1C5F8DB
:10154000F480C5F8F09000F08BFDF96E3B4A41F451
:1015500040513B4BF9661660C2F80861C2F8186149
:10156000C2F82861C2F838619A6BD20708D442F6F3
:101570001562344959651A659A6B42F001029A6303
:101580002F4A314C936843F00113936000F0F4F953
:1015900000F030FD00F078FD00F0FEFB00F076F981
:1015A0002368132BFCD900F085FC2368B3F5967FE4
:1015B000FBD300F06DF900F05BFD00F069FD30BF7A
:1015C000FDE700BF00C00A40AFAAAAAA070020009A
:1015D0000000072000800D4058FB000078220060CA
:1015E00000000000C02A0020D41D0160000000207F
:1015F000E0380020C02A00200028002088ED00E00C
:101600002D8C000000E400E0A0E400E024ED00E008
:1016100008ED00E000C00F4015A1000019A1000076
:1016200014E000E018E000E0FCED00E00000202005
:10163000001000E0883700200046C3230040084027
:1016400000400D400000C0568C3700201B101820B1
:101650000C0D11132DE9F041294F00254269012499
:10166000B96B4FF0020E16684FF4303821F47C014C
:101670000369DFF89CC041F48021B9633168576881
:10168000394331604FF001161E49C3F810E01D6167
:10169000C3F848C05C629962C3F82C809F6C1A49F9
:1016A0001F651D629E651C61037E184E02EB0315CB
:1016B0002C7A2B4601EB0414A46826602C7AED6882
:1016C00001EB0414646825601C690CB15B6923603C
:1016D000407E0E4C02EB001393F828001A4601EBF3
:1016E00000108068046093F82840D86A01EB041168
:1016F0004B681860136B0BB1526B1A60BDE8F08138
:1017000000C00F40B80B05059C09002061F80100DE
:101710003B3728194369027E03EB0212F0B4147AB6
:101720008C4209D01A7AFF2A06D08A4228D01A7E23
:10173000FF2A01D08A4201D0F0BC704701252E4615
:1017400093E806000968114217D00F4A03EB06130D
:1017500005270E4E02EB041461680F60197A02EB44
:10176000011189680E601C7AD96802EB0412526874
:1017700011601A690AB15B6913600576F0BC7047A5
:1017800000252E46DCE700BF9C09002061F801001F
:1017900043690B4A03EB011010B4017A094C02EBC8
:1017A000011189680C60047AC16802EB0412526866
:1017B000116002690AB1436913605DF8044B704718
:1017C0009C09002061F801004369427E03EB02128C
:1017D000F0B492F828408C420BD093F82820FF2ACE
:1017E00007D08A422BD093F83820FF2A01D08A42B2
:1017F00001D0F0BC704701252E4693E80600096829
:10180000114219D00F4A03EB061305270E4E02EBC7
:10181000041461680F6093F8281002EB01118968C5
:101820000E6093F82840D96A02EB041252681160E6
:101830001A6B0AB15B6B13604576F0BC70470025EC
:101840002E46DAE79C09002061F8010043690C4A42
:1018500003EB011010B490F828100A4C02EB0111B0
:1018600089680C6090F82840C16A02EB0412526843
:101870001160026B0AB1436B13605DF8044B704753
:101880009C09002061F80100704700BF704700BF4D
:10189000704700BFF0B5244A0020244B4FF0100CD5
:1018A000234C1126DFF8C8E0122720600125C2F87A
:1018B00000C0C3F800E01660DFF8B8E01D4EC3F8C2
:1018C00000E01D4917601E6041F015011B4F1C4EC2
:1018D00017601E601B4F1C4E17601E601B4F11606F
:1018E0001B4E1C491F6016601B4F19601B4E1C4984
:1018F00017601E601B4F11601B4E1C491F60166055
:1019000019602560BFF34F8FBFF36F8FC3F8B0012D
:10191000BFF34F8FBFF36F8F52F8883C43F44033CF
:1019200042F8883CF0BD00BF9CED00E0A0ED00E077
:1019300094ED00E009001000E038002013002000C2
:1019400021000207140000202500081309000010E0
:101950001600202027000B1317000040330010133F
:10196000180000602F000B07190000702F000B13E8
:101970003F00001025000803F0B58D4B18228D4E56
:1019800001208D4948F20C7E8C4D4FF0FF378C4C76
:1019900083B0C3F85C12C3F860520025C3F8641228
:1019A000C3F868424FF40054C3F86C628549C3F829
:1019B0007062C3F87462C3F87862834EDA661A679D
:1019C0005A679A67DA67C3F88020C3F88420C3F89F
:1019D000882040F20562C1F82C03C1F83003C1F839
:1019E0003403C1F83803C1F83C03C1F85003294659
:1019F000B36976481840764B03437648B361D6F80E
:101A0000843043F00C03C6F8843002260368334365
:101A10000360036803EA0E0E6F4B4EEA0303DFF820
:101A2000F0E103606D4B4760DEF808703B406C4F9F
:101A300043F000538360C36823F07803C360036AF4
:101A40001F40684B3B43664F0362036A1F40654B70
:101A50003B43654F43628762C762DEF8B830634F2D
:101A600023F03F0343F00103C0F8B830DEF8BC3088
:101A7000DFF884E123F03F0343F00103C0F8BC30FA
:101A8000056104660767C0F8802044664767C0F8B0
:101A900084200468564B24F00204564A0460C0F8BF
:101AA00018E0C66143F8041B9342FBD1494B1A6806
:101AB000194642F001021A600B68464A13F001030E
:101AC000FAD14D4E022540F2F56440F2664040F2F4
:101AD00099414A4F966142F20146D56140F235453F
:101AE000C2F8004242F20124C2F810020120C2F8FA
:101AF00020121146C2F8307207F15A47C2F8346218
:101B000007F51377C2F840523D4E3E4DC2F8507271
:101B1000C2F85462C2F86052C2F86442C2F8A030FF
:101B2000C2F8A430C2F8B0004B692A4ADD07FBD5E1
:101B3000012300244FF4803011465361C2F8A040C5
:101B4000C2F8A400C2F8B0304B69224ADC07FBD5CA
:101B5000012300244FF4003011465361C2F8A04025
:101B6000C2F8A400C2F8B0304B691A4AD807FBD5B6
:101B700001230024244811465361C2F8A040C2F852
:101B8000A400C2F8B0304B69124ADB07FBD5D2F88B
:101B9000003145F60D5121209BB250618B4239D066
:101BA0001A4B00221A605A609A60DA6003B0F0BDE6
:101BB00000801F40F9700100F9B00100F910010028
:101BC000F900010000841F4000C00F40FFFCFF1F10
:101BD000000300A000402A401200FFFFFF37F7007B
:101BE00000FFF07C40000080FF000F8363000200D4
:101BF00000422A4000432A40F05AF05A9F0418300D
:101C0000063201263806180A040003008438002032
:101C100000802A4000244FF4802001231146C2F89E
:101C2000A040C2F8A400C2F8B0304B693B4ADF07BD
:101C3000FBD501234FF40004002011465361C2F884
:101C4000A040C2F8A400C2F8B0304B69334ADE07A6
:101C5000FBD501234FF400044FF48030114653614B
:101C6000C2F8A040C2F8A400C2F8B0304B692B4AB9
:101C7000DD07FBD501234FF400044FF4003011467B
:101C80005361C2F8A040C2F8A400C2F8B0304B695A
:101C9000224ADC07FBD501234FF4000420481146FB
:101CA0005361C2F8A040C2F8A400C2F8B0304B693A
:101CB0001A4AD807FBD5D2F8003145F60D5121203C
:101CC0009BB250618B4210D0164B08224FF4000497
:101CD0001A7015490020154A01230090521A144821
:101CE000224400F0C1F903B0F0BD4FF400044FF4FA
:101CF000802101231046C2F8A040C2F8A410C2F807
:101D0000B03043690549DB07FBD50120054B1022A4
:101D10004FF0807448611A70DBE700BF00402A4032
:101D2000040003002838002000000070000000704C
:101D300084380020F0B4174A40274FF480314FF424
:101D400080564FF400554FF4404443F2420013696B
:101D500013F0020F06D0946151619061136913F082
:101D6000020FF8D113F4005F01D15561EFE713F4CE
:101D7000805F01D15661EAE7002BE8DA13F4803F77
:101D800001D09161E3E75B0601D45761DFE7F0BC66
:101D9000704700BF00800D40394A03203949F3EEF7
:101DA000095A13689FED386A23F00103DFED376AA3
:101DB000F0B4136000241061D1F8E030344FD8B291
:101DC000C3F30B211B0D334E07EE100A05EE101A5C
:101DD00007EE903A304BB8EEC55A304DB8EEC77AA0
:101DE0003060F8EEE77A29602D4937EE466A2D4ECD
:101DF00077EEC57A2C4877EE666A2C4D37EE657A19
:101E000026EE276AC7ED007A66EEA76A176867EEC6
:101E1000277A83ED007AC6EE075A86EE876AC7EE08
:101E2000876A35EE857AFCEEC77A36EE057A17EECC
:101E3000903ABCEEC77A47EA035376EE857A136090
:101E400017EE103AD2F81071FCEEE77A01EA03417E
:101E5000394317EE903AC2F81011C3F30B03D2F8CE
:101E600010110B43C2F81031136843F002031360E2
:101E70003470C0F840510E4B0122F0BC1A6070471C
:101E800080810D4000441F400000AA420000B4427F
:101E90002C3700202437002028370020203700204E
:101EA0000000FF0F40E400E000280020F18D00005A
:101EB00008E100E0304B40F6617270B5C3F82021B4
:101EC00040F2044500F0D8F82C492D48D1F8802084
:101ED0002C4C42F003022C4BC1F88020C0F860511A
:101EE000226813401BB9D0F8A8319A071AD0244BA6
:101EF0004FF00041234A51631A46D3F8401141F094
:101F00000201C3F84011D2F840319B07FBD44FF4D3
:101F100000301E491B4B4FF00042086019209A63A5
:101F200000F0AEF81A4D0022164B4FF08041144CD1
:101F30000A26996328461A601146C4F8A8614FF42E
:101F4000207200F089F84FF4810640F243114FF4FB
:101F50008000104B104A2E602864C4F85851C4F811
:101F60004811C3F804220D4A4FF4003101231160D7
:101F7000C4F8403170BD00BF00800D4000C00F406C
:101F800000002E4000900D40001C1E008CE200E07E
:101F90000000002000280020BD8F00000CE100E0C0
:101FA00008B50E4B1B6E9B0700D4FBBE72B60C4BE4
:101FB00000200C4AC3F8400103F160430A49A3F52D
:101FC0005F2311649D46BFF34F8F084A03F5E0433A
:101FD00007491268184619609368984700441F40E3
:101FE00000002E4000C00A40030020001C0020001A
:101FF000000012EB114B1249D86E0A4640F44030F3
:1020000030B4D86640F23765D86EA02440F44070F2
:10201000D8664D648C64936C1B06FCD4094B40F26B
:102020003760A0211A4658649964936C13F08003BA
:10203000FBD1054A137030BC704700BF00C00F4091
:1020400000400C4000800C4027380020F8B500BF4D
:10205000F8BC08BC9E4670475FF800F035F0000001
:102060005FF800F0998200005FF800F08DA1000099
:102070005FF800F0BDE900005FF800F05D97000038
:102080005FF800F05D8500005FF800F0298900002E
:102090005FF800F08D87000045000000E9120000A5
:0820A0007528000049780000DA
:1020A80080C00F400000000319000000100000006D
:1020B800E8841F4001000000FF000000FF0000004E
:1020C80000000000000000001800000010000000E0
:1020D800E4841F4001000000FF000000FF00000032
:1020E80000000000000000001F000000A918000008
:1020F80070C00F40000C000011000000110000002B
:10210800E0841F40020000002C00000012000000C4
:10211800E0841F40010000001000000011000000D2
:10212800DC841F40020000002D00000012000000A7
:10213800DC841F40010000001E0000009D18000004
:1021480070C00F40C0000000120000001300000023
:10215800D0841F4001000000FF000000FF000000C5
:102168000000000000000000130000001300000041
:10217800CC841F4001000000FF000000FF000000A9
:1021880000000000000000001C0000009118000082
:10219800010101010101010016035500530042002D
:1021A8002000530065007200690061006C000000A7
:1021B80018035400650065006E0073007900640020
:1021C800750069006E006F000403090409024B00E2
:1021D800020100C032080B000202020100090400DB
:1021E800000102020100052400100105240101017B
:1021F80004240206052406000107058203100010C6
:1022080009040100020A000000070503024000005B
:10221800070584024000000009024B00020100C0CB
:1022280032080B0002020201000904000001020248
:1022380001000524001001052401010104240206FF
:1022480005240600010705820310000509040100A2
:10225800020A0000000705030200020007058402C5
:10226800000200000A060002EF020140010001001E
:102278000000000000000000000000000000000056
:102288000000000000000000000000000000000046
:1022980010B5054C237833B9044B13B10448AFF398
:1022A80000800123237010BD482C0020000000008E
:1022B80054FB0000084B10B51BB108490848AFF3A0
:1022C80000800848036803B910BD074B002BFBD0FA
:1022D800BDE81040184700BF000000004C2C00204B
:1022E80054FB0000C02A0020000000000022026504
:1022F800704700BF704700BF036D142B03D05A1CF2
:1023080040F8231002657047F8B5036D002B19DDFE
:1023180006460068B0B100243546274607E0013478
:10232800336D2F60A3420DDD55F8040F50B100F056
:1023380025F80028F3D12868013400F021F8336D1E
:10234800A342F1DCF8BD00BF30B400250124C16010
:1023580045758475026030BC704700BF30B40025F5
:102368000124426045758475C16030BC704700BF68
:10237800704700BF01230375704700BF407D704759
:10238800037D7BB1437D6BB9084A83681268C168D5
:10239800D31A8B4206D30368826023B11A681846A1
:1023A8001368184770474368184700BF8C370020E8
:1023B80010B50446044901F0DDFE58222046772175
:1023C80002F05CF8204610BD8C19002010B50446B8
:1023D80001F004FF204610BD38B50546214C0E21FA
:1023E800214809F061FE284602F0A2F82046B7EE1F
:1023F800C00A022107F0CCFF03211C4809F054FE53
:10240800204607F069FF0B21194809F04DFE2846C0
:1024180002F098F82046B7EEC00A022107F0B8FF8C
:102428000321144809F040FE204607F055FF0B2110
:10243800114809F039FE28469FED100A02F0C0F94C
:102448002046B7EEC00A022107F0A2FF02210C487D
:1024580009F02AFE204607F03FFF2046BDE8384035
:1024680007F03ABF9C1500201C0D00202C0D002001
:10247800300D00203C0D0020400D002000507D4410
:102488004C0D002008B51E21034809F00DFE034835
:10249800BDE8084007F020BF500D00209C15002023
:1024A80038B5044602F024FB0023012204F1D805C4
:1024B8001946284602F094FF28464FF4165102F0B8
:1024C800FFFF4FF47A7008F081F9204638BD00BF4D
:1024D800044B10B5044640F8D83F03F011F82046E5
:1024E80010BD00BFB805002038B504460A215E4873
:1024F80009F0DAFD2378002B00F09D80204602F0D9
:1025080031FE0621594807F043FF0121584809F0D8
:10251800CBFD204602F040FE0621544807F038FF64
:102528000D21544809F0C0FD94F83830002B7DD0B7
:1025380004F13805284602F05DFE00230A22014610
:102548004A4807F0D9FE01214B4809F0ADFD28465D
:1025580002F064FE002301460A22444807F0CCFE3C
:102568000121454809F0A0FD284602F02FFE01464A
:102578003E4807F001FF0121404809F095FD94F815
:102588004830002B49D04834204602F053FE092831
:102598005BD9204602F04EFE002301460A2233484A
:1025A80007F0AAFE0121364809F07EFD204602F018
:1025B8004DFE09284ED9204602F048FE0023014668
:1025C8000A222A4807F098FE01212D4809F06CFDDF
:1025D800204602F051FE092841D9204602F04CFE5F
:1025E800002301460A22214807F086FE01212548DA
:1025F80009F05AFD204602F053FE092820D920464A
:1026080002F04EFE002301460A22184807F074FE25
:102618001648BDE8384007F05FBE07211A4809F0A0
:1026280043FD1248BDE8384007F056BE072116485A
:1026380009F03AFD9FE70721134809F035FD6FE7D8
:102648000121124809F030FDD9E701210F4809F0AE
:102658002BFD9EE701210D4809F026FDABE701217E
:102668000A4809F021FDB8E7700D00209C150020EC
:102678007C0D0020880D0020980D0020940D00206E
:10268800300F0020A00D0020800D00209C0D0020A0
:102698002DE9F0410B4D80460F4600F1D8042E6815
:1026A800204602F015FE28B92B689B1BBB42F7D3C6
:1026B800BDE8F081204602F019FEC1B2404602F0A2
:1026C800E7FCEDE78C37002070B505460E46174845
:1026D800032109F0E9FC164805F1D80407F0FCFDD0
:1026E80006E002F003FEC1B2284602F0D1FCC0B9F0
:1026F800204602F0EDFD00282046F2DC314628464F
:10270800FFF7C6FF0B4A41F2883312689A4207D98D
:10271800D5F8C830092B03D8BDE87040FFF7B2BE22
:1027280070BD2846FFF7E0FEE2E700BFA40D0020D9
:102738009C1500208C370020704700BFF0B500F1D1
:102748004C05144E87B00F460446334628224FF0F6
:10275800FF31284601F010FA33463946282201A8ED
:1027680001F00AFA049A9DF8143028469DF808707A
:102778002146039EA26584F85C3084F85070666533
:1027880001F0D2F928460C2101F024FA204607B0BE
:10279800F0BD00BF4C18002010B598B00446074B98
:1027A80028224FF0FF314C3001F0E6F93721684616
:1027B800FFF7C4FF204618B010BD00BF4C1800201A
:1027C8008368012B10B504462DED068B4BD0032BE7
:1027D8004CD0022B4DD0042B4ED00B2B4FD00A2BB4
:1027E80050D0092B2ED004212B4809F05DFC9FED19
:1027F800288BB0EE489BB0EE48AB0421274809F07F
:1028080053FCB0EE4A0B0221254807F0C1FD062112
:10281800244809F049FCB0EE490B0221204807F092
:10282800B7FD0621204809F03FFCB0EE480B022115
:102838001B4807F0ADFD1A48BDEC068BBDE81040FB
:1028480007F04ABD0821194809F02EFC94ED05AAA5
:1028580094ED069A94ED078AB7EECAAAB7EEC99A1C
:10286800B7EEC88AC9E705211148EDE707211148E5
:10287800EAE704211048E7E705211048E4E70421C6
:102888000F48E1E707210F48DEE700BFAFF30080FC
:102898000000000080842EC1B00E0020B80E002079
:1028A8009C150020C00E0020C80E0020A40E002099
:1028B800740E00207C0E0020840E00208C0E002058
:1028C800940E00209C0E0020F0B500F14C04BBB023
:1028D8000E461A2204A9204601F02AFB0DA914224B
:1028E800204601F025FB16A92822204601F020FBEE
:1028F8001FA90E22204601F01BFB28A9082220460A
:1029080001F016FB2E2231A9204601F011FB04A884
:10291800FFF756FF0DA8FFF753FF16A8FFF750FF64
:102928001FA8FFF74DFF28A8FFF74AFF31A8FFF7B8
:1029380047FF204601F02CFA07462D48002507F0EE
:10294800CBFC0D212B4809F0AFFB3946284807F08E
:1029580013FD274807F0C0FC0DF10F020DF10E031F
:1029680003A9204600920DF10D028DF80F5001F0D9
:10297800DFF91F4807F0B0FC11211F4809F094FB4C
:102988002B460A229DF80C10194807F0B5FC0621C1
:102998001A4809F089FB2B460A229DF80D101448A5
:1029A80007F0AAFC0721164809F07EFB2B460A22ED
:1029B8009DF80E100E4807F09FFC0521114809F0FC
:1029C80073FB2B460A229DF80F10094807F094FC68
:1029D800074807F081FC02210B4809F065FB044811
:1029E80007F07AFC16B1642007F0F0FE3BB0F0BDAA
:1029F8009C150020D00E0020E00E0020F40E0020D0
:102A0800FC0E0020040F00200C0F002010B5044617
:102A1800FFF7C2FE04F16000FFF742FD04F5AE7057
:102A2800FFF7C6FC204610BD10B5044600F5AE7091
:102A3800FFF7CCFC04F16000FFF74AFD204610BD0B
:102A4800704700BF6030704700F5AE70704700BF38
:102A580000207047704700BF036D0BB1012070471D
:102A6800406D003018BF0120704700BF10B5044604
:102A7800806D18B10EF00EF90023A365236D2BB1FC
:102A880004F11800BDE8104006F03CBA636D002B55
:102A9800F6D110BDF0B5002395B04FF47A74234FEA
:102AA8001A460546183104A88DF804308DF80C3004
:102AB800129313930294009706F078FA129B53B37B
:102AC8005C20002608F03CF89DF804300446184ABB
:102AD80004A918302373029B22602361154A9DF8CC
:102AE8000C30A2602375666006F0CAF963684FF47B
:102AF8007A71114A0133A760A6652E712E732C6175
:102B08006360A9602A600D4B04A8009306F0FAF9E7
:102B1800284615B0F0BD139B002BD1D1064A2B7166
:102B2800AC602B732B612A60EDE700BF0007002023
:102B38002407002080070020C80600207005002018
:102B4800036D13B1184604F08FBD406D08B102F053
:102B580073BE4FF0FF307047836C00B583B063B12C
:102B6800184601220DF1070104F0B0FC01280CD130
:102B78009DF8070003B05DF804FBC06C28B1012282
:102B88000DF1070102F07EFDF0E74FF0FF30F1E7AD
:102B9800036DF0B50C4683B02BB318460DF1060251
:102BA80001A904F0C9FAD8B1BDF80430BDF806206F
:102BB80003B9AAB102F01F06C3F343155912C2F3B1
:102BC800451703F01F037600013D01F5EA61D212B3
:102BD80026706571A17123716770A27003B0F0BD92
:102BE800002003B0F0BD406D0028F9D00DF10602B9
:102BF80001A902F0C7FCD6E7036D9BB11A7812F061
:102C0800700F00D1704710B504460021184604F033
:102C180081FE606D28B100220023BDE8104002F05B
:102C280021BE10BD406D0028ECD090F8313013F073
:102C3800500FE7D00022002302F014BE38B5846D8F
:102C48000CB1204638BD05464FF480700EF01AF8D6
:102C58000146A86580B1286D0C7028B14FF48072C8
:102C680005F05CFEAC6DECE7686D40B14FF4807226
:102C780003F084FEAC6DE4E7024CAC65E1E70C467A
:102C8800DFE700BF263800208A79A2F150031B062F
:102C980021D402F26C72F0B54B7985B0046D013322
:102CA8000D798E784F78DBB209784CB103912046C4
:102CB800029702210196009504F04CFF05B0F0BD83
:102CC800406D0028FAD0039102218DE8E00003F05E
:102CD800BBFB05B0F0BD0020704700BFD0B5046D48
:102CE8008CB1012B08BF002A01D30020D0BD1146AA
:102CF800204604F00FFE0028F7D0204604F096FF87
:102D08000028F2D0D0BD446D002CEED0204602F051
:102D1800A9FD0028E9D02046BDE8D04003F062BCF8
:102D2800036DF0B50C4683B02BB318460DF10602BF
:102D380001A904F011FAD8B1BDF80430BDF8062095
:102D480003B9AAB102F01F06C3F343155912C2F31F
:102D5800451703F01F037600013D01F5EA61D21221
:102D680026706571A17123716770A27003B0F0BD00
:102D7800002003B0F0BD406D0028F9D00DF1060227
:102D880001A902F011FCD6E7036D13B1D86900213F
:102D98007047436D13B11869596970471846194649
:102DA800704700BF036D13B1586900217047436D28
:102DB80013B193E80300704718461946704700BFDF
:102DC800036D13B1184604F081BB406D08B102F0E1
:102DD80059BC4FF0FF307047836C13B1184604F0AC
:102DE80043BCC06C08B102F027BD4FF0FF307047FC
:102DF800036D33B11B7813F0700F14BF012000204E
:102E08007047406D30B190F8313013F0500F14BF57
:102E180001200020704700BF8A79A2F150031B06E9
:102E280021D402F26C72F0B54B7985B0046D013390
:102E38000D798E784F78DBB209784CB10391204632
:102E4800029704210196009504F084FE05B0F0BDB8
:102E5800406D0028FAD0039104218DE8E00003F0CA
:102E6800F3FA05B0F0BD0020704700BF00690028E4
:102E78002FD00368184A1B6993420ED1026D6AB1BC
:102E8800137803F0080303F0FF0013B3D369506904
:102E9800181A48BF6FF0004070471847416DC9B114
:102EA80091F8313003F0080303F0FF008BB1D1E94A
:102EB8000423D1E9000130B4101A4FF000056FF077
:102EC800004463EB01018D4208BF844200D22046D2
:102ED80030BC704708467047910E0000036963B123
:102EE8001A68074992698A4208D1186D08B104F036
:102EF8002BBE586D08B103F033B970471846104718
:102F0800A90C0000836C13B1184604F01DBEC06CF8
:102F180008B103F025B97047036D13B1184604F0E2
:102F280013BE406D08B103F01BB9704710B50369B3
:102F380082B08DF80710BBB11968104ACC6894426A
:102F480015D1186D30B101220DF1070104F0AAFE68
:102F580002B010BD586D0028FAD001220DF107010A
:102F680003F0B2FB02B010BD184602B010BD01223A
:102F78000DF107011846A04702B010BD950D0000DD
:102F8800036973B11A68084952698A4207D1186DF2
:102F980008B104F069BB586D18B102F04DBC184671
:102FA80010474FF0FF307047D1080000036923B382
:102FB8001968134A10B58C6882B0944214D1186D00
:102FC80048B101220DF1070104F080FA90B19DF893
:102FD800070002B010BD586D0028F8D001220DF18D
:102FE800070102F04FFBF1E7184601220DF1070136
:102FF800A047EBE74FF0FF30EBE74FF0FF307047AB
:10300800510B0000036D13B1184604F04BBE406D20
:1030180008B103F059BB7047836C13B1184604F02C
:1030280041BEC06C08B103F04FBB704700B5836C5C
:1030380083B08DF8071043B1184601220DF107013E
:1030480004F030FE03B05DF804FBC06C0028F9D032
:1030580001220DF1070103F037FB03B05DF804FB13
:1030680003698BB10E4810B41C68E468844211D11E
:10307800186D18B15DF8044B04F014BE586D28B1F2
:103088005DF8044B03F020BB0020704700205DF87A
:10309800044B7047184623465DF8044B184700BF99
:1030A800950D0000826C62B1137803F0080303F0F9
:1030B800FF000BB3D3695069181A48BF6FF000407E
:1030C8007047C16CC9B191F8313003F0080303F0BF
:1030D800FF008BB1D1E90423D1E9000130B4101A03
:1030E8004FF000056FF0004463EB01018D4208BF0B
:1030F800844200D2204630BC70470846704700BF63
:10310800026D62B1137803F0080303F0FF000BB3FC
:10311800D3695069181A48BF6FF000407047416D75
:10312800C9B191F8313003F0080303F0FF008BB107
:10313800D1E90423D1E9000130B4101A4FF0000599
:103148006FF0004463EB01018D4208BF844200D256
:10315800204630BC70470846704700BFD0B4039C77
:1031680016461F4634B1012C1ED0022C0DD000206B
:10317800D0BC7047046DDCB1012B08BF002AF6D221
:1031880020461146D0BC04F0C5BB036DB3B1DA6963
:10319800B61847F10007012F08BF002EE7D23146C5
:1031A8001846D0BC04F0B6BB036D93B15A69EFE77B
:1031B800406D0028DBD0D0BC02F054BB436D002B1F
:1031C800D5D01846D3E9042392197B41D0BC02F02C
:1031D80049BB436D002BCAD01846D3E90023921986
:1031E8007B41E8E738B504460C4B806D236018B185
:1031F8000DF050FD0023A365236D04F118054BB1B4
:10320800284605F07FFE064B2846A36005F07AFEA7
:10321800204638BD636D002BF2D1F4E72407002067
:103228007005002038B504460E4B806D236018B138
:103238000DF030FD0023A365236D04F118056BB173
:10324800284605F05FFE084B2846A36005F05AFEA5
:1032580020465C2107F076FC204638BD636D002BC4
:10326800EED1F0E7240700207005002070B5254B4B
:103278000546046903601CB16668013E66600EB1CC
:10328800284670BD2368204ADB6A93422CD1A06D82
:1032980010B10DF0FFFCA665236D5BB304F11800B7
:1032A80005F030FE2C69002CEAD02368174A5B68C9
:1032B80093421CD1164BA06D236018B10DF0EAFCA7
:1032C8000023A365236D04F11806BBB1304605F051
:1032D80019FE104B3046A36005F014FE20465C2111
:1032E80007F030FC284670BD20469847DAE72046AC
:1032F8009847C5E7636D002BD0D1D3E7636D002BEA
:10330800E4D1E6E7C8060020FD070000B50F00007D
:10331800240700207005002070B5294B0446056974
:1033280003601DB16E68013E6E602EB12046142107
:1033380007F008FC204670BD2B68224ADB6A9342DE
:1033480030D1A86D10B10DF0A5FCAE652B6D7BB327
:1033580005F1180005F0D6FD2569002DE6D02B688B
:10336800194A5B68934220D1184BA86D2B6018B19D
:103378000DF090FC0023AB652B6D05F11806DBB151
:10338800304605F0BFFD124B3046AB6005F0BAFD84
:1033980028465C2107F0D6FB2046142107F0D2FB13
:1033A800204670BD28469847D6E728469847BDE787
:1033B8006B6D002BCCD1CFE76B6D002BE0D1E2E732
:1033C800C8060020FD070000B50F000024070020F4
:1033D80070050020024B00211868FFF775BA00BF7E
:1033E80028350020024B4FF47A711868FFF76CB942
:1033F80024350020014B1868FEF7EEBF1035002079
:1034080008B50B21054808F04FFE054806F064FF93
:103418004FF47A70BDE8084007F0D8B94C0F002087
:103428009C15002010B50F4C217861B90D2007F0CC
:1034380099FA03210C4808F037FE0C4806F04CFFB7
:103448000123237010BD01210D2007F08BFA022102
:10345800074808F029FE054806F03EFF00232370C0
:1034680010BD00BF182400205C0F00209C15002010
:10347800580F00202DE9F843264D01210D20264C38
:1034880007F07CFA254F2E6840F2EE28DFF8B89056
:1034980004E0B3F5FA6F15D808F08CFE08F08AFE40
:1034A800237843B13B78DB0705D52B68D9F8002092
:1034B8009B1A0E2B06D82B6822789B1B002AE8D172
:1034C8004345E9D91648FEF755FF15491548FEF753
:1034D80013FF1548FFF7B4FA144B18601248FFF7AA
:1034E800B1FA134B18601048FFF7AEFA114B186089
:1034F8001148FEF73FFF1148FEF73CFF1048FEF762
:1035080039FF1048FEF736FF0E490648BDE8F84374
:10351800FEF7F2BE8C370020303800202F3800200C
:10352800B0370020343700208435002028350020AB
:103538002435002010350020F0370020D037002037
:10354800903700202C3500209C3800200148FEF7D9
:10355800DBBE00BF343700202DE9F041294F4FF47E
:103568007A71294C294D3846294E2A4AFEF7ECFE35
:1035780022462946384608F089FF274F3046DFF8AB
:10358800C080FFF743FA22462449304608F07EFF00
:10359800234E3846FEF7AAFE22463846214908F04F
:1035A80075FF3046204A41F28831FEF7D7FE2246A1
:1035B8002946304608F06AFF1C4F40461C4A4FF423
:1035C800FA611C4EFEF7CAFE22462946404608F01C
:1035D8005DFF3846184A4FF4FA61FEF7BFFE2246EF
:1035E8002946384608F052FF3046144A4FF4FA612B
:1035F800FEF7B4FE224629463046BDE8F04108F001
:1036080045BF00BF2C3500204015002001010000F7
:1036180084350020FC23002034370020B90700003F
:10362800B037002085000000B5110000D037002019
:103638006511000090370020751100008511000009
:10364800F037002090F8A32090F8A200101A7047D5
:1036580090F8A23090F8A3209A4205D95A1C034446
:1036680080F8A220987E70474FF0FF30704700BF67
:1036780090F8A23090F8A3209A4202D90344987E89
:1036880070474FF0FF307047704700BFB0F83031D7
:1036980093B190F82F31882B0BD8C21810B45C1C4A
:1036A800012380F82F41184682F8A5105DF8044BD5
:1036B80070470122002302711846704738B5054645
:1036C800B0F8300190B195F82F311446C3F1890252
:1036D80094420CD805F1A5002246184407F096F943
:1036E80095F82F3120461C4485F82F4138BD1446E3
:1036F80001222A71EEE700BF2DE9F04F83464048CA
:1037080083B01525DBF814A09BF818609BF81930D6
:103718000AEB06163B490AEB0313DFF8ECE0367AAE
:103728000C4693F828303601DFF8E0901B01871922
:1037380050F8068000EB030CC658F8687B68DCF884
:103748000C7000931D60C8F88400D8F80430DCF8C9
:10375800042003430192C8F804301560C6F8847049
:1037680073683B4373600968DEF80030A9FB0332D5
:10377800920C02EB8202520023685B1A9A42FBD831
:10378800204A0925DFF884C09146D8F80830184245
:1037980002D0B3681F4231D1C6F888701468DEF8C9
:1037A8000010ACFB0131890C01EB810113681B1B74
:1037B8009942FBD8C6F88470D9F80040DEF80010AA
:1037C800ACFB0131890C01EB810113681B1B994289
:1037D800FBD8013DD9D128469BF81830009A0AEB4E
:1037E8000313DB6813609BF81930019A0AEB031A7C
:1037F800DAF82C30136003B0BDE8F08F0120EBE756
:103808009C090020041000E04815002083DE1B43BB
:103818000D49026910B50C6805E0DB0107D40B6897
:103828001B1B102B08D8536913F0007FF5D14FF4F8
:10383800FE430120536110BD0446FFF75DFF0028D9
:10384800F9D02269F3E700BF8C3700202DE9F04753
:1038580090F82FA1BAF1000F02D10420BDE8F0873B
:1038680005460E46FFF7D4FF0028F6D02E4F002459
:103878004FF40079D7F80080544529691AD8CB6DE0
:1038880003F00703032B09D914E095F8A5200133A9
:10389800012442F48062042B0A660BD02A19002CFA
:1038A800F3D0A24527D9013392F8A5200134042B7F
:1038B8000A66F3D14B69180522D45A0527D498040F
:1038C80004D43A68C8EB0202322A09D90B694FF4CA
:1038D8000072042043F440730B610A66BDE8F08768
:1038E800544505D9CA6D520702D19B0519D4C6B1F2
:1038F80008F060FCC0E70EB1C1F860900134D9E768
:103908000B69042043F440730B61BDE8F0870B6931
:103918004FF40072022043F440730B610A66BDE85D
:10392800F0870020BDE8F0878C3700202DE9F84F9C
:103938000C46154698468146FFF76AFF10B90420E1
:10394800BDE8F88F00226300002D40F2014A1446BA
:10395800DBB23D4E08BF0125022C43EA0A0AD6F81D
:1039680000B089F8A22089F8A32048D9D9F81030E6
:1039780099F8A320872A12D8D96DC1F3024111B949
:103988000DE0882A0BD002F1010E09EB0200013983
:103998005FFA8EF289F8A3201F6F8776F1D15A69F2
:1039A80010054CD412F4105F04D13168CBEB01013F
:1039B800322912D91A694FF4007142F440721A611F
:1039C8001966DA6D12F4E02F03D01A6942F4007216
:1039D8001A6199F8A300BDE8F88F99F8A310A942D5
:1039E80009D3022C07D9D96D490704D19205E8D427
:1039F800B8F1000FE5D008F0DDFB022CB6D8D9F8F5
:103A08001020D36D03F00703032B0DD8691E4FF464
:103A1800007041F480714CB9C2F860A0013B0134D8
:103A2800032B01D8022CF6D91346A1E7012C04D0A8
:103A3800B8F1000FF2D01066F0E71166EEE71A69E8
:103A480042F440721A61BCE78C370020036970B5F4
:103A5800D3F81451044615F4706201D0C3F8142148
:103A6800AE070BD5D3F87011080442D50022012007
:103A780084F8A220224484F8A3009176EA0710D59E
:103A880094F8306116B394F82E6194F82F21B2425D
:103A98002BD9721C264484F82E2196F8A520C3F849
:103AA8006021AB0511D594F8A30018B1D4F83C31C6
:103AB80003B19847002384F8A23084F8A33084F82F
:103AC8002E3184F82F3184F8303170BDD4F8382184
:103AD8000AB1904723690122002184F8302194F823
:103AE8002F2184F82E11B242D3D80022C3F86021C6
:103AF800D7E794F8A320872AC0D8501CC0B2B9E7EA
:103B08000148FFF7A3BF00BF4C1800200148FFF78A
:103B18009DBF00BF8C1900200148FFF797BF00BF69
:103B2800CC1A0020704700BF70B50C460546282205
:103B38000021204601260DF0B5FB0B22084920463E
:103B48000DF0B4FE002200230320E2720549ED685F
:103B5800E6602561626260612162A361E36170BD14
:103B6800600F00200AD7233C10B50446142106F044
:103B7800E9FF204610BD00BFF8B5044600250848F7
:103B880016461F46E16020601020A56006F0D8FFA9
:103B980005463A46314608F055FEA5602046F8BD70
:103BA800DC05002030B5024685B00C4600213D25D5
:103BB80080680123147402220191009103A98DF8F1
:103BC8000D408DF80C5008F073FE1E2006F0FEFD27
:103BD80005B030BD2DE9F0470646884684B000217F
:103BE8008068552408F054FE04E00A2006F0EEFD33
:103BF800013C2CD00121B06808F04AFE0546002897
:103C0800F3D004AC4FF000090127B068CDF8049058
:103C18003A4604F8049D00972346214608F0DAFE48
:103C28009DF80C30A02B17D04FF47A7006F0CEFD1B
:103C3800B0682346CDF804903A46009721468DF89F
:103C48000C9008F0C7FE9DF80C30A02B04D000257E
:103C5800284604B0BDE8F08700213046FFF7A2FFF0
:103C680000273F214FF0200E0123B0688DF80C107B
:103C7800022201972146009799468DF80DE008F039
:103C880017FE1E2006F0A2FDB06823460197012208
:103C9800CDF8009021468DF80C7008F09BFE9DF839
:103CA8000C304FF0000A0A20A02BEBD13E2732201F
:103CB80006F08CFDB0682146012302228DF80C70B5
:103CC800CDF804A00727CDF800A08DF80DA008F0C6
:103CD800EFFD0A2006F07AFDB06821468DF80C70D9
:103CE800CDF804A00123CDF800A002223F278DF8CB
:103CF8000DA008F0DDFD01230222B0682146CDF8B1
:103D080004A0CDF800A08DF80DA08DF80C7008F077
:103D1800CFFD0A2006F05AFD41463046FFF742FF24
:103D2800142006F053FD284604B0BDE8F08700BF14
:103D38002DE9F04184B04FF0350C4FF0000E01250D
:103D480004AC88468068174604F804CD1E46214610
:103D58002346CDF804E02A4600950A9C08F03AFE6E
:103D68009DF80C30B8F1000F02D09A0988F80020AD
:103D780017B1C3F301123A7016B1C3F3810232705E
:103D880014B103F00303237004B0BDE8F08100BF51
:103D980010B584B001223421002404AB806803F8F4
:103DA800041D19468DE8140008F014FE9DF90C0056
:103DB80004B010BD00000000F0B587B0002516461D
:103DC800062706AA0560456004AB02F80C6D044698
:103DD8008560083EC56005614561886811460195A2
:103DE800012200970495ADF8145008F0F3FD9DF8F2
:103DF80010309DF811009DF8135043EA00209DF8FB
:103E080012109DF815209DF8143041EA052100B2E2
:103E180043EA022309B21BB2262E2FD8DFE806F0A8
:103E2800142E2E2E2E2E312E2E2E2E2E312E2E2EBE
:103E38002E2E312E2E2E2E2E2E2E2E2E2E2E2E2E97
:103E4800142E2E2E2E2E140007EE900AB8EEE75BE5
:103E580007EE901AB8EEE76B07EE903A9FED184B15
:103E6800B8EEE77B85EE043B86EE045B87EE046BD9
:103E780084ED003B84ED025B84ED046B204607B0C3
:103E8800F0BD07EE900A2046B8EEE75B07EE901A01
:103E9800B8EEE76B07EE903A9FED0B4BB8EEE77B79
:103EA80025EE045B26EE046B27EE047B84ED005BB5
:103EB80084ED026B84ED047B07B0F0BDAFF30080A6
:103EC8000000000000005940000000000000B03F62
:103ED800F0B50C46242587B006462A460021204620
:103EE80003270DF0DFF9104BF06831461B681A22E2
:103EF800606068462560A7602361FFF75DFF0120C9
:103F08009DED005B9DED026B9DED047BB7EEC55BFF
:103F1800B7EEC66BB7EEC77B84ED055A84ED066A2B
:103F280084ED077A07B0F0BD8C3700200000000050
:103F3800F0B524268DB00C4607461546084632468D
:103F480000210DF0AFF95A4A0023F9681268282DAC
:103F580026606160226101930093029303930493A6
:103F680005933AD0082D4FD02E2D64D01A2D00F08D
:103F78008A80142D04D00E2D74D001200DB0F0BD10
:103F880004232A46394606A8A3600CADFFF714FFA0
:103F980006AB6A46F3E80201AB42E2E80201F9D156
:103FA8009FED414B9DED005B9DED026B9DED047B0C
:103FB80025EE045B26EE046B27EE047B0120B7EEAA
:103FC800C55BB7EEC66BB7EEC77B84ED055A84EDCB
:103FD800066A84ED077A0DB0F0BD0A232A463946F1
:103FE80006A8A3600CADFFF7E7FE06AB6A46F3E848
:103FF8000201AB42E2E80201F9D19DED005B9DEDC3
:10400800026B9DED047BD9E701232A46394606A8B1
:10401800A3600CADFFF7D0FE06AB6A46F3E80201D9
:104028009D42E2E80201F9D19DED005B9DED026B36
:104038009DED047BC2E709232A46394606A8A360FA
:104048000CADFFF7B9FE06AB6A46F3E80201AB42D6
:10405800E2E80201F9D19DED005B9DED026B9DED5B
:10406800047BABE702232A46394606A8A3600CADB9
:10407800FFF7A2FE06AA6B46F2E80201AA42E3E8AD
:104088000201F9D1B9E703232A46394606A8A360F5
:104098000CADFFF791FE06AB6A46F3E80201AB42AE
:1040A800E2E80201F9D1A8E7000000A046DF913F4D
:1040B8008C370020704700BF704700BF10B504461A
:1040C800102106F03FFD204610BD00BF10B5044684
:1040D800102106F037FD204610BD00BFF8B50C468C
:1040E800064628220021204601270DF0DBF80B2286
:1040F800094920460DF0DAFB00230D250748E37235
:104108000749B668074AE760266163626561E0614E
:10411800A1612262F8BD00BF680F0020000020C224
:104128000000AA420AD7233CF8B50C4606462822C6
:104138000021204601270DF0B5F80B220949204639
:104148000DF0B4FB002306250748E3720749B6685B
:10415800074AE760266163626561E061A1612262E6
:10416800F8BD00BF680F0020000096430080894416
:10417800A69B443C38B504460025102094F8382006
:1041880094F83C3002F08002216003F0C0036560BF
:1041980065F3C712A56065F38713E56084F83820D6
:1041A80084F83C302561A56106F0CAFC094903463C
:1041B8004FF48C72E0601020DC6019609A6006F0A1
:1041C800BFFC054A034620469D60DC6023611A60F7
:1041D80038BD00BF90060020AC06002038B58568C1
:1041E800044635B1284608F00FFC2846142106F08D
:1041F800A9FC606810B1102106F0A4FCE06848B181
:1042080003685B689847206910B103685B68984742
:10421800204638BD20690028F7D1F9E730B5436852
:1042280085B08DF80D206BB104AC0025184602222C
:1042380004F8041D012321460195009508F038FB78
:1042480005B030BD01F07F0204A98068009301F831
:10425800042D022208F0B0FD05B030BD30B5446829
:1042680085B074B104AB01220025204603F8041D73
:1042780019468DE8240008F0ADFB9DF80C0005B048
:1042880030BD04AB012261F07F01FF24806803F890
:10429800041D19468DE8140008F0C4FD9DF80C00B3
:1042A80005B030BD426830B585B09AB104AB002581
:1042B8000224104603F8041D012219468DE8300037
:1042C80008F088FB9DF80C009DF80D3043EA0020AB
:1042D80005B030BD04AB61F07F01FF25022403F86F
:1042E800041D0122806819468DE8300008F09AFD07
:1042F800E8E700BF426830B585B0BAB104AB002525
:104308000324104603F8041D012219468DE83000E5
:1043180008F060FB9DF80D309DF80C201B029DF8FD
:104328000E0043EA0243184305B030BD04AB61F008
:104338007F01FF25032403F8041D01228068194624
:104348008DE8300008F06EFDE4E700BF38B504469C
:10435800FA21FFF7CFFFDFED117A218CB4F9242081
:10436800C1EB2023B4F92250490003FB03F3C1EB4E
:10437800E0101B1305FB00F002FB03F39B1303EB98
:10438800E02000EB8003E06180331B1200EE103A5E
:10439800B8EEC00A80EE270A38BD00BF0000C84248
:1043A80070B50C462425064600212A4620460CF006
:1043B80079FFF0680A4B0D21B6681A688369A16015
:1043C800226184E860002BB99FED060A012084ED84
:1043D800050A70BDFFF7BAFF012084ED050A70BD1C
:1043E8008C3700200000C07F10B588210446FFF7F5
:1043F80059FF43BA8A2120462384FFF753FF43BA63
:104408008C2120466384FFF74DFF43BA8E21204656
:10441800A384FFF747FF43BA90212046E384FFF7C0
:1044280041FF43BA922120462385FFF73BFF43BA59
:10443800942120466385FFF735FF43BA962120462D
:10444800A385FFF72FFF43BA98212046E385FFF79E
:1044580029FF43BA9A2120462386FFF723FF43BA50
:104468009C2120466386FFF71DFF43BA9E21204604
:10447800A386FFF717FF40BAE08610BDF8B50446DB
:104488008068154658B108F0C9FA30B1D0212046E5
:10449800FFF7E4FEA842A06117D00020F8BD6068CD
:1044A8000E4610B1102106F04DFB102006F048FB17
:1044B80007463146226808F0C5F967603846012189
:1044C80008F0E6F90028E1D1E7E72046FFF78CFF7E
:1044D800A36923B9642006F079F90120F8BD94F89E
:1044E8003C30052594F83820204663F03F03F52139
:1044F80002F0C70265F302036FF3020265F3C50316
:1045080084F83820C2F3C01284F83C30FFF786FEE6
:1045180094F83C202046F421C2F3C20302F00704B9
:104528009B0043EA441343EA9212FFF777FED1E770
:10453800836913B99FED020A7047FFF707BF00BFF1
:104548000000C07F8369002B00F010812DE9F04F37
:10455800064687B0FFF7FAFEF7213046FFF7CAFE96
:10456800F469B6F92820E517B4F5FA34B6F92AA0A3
:104578004FEAE27345F1FF35A4FB04784FEAEA7B82
:10458800059004FB05FE02FB05FCCDE9007808EB6D
:104598004E0704FB03CCA2FB042301976344DDE927
:1045A80000891F030AFB09FE130347EA1257F28C1E
:1045B80008FB0BEEAAFB08AB98460023F3444FEA2E
:1045C8001A2040EA0B604FEA2B2118EB000ACDE9CC
:1045D800022347EB010B1AF10000DDE902894BF5D4
:1045E8000041A0FB08AB08FB01BB4FEA6B024FEA96
:1045F800EB7352EA030100F0B480B6F92EA00599D6
:104608004FEAEA7B0AFB05FE0F11AAFB040104FB33
:104618000BEEB6F93040C7F580174FEA404AE51768
:104628007144CDE90245DDE90089029D4FEA414B1D
:10463800B6F92C4005FB09FE039D4BEAD03B08FB6D
:1046480005E1029DF807A5FB0889E5178944F917D4
:1046580018EB0A08CDE902450D4602994FF000040F
:1046680049EB0B09C90000940191E907DDE9004510
:1046780041EA570114EB080445EB0905001B61EBFF
:104688000501041841EB010524184D414FEA841A2D
:104698004FEA851B1AEB040A4BEA946B4BEB050BAC
:1046A8004FEA8A054FEA8B0444EA9A7415EB000A2C
:1046B80044EB010B4FEA8A054FEA8B04401944EAA0
:1046C8009A7461410CF0DEF8B6F936204FEA613C85
:1046D800B6F934404FEA503EB6F932A002FB0CF767
:1046E800D3174EEAC14E04FB01F6E5170EFB03771C
:1046F8004FEAEA7BA2FB0E2300FB05663B4402FB64
:104708000CFCA4FB00450EFB03CCA2FB0E23354496
:104718004FEAD4486344560E48EA453846EAC31679
:104728005F1680194FEAE5494FEA0A12794110EB02
:1047380008004FEA0B1341EB0901040A43EA1A7314
:1047480044EA01640D12101943EB05010CF05CF802
:104758009FED080A07EE900A27EE800A07B0BDE829
:10476800F08F9FED050A07B0BDE8F08F9FED030AB3
:10477800704700BF0000803B000000000000C07FC1
:1047880070B50C46242605460021324620460CF01A
:1047980089FD094BA96806221B68E86826606160E4
:1047A800A2602361FFF7CEFEDFED047A012080EEE0
:1047B800270A84ED050A70BD8C3700200000C84226
:1047C80008B52DED028BB0EE408AFFF7BBFEDFED9A
:1047D800107A80EE270A9FED0A1BC0EE087AB7EE22
:1047E800E70A0BF035F8B7EE007B9FED076B37EE65
:1047F800400BBDEC028B20EE060BB7EEC00B08BDDC
:1048080000000020C05BC83F0000000040A5E54054
:104818000000C84210B582B00468012202AB03F858
:10482800011D19466368984702B010BD704700BF64
:10483800F8B54FF47A720F4BDFF840E00721826039
:104848000A26022203600C4F002309250446C0F8FB
:1048580010E0416119468761C661056242620371D1
:1048680003738362C36203634363836305F04AFE91
:104878002046F8BD680800204C15002000127A0078
:10488800F8B504460E46007F0021154606F06AF882
:10489800A369D4F810E0DA7C6069002A00F08B8004
:1048A80072B6DA7CD70706D552495A690F683A407A
:1048B8009A620A60DA7C910706D54F499A690F68AF
:1048C8003A40DA620A60DA7C570706D54B49DA695A
:1048D8000F683A401A630A60DA7C110706D548491E
:1048E8001A6A0F683A405A630A60DA7CD7066AD4B3
:1048F80062B69A68A769724561D0424AC3F808E06F
:1049080092694149C2F3011CC2F3826251F82C102A
:104918000132B1FBF2F2BEF1000F52D0B2FBFEF150
:1049280041B1B2FBF1F2724588BF0131B1F5817F27
:1049380050D33649D9601A684FF0000C03234FF062
:10494800010EC2F810C053623B6811641066C2F8C9
:1049580010E05E66D96D11F4F81FFBD05A6F5D66E2
:10496800DA6D12F4F81FFBD05D6FFB7CEDB2E3B19A
:10497800DE0703D5264BBA6A1A60FB7C980703D575
:10498800244BFA6A1A60FB7C590703D5224B3A6B11
:104998001A60FB7C1A0703D5204B7A6B1A60FB7CE4
:1049A800DB0602D5BA6B1E4B1A60207F012105F089
:1049B800D9FF2846F8BD9A681F4672459DD1D96827
:1049C800B9E71146ACE717495A6A0F683A409A6343
:1049D8000A608DE702290AD902394FEA510E4FEAD7
:1049E8000E4241EA0E2102F47F021143A2E70021A0
:1049F800A0E700BF80E100E084E100E088E100E09A
:104A08008CE100E000C00F4084080020FF7F7F0099
:104A180000E100E004E100E008E100E00CE100E072
:104A280010E100E090E100E010B5044600221321F7
:104A3800FFF726FFE36AC01A10BD00BF036810B570
:104A48001B690446984740B1E36A002220460133B7
:104A58001146E362FFF714FF10BD4FF0FF3010BDA1
:104A68002DE9F04117460C46002222210546FFF7A2
:104A780007FF00EB0708B8F1FF0F03D9C0F1FF07E4
:104A880000EB070847B1E61914F8012B80212846E6
:104A9800FFF7F6FEB442F7D15FFA88F22846A22162
:104AA800FFF7EEFE3846BDE8F08100BF036870B539
:104AB8001B690446984790B100220D212046FFF754
:104AC800DFFE0022064620461146FFF7D9FE0546BE
:104AD800324620468D21FFF7D3FE284670BD4FF0A1
:104AE800FF3070BD0148FFF7A3BE00BF642C002053
:104AF8000022022102704270828082600273028268
:104B0800426102768283026280F824200285C262B2
:104B180080F8302080F8382080F83920C26380F887
:104B2800482080F84920C26480F8582080F859202D
:104B3800026680F8682080F86920026780F878208B
:104B480080F87920C0F8802080F8882080F88920B3
:104B5800C0F8902080F8982080F89920C0F8A0200C
:104B680080F8A82080F8A92080F8BA2080F8BB2017
:104B780080F8BC20C0F8C020C0F8C420C0F8C82005
:104B8800C0F8CC20C0F8D020C0F8D42080F8AA20E3
:104B980080F8B910704700BF38B5057804462D2D48
:104BA80008BF013420460CF031F823786422A3F1C1
:104BB800300102FB00F0092905D814F8013FA3F1E0
:104BC8003002092AF9D92E2B03D02D2D08BF4042D7
:104BD80038BD6378303B092BF7D8A27803EB830301
:104BE800303A00EB4300092A98BF80182D2D08BFE2
:104BF800404238BD70B50D4604460CF007F81B4B13
:104C080064261B4AA3FB001359092980237806FB55
:104C18001100A3F1300102FB00F0092905D814F8AE
:104C2800013FA3F13002092AF9D92E2B0AD000EB53
:104C3800800000220F4B01302A72A3FB00235B087F
:104C48006B6070BD61780134A1F13002092AEED899
:104C5800074B094EA6FB031314F8011FDB0803FBDF
:104C68000200A1F13002092AF4D9E0E71F85EB51CF
:104C780080969800ABAAAAAACDCCCCCC2DE9F0415D
:104C880090F8A96004463EB390F8AA30A3F1410217
:104C9800052A7FD9A3F16102052A94BFA3F157021F
:104CA800A3F1300294F8AB301201A3F14101D2B262
:104CB800052900F29780373B134494F8A820DBB20B
:104CC8009A4200F09C80D4F8D03000260133C4F812
:104CD800D0303046BDE8F08190F8BA301BBB00F107
:104CE800AA07B24938460CF047FB002840F0BF80BD
:104CF800012384F8B930D4F8C050C4F8C4502DB991
:104D0800E7E72D6BC4F8C450002DE2D03946A86AF5
:104D18000CF032FB0028F4DBDBD000233046C4F86B
:104D2800C430BDE8F08190F8B920022A3AD090F852
:104D3800AA10B9B343EA4213013B282B32D8DFE863
:104D480013F053014D0145013F012D0126012C00AF
:104D580020011A01310031003100310031003100E9
:104D680031003100310031003100310031003100B3
:104D780031003100310031003100310031003100A3
:104D88003100530112014D0145013F012D010D0173
:104D980008010301A3F1370284E7AA300BF036FFBC
:104DA800C4F89400D4F8C450002D92D02B4604F1D6
:104DB800AA0704E02D6B002D8BD0D4F8C430996A73
:104DC800A86A0CF0D9FA002883D1EA6A94F8BA30B4
:104DD8009A423FF77EAFEDD11022394628460CF0B3
:104DE80065FDE7E7A3F16101052994BF573B303B17
:104DF800134494F8A820DBB29A427FF464AFD4F845
:104E0800D43094F8BC200133C4F8D430002A45D0FB
:104E1800D4F8CC2094F8B9300132C4F8CC20002B57
:104E280000F0E780012B52D0D4F8C450002D3FF495
:104E380050AF2B46DFF88481012710E005F1100000
:104E48000CF004FCD8F8003085F8257085F824703B
:104E58002B622D6B002D3FF43CAFD4F8C430996A17
:104E6800A86A0CF089FA29460028E7D031E75049AA
:104E780038460CF081FA00283FF43AAF4D493846DD
:104E88000CF07AFA00285BD04B4938460CF074FADB
:104E9800002855D0022384F8B9302CE794F8B930AB
:104EA800002B00F0E880012BBED1444A206C156825
:104EB800216D126884F8393084F8383084F8493024
:104EC80084F8483065646265E063E164ACE73B4AB6
:104ED800A646204684F839305EF81C1F1768DEF8AD
:104EE80004C06764276C6160C4F808C0E7639EF873
:104EF80008701168277350F8287F61654568216D2F
:104F08006561E1641568616E2761077A106821663A
:104F180084F8383084F8493084F848302776656357
:104F280063702370E06584F859301168626FE16638
:104F380084F8583084F8693084F86830226773E759
:104F4800002384F8B930D6E6AA300BF05FFE20645F
:104F580028E7AA30FFF720FE606723E7AA30FFF7AB
:104F68001BFE60661EE7A1F14101B1FA81F1490912
:104F780080F8BC1016E7AA30FFF70EFEC4F88400CC
:104F880010E7AA30FFF708FEC4F8A4000AE73029A2
:104F980094BF0021012180F8BC1003E7A1F157015B
:104FA800B1FA81F1490980F83010FBE6700F002052
:104FB800780F0020800F0020880F00208C370020F9
:104FC80000F12801AA30FFF715FEEBE6A1F1530125
:104FD800B1FA81F1490980F82410E3E600F11C01D7
:104FE800AA30FFF707FEDDE6AA30FFF7D5FD2065FA
:104FF800D8E62746216D254B012257F81C0FE1649E
:10500800796860602046A1603F7AD3F800E0277392
:1050180050F8287FD4F884104568276165611D68B9
:10502800077A186884F8492084F84820C4F854E0BE
:10503800277684F8792084F8782065636270227076
:10504800E067C4F8801001221D68D4F8941018682D
:10505800D4F8A430C4F88C50C4F89C00C4F890105C
:1050680084F8892084F8882084F8992084F8982086
:10507800C4F8A030D8E6054B0122206D1968E06419
:10508800616584F8492084F84820DCE78C370020E3
:10509800D0F8C82038B501320346A1F10A00C3F898
:1050A800C820222840D8DFE800F0183F3F183F3FCB
:1050B8003F3F3F3F3F3F3F3F3F3F3F3F3F3F3F3FF8
:1050C8003F3F3F3F2F3F3F3F3F3F183F120093F87E
:1050D800A82082F02C0283F8A8201D4693F8BB3044
:1050E8000C460E2B33D90020A4F12A0195F8BA30CA
:1050F8000022B1FA81F1013385F8BB20490985F80E
:10510800BA3085F8A91038BD0022022183F8BB20E7
:10511800104683F8BA2083F8A82083F8A92083F8DA
:10512800BC2083F8B91038BD93F8BB200D2A05D8E8
:10513800501C1A4483F8BB0082F8AA1093F8A900FF
:1051480068B993F8A820514083F8A81038BD2B44BB
:105158000022284683F8AA20FFF790FDC4E7002024
:1051680038BD00BFD0ED027A0022DFED0A6AB8EE42
:10517800677A8388427000EE103A037BC7EE267A7E
:10518800B8EEC00A37EE800AB7EEC00A0BB1B1EE2E
:10519800400B7047286B6E4ED0ED057A0022DFED8C
:1051A8000A6AB8EE677A038A427000EE103A037E04
:1051B800C7EE267AB8EEC00A37EE800AB7EEC00A04
:1051C8000BB1B1EE400B7047286B6E4E10B44268BD
:1051D8000024074B64214470A3FB02035DF8044BD1
:1051E8005B0901FB132000F5FA6080B2704700BF2D
:1051F8001F85EB5110B4084B0024426864214470A9
:10520800A3FB02205DF8044B4009A3FB00235B09C4
:1052180001FB1300C0B270471F85EB51044A0021FF
:1052280043684170A2FB0330C0F34730704700BFAA
:105238005917B7D1044A002143684170A2FB0330D3
:10524800C0F38740704700BF83DE1B4330B4426819
:105258000024074D64214470A5FB0252054B500BF6
:10526800A3FB00235B0901FB130030BCC0B27047ED
:105278005917B7D11F85EB5110B4084B0024426869
:1052880064214470A3FB02205DF8044B4009A3FB92
:1052980000235B0901FB1300C0B270471F85EB5167
:1052A80010B442680024064B64214470A3FB020337
:1052B8005DF8044B5B0901FB1320C0B2704700BFC7
:1052C8001F85EB51006910B10368DB681847704708
:1052D800006910B103681B6918477047006910B16D
:1052E80003689B6918474FF0FF307047006910B199
:1052F80003685B6918474FF0FF3070472DE9F041AC
:105308000646884605F0C8FA306928B10368414660
:105318001B68BDE8F04118477369002B56D02D492A
:105328002D4A0B6843F080730B60136843F0010348
:105338001360746972B6A1F55D41B569F8390A68F8
:105348002860A31808681B1AB3F5BE7F08D9A4F50E
:10535800B47062B60B689B1A9842FBD872B6B569EE
:105368001E490B689B1A9C42FBD84FF0080E01217E
:105378001A4818EA010F14BF012300232B600368A1
:105388007769D31A3C442344B3F5BE7F08D9A4F502
:10539800B47562B603689B1A9D42FBD872B6B569AC
:1053A80003689B1A9C42FBD84900BEF1010EC9B2A2
:1053B800DFD101232B6062B6736908491C440B686E
:1053C8009B1A9C42FBD80120BDE8F0811846BDE835
:1053D800F08100BFFCED00E0001000E0041000E0E8
:1053E80070B5002304464FF47A752C4882B02371B7
:1053F800A5600D462060237384F8203031B9012A56
:1054080004D1274B2046236102B070BD062D06D17A
:10541800072A04D1234B2361204602B070BD0E2D0C
:1054280006D10F2A04D1204B2046236102B070BD5B
:10543800102D04D1112A02D11C4B2361ECE7152D44
:1054480004D1142A02D11A4B2361E5E7192D04D19E
:10545800182A02D1174B2361DEE71C2D04D11D2A1F
:1054680002D1154B2361D7E700261046012101928E
:10547800266105F083FA0221284605F07FFA019A91
:105488000E4B110184F8225084F821202D015A581E
:10549800A2615B5966610833E361BDE7B805002086
:1054A800AC1500200C1600206C160020CC1600202D
:1054B8002C1700208C170020EC1700209C090020D6
:1054C80003691BB11846002204F00EBC4B080A46BB
:1054D80008491944B1FBF2F130B4074D41612B681A
:1054E800064C43F080732B60236843F0010323606C
:1054F80030BC70470046C323FCED00E0001000E01C
:1055080038B5056904463DB1284604F04FFD00232F
:1055180023610023636138BD294690F8210005F016
:105528002DFA294694F8220005F028FA0023636131
:1055380038BD00BFF0B500F1240385B005460E461E
:1055480001AC174693E8070084E80700720121467A
:10555800286A01F0AFFB012806D13A462146286A9D
:1055680001F06CFB05B0F0BD002005B0F0BD00BF38
:1055780010B5044600F0F4FD002384F8313084F8B7
:10558800333010BD38B50D46144600F12401002211
:10559800006A01F053FB034628B1428901202A80A2
:1055A8001B89238038BD38BD38B50D46144600F137
:1055B80024010022006A01F041FB034628B1C28998
:1055C80001202A809B89238038BD38BD90F831207E
:1055D8000AB10020704738B50D46114638220446F6
:1055E8000BF060FE40230120256284F8313084F8F6
:1055F800330038BDF0B40C78202C03D111F8014FDA
:10560800202CFBD00E461E4F116091603578344631
:1056180001362F2D18BF002D22D0A5F122041F2DF1
:10562800E4B28CBF002101211D2C0ED90124A14216
:1056380013D205F0BF013C290FD05C2D0DD02E2DC3
:10564800E4D0202DE2D09660E0E727FA04F404F0D5
:10565800010484F00104A142EBD30020F0BC7047A0
:10566800202D01D02F2D05D114F8011F2029FBD0A2
:105678002F29F9D01C601146F0BC01F0E5B900BF34
:10568800010100312DE9F04F90F8333083B0054621
:10569800DE0760D55C060E46914640F1BD80D5E92F
:1056A8000001D5E9042310EB090A41F1000B5B4521
:1056B80008BF5245C0F0B680B9F1000F74D0AA46B1
:1056C8004C4640F2FF17FAE806012B6AD3F8382453
:1056D80002EA0008C8F3080BB8F1000F6AD150EAD3
:1056E800010279D195F8312051064CBFD3F8341412
:1056F800E969A9614FEA58200239D3F82C24BC4241
:1057080093F845E4024401FA0EF111442ED9BBF195
:10571800000F2BD1D3F81C22914227D0B4F5806F0B
:1057280061D34FF0010C4FEA54280CFA0EFEC0EB7F
:105738000E00804528BF804691423DD801EB080005
:10574800824239D203F504700191009303F03CFDC5
:10575800009B019980BB95F832304FF0FF3043F041
:10576800020385F8323003B0BDE8F08F03F504700A
:10577800002203F0F9FC0028EDD0CBF5007800EB0F
:105788000B013046A04528BFA046424605F03EF929
:10579800404600214644D5E9002380185941B4EB1E
:1057A8000804C5E9000190D10024C4EB090003B046
:1057B800BDE8F08FA9699DE7D3F814023246434645
:1057C800D0F800E0DEF814B0D8470028C3D04FEA7C
:1057D800482800214046DDE795F83320520610D5C9
:1057E800A969013185E7D3F81402324603681B69B9
:1057F80098470028AFD04FF4007000214FF400788C
:10580800C8E718465246A96901F034FA0028A2DB15
:105818000BD02B6AA9696DE790F8313018073FF56E
:105828003EAF49E7C0EB020946E795F8313013F07F
:10583800500FBAD18FE700BFF0B583B001220446FC
:1058480085690DF10701D0E90067FFF71BFF012803
:10585800A5610CBF9DF807004FF0FF30C4E9006751
:1058680003B0F0BD2DE9F04F90F831E085B0044663
:105878008569BEF1000F36D016461F46D0E90001F3
:10588800994208BF904265D056EA070330D10023F9
:10589800A3610120C4E9006705B0BDE8F08F10F1ED
:1058A800FF3241F1FF3322FA0CFC03FA08F823FA1D
:1058B8000AFA50EA01034CEA080C4CEA0A0C4BD0ED
:1058C800E34549D3CCEB0B0BA94604F118085D4618
:1058D8004246002DDDD0A169013D206A01F0CAF9D8
:1058E8000028F5DC4D460020A56105B0BDE8F08F25
:1058F8001EF0080F27D1236A16F1FF3893F845C424
:1059080047F1FF39C24603930CF1090CCB4694F8D2
:1059180033905FFA8CFC19F0400FCCF120082AFA7A
:105928000CF2CDE900AB019BACF1200A03FA08FBAD
:1059380023FA0AF342EA0B0242EA030BAFD0E36907
:105948005B44A361A5E7D4E90423BB4208BFB24284
:10595800C9D3D0E70120C8E71EF0400F02D1E369A0
:10596800A361B1E7039BD3F83434F9E72DE9F04F8D
:105978008FB08146019390F831302BB991F83130CE
:105988000C4613F0500F08D10023184689F831301F
:1059980089F833300FB0BDE8F08F019B154603F04E
:1059A8000303012B06D0022B00F0FF80002BEBD164
:1059B800012200E00222019B03F008031343029333
:1059C800002D40F0DD8003270026029BB34643F0FC
:1059D80040030393202206A92046FFF753FEF0B1A7
:1059E8002028D1D19DF81830180645D4BBF1000FF6
:1059F80004D12268D4F818A0A2F12008BB4503D22C
:105A08000BF1010B5FFA8BFB002B00F0D0802022FA
:105A180006A920460026FFF735FE0028E0D1019BA5
:105A28009905B1D5029B9A07AED5002DACD0BB45E0
:105A380080F0C6802B465E4655469A460AE02028E6
:105A4800A2D11EB92268A569A2F12008DEB2B74228
:105A580040F2B380202206A92046FFF713FE731CEC
:105A68000028ECD12046D4F818B000F0A9FB002893
:105A78008AD0C4F818B0EAE756BBBB4538BF4FF028
:105A8800000B852BA6D131463822484601260BF05B
:105A980009FC9DF81C309DF81920D90689F830209A
:105AA80003F0370258BF42F0080289F83120236812
:105AB800226AA169203BC9F82020C9F82830C9F812
:105AC800241094F83330C3F3801389F82C3081E71D
:105AD800C02B29D0C12B9AD12A4606A9484600F0E6
:105AE80027FF002867D0AB89002B7FF473AFAA6823
:105AF8006B689A427FF46EAF019B1F053FF544AF78
:105B0800019B13F4884F40F0AB8099F833309E071F
:105B180000F1A680019B5B053FF536AF019B580459
:105B280000F1BC80012035E79DF819309DF8082068
:105B38009B0789F8332003D59DF80C3089F833305A
:105B48000B99DDE90823C9F81C10DDE90C01C9E946
:105B58000423C9E90201002DCED09DF81B304FF077
:105B680000002A6929689A42A88169607FF44FAFCA
:105B7800BDF81C60AB8AF61AB6FA86F6760929E7EC
:105B88002B69664F0E33A7FB0337D4E90023FF08C0
:105B9800134307F10207FFB23FF416AF00210022BA
:105BA8000023A161C4E900230EE7032203E7002DC7
:105BB8007FF435AFE8E606460CE75346AA461D468D
:105BC80094F833B03822002148460BF06BFBCBF336
:105BD800801B0823226A002689F82CB0C9F824A063
:105BE800C9F8288089F831302B68C9F820206B6003
:105BF800AE818FB307F1FF3834465FFA88F8012287
:105C080021464846FFF796FC834600283FF4BCAE81
:105C180090F90030002BFFF6B7AE202200210BF0E0
:105C280041FB002E43D0012C5ED0C1235C460BF112
:105C38001E0A8BF80030AB8928461BB96A68AB6826
:105C48009A4205D003F0C8FA24F8020FA245F2D10F
:105C58000136F4B2BC42D2D3484600F081FA99E644
:105C680099F8313013F0110F7FF48EAE019B5D056A
:105C78007FF554AF99F833309C077FF585AE002245
:105C880000234846FFF7EEFD00283FF47DAE484666
:105C980000F0A8FC00283FF477AE43E74846D9E96E
:105CA8000423FFF7DFFD00287FF43CAF6CE6852373
:105CB8008BF800301A4B89F830808BF801801B680C
:105CC8001BB30DF113020DF1160105A89847BDF895
:105CD8001410BDF816209DF81330ABF80A10ABF875
:105CE80008208BF81430B3E7029BC0228BF80140E0
:105CF80063F07F038BF8002089F833302B698BF829
:105D08000330AB8AABF80430A2E745F22163ABF865
:105D18000A30ABF80E30ABF8123099E789888888DA
:105D28009C3400202DE9F043064697B000200D462C
:105D380096F8311001928DF851008DF852008DF8C7
:105D48005300ADF8140029B9994695F8313013F08D
:105D5800500F03D1002017B0BDE8F0831378144624
:105D68002F2B32D04FF00008214601AB02AA304653
:105D7800FFF740FC0028EDD0019B1B78002B39D0A1
:105D88002946002302AA3046FFF7F0FD0028E1D09B
:105D9800344608AF06F1300E2068103454F80C1C55
:105DA8003D4654F8082C103754F8043C74450FC588
:105DB800F2D1206808AD3860304600F0D1F986F895
:105DC800318086F83380019CCEE701340194217834
:105DD8002F29FAD0B9B108A8382200212F6A054620
:105DE8000BF060FA4022012310978DF851208DF8AE
:105DF8005330B7E74B4602AA29463046FFF7B6FDAF
:105E080017B0BDE8F083382230462C6A0BF04AFA06
:105E180040230120346286F8313086F833009AE74F
:105E280019B101F58961FFF77DBF0846704700BFCA
:105E3800F0B490F8314024B991F8313013F0500F94
:105E480002D10020F0BC7047D1E90067002706F0B6
:105E58001F0656EA0703F4D113462246F0BCFFF7A3
:105E680085BD00BF8169F8B50446006A01B10131FA
:105E7800012200F033FE012806462ED901230146EF
:105E8800206A1A4600F084FE074630B3A3693BB384
:105E980094F83320510612D5591C8E4226D022F090
:105EA8004002E16984F8332005E0206A00F026FF0B
:105EB800294690B1A3694D1C99422A46F5D34FF063
:105EC800FF323146206A00F019FF30B1A16969B18B
:105ED8003246206A00F012FF40B900273846F8BD64
:105EE80094F8333043F0400384F83330A6613846E1
:105EF800F8BD00BF90F833309A073BD5C1692DE94A
:105F0800F0410546A9B9002408E00378E4B203F09B
:105F18007F03037095F83030A3422DD32146012228
:105F280028460134FFF706FB0028EED10020BDE823
:105F3800F0815B06006A37D590F845240023D5E93F
:105F48000267093216F1FF36D2B247F1FF37C2F1C4
:105F5800200EA2F1200426FA02F207FA0EFE27FA12
:105F680004F442EA0E022243013200F011FE002836
:105F7800C9D1DBE70020704700232C6A85F831304F
:105F8800204685F8333003F01FF90028CED004F5F9
:105F9800047003F019F90028C8D0D4F84004036845
:105FA800BDE8F0411B6A184700F0BAFE0028AAD1E4
:105FB800BCE700BF90F83130D90601D40020704703
:105FC80010B5002288B000230446FFF74BFC06E01A
:105FD800202819D19DF800301A0615D433B1202293
:105FE80069462046FFF74EFB0028F1D194F833307C
:105FF8000822204643F0020384F8312084F8333025
:10600800FFF778FF08B010BD002008B010BD00BF32
:106018002DE9F043002583B00746DFF84091A846F4
:10602800002229463846FFF785FA044630B103783E
:10603800C02B74D0C12B2CD0852B09D097F83230C7
:10604800002043F0010387F8323003B0BDE8F08345
:1060580097F83130D9F8006003F03703838086B1B0
:106068000DF103020DF1060101A8B047BDF80620A5
:10607800BDF804309DF80310A28161752282E38186
:1060880063823A6A92F8103243F0010382F81032C0
:1060980023784FEAC830A3F185060022012140EA9F
:1060A8005808B6FA86F613FA88F376091FFA83F8C1
:1060B8000A444FEAC83303211F2A43EA58030AD87F
:1060C800A05C012A10FA83F31FFA83F801D1002E8D
:1060D800EED10121ECE7013597F83030EDB2AB4253
:1060E8009ED2012207F12401386A00F0A7FD00289A
:1060F800A4D03C6AA0F80280204603F065F8002886
:106108009CD004F5047003F05FF8002896D0D4F80A
:10611800400403681B6A984700288FD095E797F8D2
:10612800333013F0400F437814BF43F0020323F0D9
:1061380002034370386AF969D7E904236161C4E945
:106148000223D7E90223C4E9062390F8103243F06A
:10615800010380F8103223789BE700BF9C340020AD
:1061680090F8312092B138B590F8332011060FD449
:10617800056A0446284603F027F888B994F83230AF
:10618800002043F0010384F8323038BD0120704705
:1061980002F07F0280F83320BDE83840FFF738BFAF
:1061A80005F5047003F010F80028E7D0D5F840048E
:1061B80003681B6A98470028E0D0012038BD00BF5B
:1061C800F8B590F8313005465A064FD480682B6AE6
:1061D800D3F83C341844B0F1806F01D30020F8BDE7
:1061E8002846FFF73FFE0028F8D0286A0122AE694A
:1061F80090F84534023ED0F82C149E4012FA03F36E
:106208000E4415D000243119052200F5047001341C
:1062180002F0AAFF4FF4007200210028DED00BF034
:1062280041F8286A012390F845249340A342EAD80C
:1062380095F831305B0614D495F83330002763F0B5
:106248007F0385F83330D0F83C64D5E90223D5E9DB
:10625800040192197B4180197941C5E90223C5E9F6
:1062680004012846BDE8F840FFF77ABF006A00F04D
:1062780043FEACE710B591F8314014F0500F01D14E
:10628800002010BD40F602230446FFF76FFB0028EC
:10629800F6D01023204684F83130FFF791FF00280C
:1062A800EED0A169002320460022E161FFF7DAFA67
:1062B800C123204684F83330BDE81040FFF750BFB3
:1062C8002DE9F041064696B000200C4696F83110AC
:1062D8000192ADF814008DF851008DF852008DF838
:1062E800530029B9984694F8313013F0500F03D170
:1062F800002016B0BDE8F081137811462F2B34D05A
:1063080001AB02AA3046FFF775F90028F0D0019BCF
:106318001B78002B37D0002302AA21463046FFF70E
:1063280025FB48B9B8F1000FE2D0214602AA304651
:10633800FFF7A0FF0028DBD0344608AF06F1300E87
:106348002068103454F80C1C3D4654F8082C1037BB
:1063580054F8043C74450FC5F2D1206808AC386085
:106368003046FFF705F90199CAE7013101910B7829
:106378002F2BFAD0216A08A8FFF728F90028B7D0F0
:1063880008AC0199BCE702AA21463046FFF772FF24
:1063980016B0BDE8F08100BFF0B590F831409DB06F
:1063A800002314F0180F8DF831308DF832308DF845
:1063B80033308DF869308DF86A308DF86B3003D042
:1063C8000B6A046A9C4202D000201DB0F0BD04464E
:1063D80040F601236846FFF7A5FC0028F4D02546BF
:1063E80004F1300E0EAF2868103555F80C1C3E46E7
:1063F80055F8082C103755F8043C75450FC6F2D1EE
:10640800286809AA04F1240338609DF8305007CAA7
:1064180083E8070094F83330204684F8305063F05E
:106428007F0384F83330FFF79BFE0028CCD000218F
:10643800022208230EA815918DF86B208DF869307B
:10644800FFF758FDC1E700BF2DE9F04F90F8314044
:1064580083B01F4624079DF830A09DF834909DF81E
:1064680038B09DF83C3004D5A2F2BC7294B27F2CAF
:1064780004D90026304603B0BDE8F08F7A1E0B2AF7
:10648800F7D80AF1FF321E2AF3D8BBF13B0F98BFA9
:10649800B9F1170F8CBF012600263B2B88BF46F0A9
:1064A8000106002EE5D1019305468846FFF758FE00
:1064B800019B0028DDD0591013F0010F4AEA471755
:1064C80008F0010341EA4B11B24647EA442708BFE6
:1064D8004FF0000B41EAC92918BF4FF0640B34464E
:1064E800BFB21FFA89F90193002251462846FFF7E7
:1064F80021F80028BDD00278852A4FD0BAD3A2F15E
:10650800C0010129B6D84FEAC43EA2F18503002193
:106518004EEA5404B3FA83F34FF0010E12FA84F4EE
:106528005B09A4B27144E2034FF0030E1F2942EA4B
:1065380054020AD8445C012914FA82F294B201D1B7
:10654800002BEFD14FF0010EECE70AF1010395F8AB
:1065580030205FFA83FA5245C6D2012205F12401A0
:10656800286A00F06BFB002883D02D6A44802846F7
:1065780002F02AFE00283FF47CAF05F5047002F013
:1065880023FE00283FF475AFD5F8400403681B6A62
:106598009847064600283FF46CAF6BE795F8312022
:1065A800296A02F03702019B828091F8102242F09A
:1065B800010281F8102213B1A0F81090478218F058
:1065C800020F04D080F814B0A0F80890478118F0A2
:1065D800040F04D080F815B0A0F80C90C781027899
:1065E80091E700BF90F833309A0718D5F0B5C56920
:1065F80083B08DB103F04003044603F0FF0683B96E
:106608008169002942D10195C1612946206A00F0BB
:1066180087FB38BB002000E0012003B0F0BD00205C
:106628007047006AA16990F84524D4E902670932E5
:1066380016F1FF36D2B247F1FF37C2F1200EA2F1B0
:10664800200326FA02F207FA0EFE27FA03F342EABB
:106658000E021A430132B1B1013D4B1C691A019374
:106668000A4402BB94F833302046D4E9006763F04B
:106678007F03C4E9026784F83330C4E90467FFF78D
:106688006FFD03B0F0BD0195E161EAE702AA006A77
:1066980042F8046D00F0EEFA0028BBDB0AD1019D38
:1066A800002DDFD0B1E70023019900F071FA00282E
:1066B800D8D1AFE74FF0FF32A169206A00F01EFB86
:1066C8000028ECD1A6E700BF2DE9F04F90F8333051
:1066D80083B004469D07009240F1B3801A078846AC
:1066E80000F1A880009B002B00F01D812146009D31
:1066F8004FF0010AF1E8062393460191206AA16947
:10670800D0F8386406EA0B06C6F3080956BB002918
:1067180000F0CC8094F833305B0640F1E08090F8CC
:106728004524E3690932D4E902BCD2B21BF1FF3B2C
:10673800C2F1200EA2F120074CF1FF3C2BFA02F225
:106748000CFA0EFE2CFA07F742EA0E023A431A44F4
:106758009142C0F0C1802046FFF784FB002870D02A
:10676800206AA169760A0239D0F82C7490F845E4B9
:10677800374401FA0EF13944B9F1000F6BD1B5F580
:10678800007F2CBF00220122002A64D1B5F5806F5A
:10679800C0F090800AFA0EFE6B0AD0F81CC2C6EB55
:1067A8000E06B34228BF334661454FEA432708D84F
:1067B8005E18B44505D24FF0FF3680F81022C0F8B5
:1067C8001C62D0F8140242460668B66AB047002830
:1067D80037D038460021B844ED1BD4E90023D4E96A
:1067E800046712EB000B43EB010C674508BF5E45DD
:1067F800C4E900BC07D294F8331061F07F01C4E902
:1068080004BC84F83310002D7FF478AF5A466346F1
:10681800D4E90201994208BF904278D3434B1B68E0
:10682800002B7ED094F83330009863F07F0384F80F
:1068380033300DE0D0E90423FFF714F800287FF483
:1068480051AF94F83230002043F0010384F832301D
:1068580003B0BDE8F08FB9F1000F25D1D4E90423C6
:10686800D4E900679F4208BF964234BF012205223F
:1068780000F5047002F078FC0028E2D0C9F5007732
:1068880048444146AF4228BF2F46B9443A4604F02F
:10689800BDF8B9F5007F9CD1206A00F5047002F0BC
:1068A80093FC002895D1CCE70122E1E7E169F1B139
:1068B800A16157E7D0F81C32994221D0D0F81402D0
:1068C800424603685B6A98470028BAD04FF40070C4
:1068D80000214FF400777EE70131A16142E7019A78
:1068E80000F0C8F90028ACDB7FF43AAF33E7204664
:1068F800FFF7B8FA0028A4D0A169206AE16131E75E
:106908004FF0FF3380F81022C0F81C32D6E794F815
:106918003310009861F07F01C4E9022384F8331032
:1069280096E7009894E7D4E9002371E79C340020A7
:106938002DE9F0410C46154601F11E08AB892846A1
:1069480034F8026F1BB96A68AB689A420ED002F03D
:1069580043FC02F001FD0746304602F0FDFC874289
:1069680009D14445EAD10120BDE8F081B6FA86F0A4
:106978004009BDE8F0810020BDE8F0812DE9F84F1D
:1069880090F831308946002B45D090F83030804659
:10699800012B53D9013A8A4602274FF0000B8E1873
:1069A800002239464046FEF7C5FDA0B30378C12B47
:1069B80031D1044600F11E0519E000F510539BB2D1
:1069C800B3F5806F27D24FEA8B2B1E4BC0F309001B
:1069D8000BEA0303184300F580305146324602F0B3
:1069E80025FC8246B8B1AC424FF0000B1FD034F8FA
:1069F800020FBBF1000FE0D100F520539BB2B3F5B5
:106A0800006F0ED30028E8D1C9EB0A0000238AF8EA
:106A18000030BDE8F88F0023184689F80030BDE83B
:106A2800F88FB3F5806FF6D2AC428346DFD10137D9
:106A380098F83030FFB2BB42B2D2E5E78A46002070
:106A4800E4E700BF00FC0F00F8B50D4600234FF641
:106A5800FF762A681946AB811C466A602B6116E0EE
:106A680002F0BAFBB04221D002F076FC2B69E203B7
:106A7800A9890712013342EA54022B6152FA80F0C5
:106A8800C0F34E0343EAC03017FA80F4A4B2284694
:106A98000029E5D16A68AB689A42E1D12869AC82DD
:106AA8000138FE288CBF00200120F8BD0020F8BD69
:106AB80038B50C46D0F82414154600F504700122A8
:106AC80001EBD41102F050FB034628B1A4000120C9
:106AD800C4F308041D5138BD38BD00BF2DE9F84F77
:106AE800804691468B46002943D08F1ED8F8303413
:106AF8009F423AD207F007050123C7F3C80A03FAF1
:106B080005F5EDB23E463C46D8F82C140022404626
:106B180001EB143102F028FBC0B110F80A100AE0AA
:106B28004A4529D0A74210D0D8F83024944216D22A
:106B380013F0FF050CD001340D424FEA4503A4EBD6
:106B48000602EDD0A7422646EED10120BDE8F88F17
:106B58000AF1010A0125BAF5007FDED101E000261D
:106B680034464FF0000A0125CEE700270125BA4632
:106B7800C8E7D0F82074B9E7BBF1000F04D1B9F128
:106B8800010F08BFC8F82064B01CBDE8F88F00BF2B
:106B98002DE9F047023915469A46D0F830244B19AA
:106BA800934238D88046BAF1000F37D1D0F8203454
:106BB800994238BFC0F8201401F007040122D8F820
:106BC8002C34C1F3C80602FA04F403EB1139E4B219
:106BD800012249464046914402F0C6FAD8B18719C5
:106BE80000F5007017F8012B224282EA04024FEAEE
:106BF800440414BF0126002656450CD0013D07F871
:106C0800012C17D014F0FF04EED1874226464FF02E
:106C18000104E7D1DCE70020BDE8F087D0F82004C4
:106C28008342C9D98142C7D8934228BF0023C8F8F4
:106C38002034C1E70120BDE8F08700BF70B50E46DB
